{
	"contracts/GHBToken.sol": {
		"GHBToken": {
			"abi": [
				{
					"inputs": [],
					"stateMutability": "nonpayable",
					"type": "constructor"
				},
				{
					"anonymous": false,
					"inputs": [
						{
							"indexed": true,
							"internalType": "address",
							"name": "tokenOwner",
							"type": "address"
						},
						{
							"indexed": true,
							"internalType": "address",
							"name": "spender",
							"type": "address"
						},
						{
							"indexed": false,
							"internalType": "uint256",
							"name": "tokens",
							"type": "uint256"
						}
					],
					"name": "Approval",
					"type": "event"
				},
				{
					"anonymous": false,
					"inputs": [
						{
							"indexed": true,
							"internalType": "address",
							"name": "from",
							"type": "address"
						},
						{
							"indexed": true,
							"internalType": "address",
							"name": "to",
							"type": "address"
						},
						{
							"indexed": false,
							"internalType": "uint256",
							"name": "tokens",
							"type": "uint256"
						}
					],
					"name": "Transfer",
					"type": "event"
				},
				{
					"inputs": [
						{
							"internalType": "address",
							"name": "origin",
							"type": "address"
						},
						{
							"internalType": "address",
							"name": "delegate",
							"type": "address"
						}
					],
					"name": "allowance",
					"outputs": [
						{
							"internalType": "uint256",
							"name": "",
							"type": "uint256"
						}
					],
					"stateMutability": "view",
					"type": "function"
				},
				{
					"inputs": [
						{
							"internalType": "address",
							"name": "",
							"type": "address"
						},
						{
							"internalType": "address",
							"name": "",
							"type": "address"
						}
					],
					"name": "allowed",
					"outputs": [
						{
							"internalType": "uint256",
							"name": "",
							"type": "uint256"
						}
					],
					"stateMutability": "view",
					"type": "function"
				},
				{
					"inputs": [
						{
							"internalType": "address",
							"name": "delegate",
							"type": "address"
						},
						{
							"internalType": "uint256",
							"name": "amount",
							"type": "uint256"
						}
					],
					"name": "approve",
					"outputs": [
						{
							"internalType": "bool",
							"name": "",
							"type": "bool"
						}
					],
					"stateMutability": "nonpayable",
					"type": "function"
				},
				{
					"inputs": [
						{
							"internalType": "address",
							"name": "tokenOwner",
							"type": "address"
						}
					],
					"name": "balanceOf",
					"outputs": [
						{
							"internalType": "uint256",
							"name": "",
							"type": "uint256"
						}
					],
					"stateMutability": "view",
					"type": "function"
				},
				{
					"inputs": [
						{
							"internalType": "address",
							"name": "",
							"type": "address"
						}
					],
					"name": "balances",
					"outputs": [
						{
							"internalType": "uint256",
							"name": "",
							"type": "uint256"
						}
					],
					"stateMutability": "view",
					"type": "function"
				},
				{
					"inputs": [
						{
							"internalType": "address",
							"name": "account",
							"type": "address"
						},
						{
							"internalType": "uint256",
							"name": "amount",
							"type": "uint256"
						}
					],
					"name": "burn",
					"outputs": [],
					"stateMutability": "nonpayable",
					"type": "function"
				},
				{
					"inputs": [],
					"name": "decimals",
					"outputs": [
						{
							"internalType": "uint256",
							"name": "",
							"type": "uint256"
						}
					],
					"stateMutability": "view",
					"type": "function"
				},
				{
					"inputs": [
						{
							"internalType": "address",
							"name": "spender",
							"type": "address"
						},
						{
							"internalType": "uint256",
							"name": "subtractedValue",
							"type": "uint256"
						}
					],
					"name": "decreaseAllowance",
					"outputs": [
						{
							"internalType": "bool",
							"name": "",
							"type": "bool"
						}
					],
					"stateMutability": "nonpayable",
					"type": "function"
				},
				{
					"inputs": [
						{
							"internalType": "address",
							"name": "spender",
							"type": "address"
						},
						{
							"internalType": "uint256",
							"name": "addedValue",
							"type": "uint256"
						}
					],
					"name": "increaseAllowance",
					"outputs": [
						{
							"internalType": "bool",
							"name": "",
							"type": "bool"
						}
					],
					"stateMutability": "nonpayable",
					"type": "function"
				},
				{
					"inputs": [
						{
							"internalType": "address",
							"name": "account",
							"type": "address"
						},
						{
							"internalType": "uint256",
							"name": "amount",
							"type": "uint256"
						}
					],
					"name": "mint",
					"outputs": [],
					"stateMutability": "nonpayable",
					"type": "function"
				},
				{
					"inputs": [],
					"name": "name",
					"outputs": [
						{
							"internalType": "string",
							"name": "",
							"type": "string"
						}
					],
					"stateMutability": "view",
					"type": "function"
				},
				{
					"inputs": [],
					"name": "owner",
					"outputs": [
						{
							"internalType": "address",
							"name": "",
							"type": "address"
						}
					],
					"stateMutability": "view",
					"type": "function"
				},
				{
					"inputs": [],
					"name": "symbol",
					"outputs": [
						{
							"internalType": "string",
							"name": "",
							"type": "string"
						}
					],
					"stateMutability": "view",
					"type": "function"
				},
				{
					"inputs": [],
					"name": "totalSupply",
					"outputs": [
						{
							"internalType": "uint256",
							"name": "",
							"type": "uint256"
						}
					],
					"stateMutability": "view",
					"type": "function"
				},
				{
					"inputs": [],
					"name": "totalSupply_",
					"outputs": [
						{
							"internalType": "uint256",
							"name": "",
							"type": "uint256"
						}
					],
					"stateMutability": "view",
					"type": "function"
				},
				{
					"inputs": [
						{
							"internalType": "address",
							"name": "receiver",
							"type": "address"
						},
						{
							"internalType": "uint256",
							"name": "amount",
							"type": "uint256"
						}
					],
					"name": "transfer",
					"outputs": [
						{
							"internalType": "bool",
							"name": "",
							"type": "bool"
						}
					],
					"stateMutability": "nonpayable",
					"type": "function"
				},
				{
					"inputs": [
						{
							"internalType": "address",
							"name": "origin",
							"type": "address"
						},
						{
							"internalType": "uint256",
							"name": "amount",
							"type": "uint256"
						}
					],
					"name": "transferFrom",
					"outputs": [
						{
							"internalType": "bool",
							"name": "",
							"type": "bool"
						}
					],
					"stateMutability": "nonpayable",
					"type": "function"
				}
			],
			"devdoc": {
				"kind": "dev",
				"methods": {},
				"version": 1
			},
			"evm": {
				"assembly": "    /* \"contracts/GHBToken.sol\":223:5586  contract GHBToken is IERC20 {... */\n  mstore(0x40, 0x80)\n    /* \"contracts/GHBToken.sol\":437:461  100000000000000000000000 */\n  0x152d02c7e14af6800000\n    /* \"contracts/GHBToken.sol\":408:461  uint256 public totalSupply_= 100000000000000000000000 */\n  0x00\n  sstore\n    /* \"contracts/GHBToken.sol\":629:723  constructor(){... */\n  callvalue\n  dup1\n  iszero\n  tag_1\n  jumpi\n  0x00\n  dup1\n  revert\ntag_1:\n  pop\n    /* \"contracts/GHBToken.sol\":675:687  totalSupply_ */\n  sload(0x00)\n    /* \"contracts/GHBToken.sol\":652:660  balances */\n  0x02\n    /* \"contracts/GHBToken.sol\":652:672  balances[msg.sender] */\n  0x00\n    /* \"contracts/GHBToken.sol\":661:671  msg.sender */\n  caller\n    /* \"contracts/GHBToken.sol\":652:672  balances[msg.sender] */\n  0xffffffffffffffffffffffffffffffffffffffff\n  and\n  0xffffffffffffffffffffffffffffffffffffffff\n  and\n  dup2\n  mstore\n  0x20\n  add\n  swap1\n  dup2\n  mstore\n  0x20\n  add\n  0x00\n  keccak256\n    /* \"contracts/GHBToken.sol\":652:687  balances[msg.sender] = totalSupply_ */\n  dup2\n  swap1\n  sstore\n  pop\n    /* \"contracts/GHBToken.sol\":706:716  msg.sender */\n  caller\n    /* \"contracts/GHBToken.sol\":698:703  owner */\n  0x01\n  0x00\n    /* \"contracts/GHBToken.sol\":698:716  owner = msg.sender */\n  0x0100\n  exp\n  dup2\n  sload\n  dup2\n  0xffffffffffffffffffffffffffffffffffffffff\n  mul\n  not\n  and\n  swap1\n  dup4\n  0xffffffffffffffffffffffffffffffffffffffff\n  and\n  mul\n  or\n  swap1\n  sstore\n  pop\n    /* \"contracts/GHBToken.sol\":223:5586  contract GHBToken is IERC20 {... */\n  dataSize(sub_0)\n  dup1\n  dataOffset(sub_0)\n  0x00\n  codecopy\n  0x00\n  return\nstop\n\nsub_0: assembly {\n        /* \"contracts/GHBToken.sol\":223:5586  contract GHBToken is IERC20 {... */\n      mstore(0x40, 0x80)\n      callvalue\n      dup1\n      iszero\n      tag_1\n      jumpi\n      0x00\n      dup1\n      revert\n    tag_1:\n      pop\n      jumpi(tag_2, lt(calldatasize, 0x04))\n      shr(0xe0, calldataload(0x00))\n      dup1\n      0x40c10f19\n      gt\n      tag_20\n      jumpi\n      dup1\n      0x95d89b41\n      gt\n      tag_21\n      jumpi\n      dup1\n      0x95d89b41\n      eq\n      tag_15\n      jumpi\n      dup1\n      0x9dc29fac\n      eq\n      tag_16\n      jumpi\n      dup1\n      0xa457c2d7\n      eq\n      tag_17\n      jumpi\n      dup1\n      0xa9059cbb\n      eq\n      tag_18\n      jumpi\n      dup1\n      0xdd62ed3e\n      eq\n      tag_19\n      jumpi\n      jump(tag_2)\n    tag_21:\n      dup1\n      0x40c10f19\n      eq\n      tag_11\n      jumpi\n      dup1\n      0x5c658165\n      eq\n      tag_12\n      jumpi\n      dup1\n      0x70a08231\n      eq\n      tag_13\n      jumpi\n      dup1\n      0x8da5cb5b\n      eq\n      tag_14\n      jumpi\n      jump(tag_2)\n    tag_20:\n      dup1\n      0x27e235e3\n      gt\n      tag_22\n      jumpi\n      dup1\n      0x27e235e3\n      eq\n      tag_7\n      jumpi\n      dup1\n      0x313ce567\n      eq\n      tag_8\n      jumpi\n      dup1\n      0x324536eb\n      eq\n      tag_9\n      jumpi\n      dup1\n      0x39509351\n      eq\n      tag_10\n      jumpi\n      jump(tag_2)\n    tag_22:\n      dup1\n      0x01c6adc3\n      eq\n      tag_3\n      jumpi\n      dup1\n      0x06fdde03\n      eq\n      tag_4\n      jumpi\n      dup1\n      0x095ea7b3\n      eq\n      tag_5\n      jumpi\n      dup1\n      0x18160ddd\n      eq\n      tag_6\n      jumpi\n    tag_2:\n      0x00\n      dup1\n      revert\n        /* \"contracts/GHBToken.sol\":3217:3675  function transferFrom(address origin, uint256 amount) public override enoughBalance(origin, amount) enoughAllowance(owner, amount) returns(bool){... */\n    tag_3:\n      tag_23\n      0x04\n      dup1\n      calldatasize\n      sub\n      dup2\n      add\n      swap1\n      tag_24\n      swap2\n      swap1\n      tag_25\n      jump\t// in\n    tag_24:\n      tag_26\n      jump\t// in\n    tag_23:\n      mload(0x40)\n      tag_27\n      swap2\n      swap1\n      tag_28\n      jump\t// in\n    tag_27:\n      mload(0x40)\n      dup1\n      swap2\n      sub\n      swap1\n      return\n        /* \"contracts/GHBToken.sol\":274:314  string public constant name = \"GHBToken\" */\n    tag_4:\n      tag_29\n      tag_30\n      jump\t// in\n    tag_29:\n      mload(0x40)\n      tag_31\n      swap2\n      swap1\n      tag_32\n      jump\t// in\n    tag_31:\n      mload(0x40)\n      dup1\n      swap2\n      sub\n      swap1\n      return\n        /* \"contracts/GHBToken.sol\":2433:2751  function approve(address delegate, uint256 amount) public override enoughBalance(msg.sender, amount) returns(bool){... */\n    tag_5:\n      tag_33\n      0x04\n      dup1\n      calldatasize\n      sub\n      dup2\n      add\n      swap1\n      tag_34\n      swap2\n      swap1\n      tag_25\n      jump\t// in\n    tag_34:\n      tag_35\n      jump\t// in\n    tag_33:\n      mload(0x40)\n      tag_36\n      swap2\n      swap1\n      tag_28\n      jump\t// in\n    tag_36:\n      mload(0x40)\n      dup1\n      swap2\n      sub\n      swap1\n      return\n        /* \"contracts/GHBToken.sol\":1647:1744  function totalSupply() public override view returns( uint256){... */\n    tag_6:\n      tag_37\n      tag_38\n      jump\t// in\n    tag_37:\n      mload(0x40)\n      tag_39\n      swap2\n      swap1\n      tag_40\n      jump\t// in\n    tag_39:\n      mload(0x40)\n      dup1\n      swap2\n      sub\n      swap1\n      return\n        /* \"contracts/GHBToken.sol\":494:537  mapping(address => uint256) public balances */\n    tag_7:\n      tag_41\n      0x04\n      dup1\n      calldatasize\n      sub\n      dup2\n      add\n      swap1\n      tag_42\n      swap2\n      swap1\n      tag_43\n      jump\t// in\n    tag_42:\n      tag_44\n      jump\t// in\n    tag_41:\n      mload(0x40)\n      tag_45\n      swap2\n      swap1\n      tag_40\n      jump\t// in\n    tag_45:\n      mload(0x40)\n      dup1\n      swap2\n      sub\n      swap1\n      return\n        /* \"contracts/GHBToken.sol\":365:402  uint256 public constant decimals = 18 */\n    tag_8:\n      tag_46\n      tag_47\n      jump\t// in\n    tag_46:\n      mload(0x40)\n      tag_48\n      swap2\n      swap1\n      tag_40\n      jump\t// in\n    tag_48:\n      mload(0x40)\n      dup1\n      swap2\n      sub\n      swap1\n      return\n        /* \"contracts/GHBToken.sol\":408:461  uint256 public totalSupply_= 100000000000000000000000 */\n    tag_9:\n      tag_49\n      tag_50\n      jump\t// in\n    tag_49:\n      mload(0x40)\n      tag_51\n      swap2\n      swap1\n      tag_40\n      jump\t// in\n    tag_51:\n      mload(0x40)\n      dup1\n      swap2\n      sub\n      swap1\n      return\n        /* \"contracts/GHBToken.sol\":3789:4166  function increaseAllowance(address spender, uint256 addedValue) public isValidAddress(spender) returns (bool) {... */\n    tag_10:\n      tag_52\n      0x04\n      dup1\n      calldatasize\n      sub\n      dup2\n      add\n      swap1\n      tag_53\n      swap2\n      swap1\n      tag_25\n      jump\t// in\n    tag_53:\n      tag_54\n      jump\t// in\n    tag_52:\n      mload(0x40)\n      tag_55\n      swap2\n      swap1\n      tag_28\n      jump\t// in\n    tag_55:\n      mload(0x40)\n      dup1\n      swap2\n      sub\n      swap1\n      return\n        /* \"contracts/GHBToken.sol\":4751:5114  function mint(address account, uint256 amount) public onlyOwner() isValidAddress(account) {... */\n    tag_11:\n      tag_56\n      0x04\n      dup1\n      calldatasize\n      sub\n      dup2\n      add\n      swap1\n      tag_57\n      swap2\n      swap1\n      tag_25\n      jump\t// in\n    tag_57:\n      tag_58\n      jump\t// in\n    tag_56:\n      stop\n        /* \"contracts/GHBToken.sol\":543:605  mapping(address => mapping(address => uint256)) public allowed */\n    tag_12:\n      tag_59\n      0x04\n      dup1\n      calldatasize\n      sub\n      dup2\n      add\n      swap1\n      tag_60\n      swap2\n      swap1\n      tag_61\n      jump\t// in\n    tag_60:\n      tag_62\n      jump\t// in\n    tag_59:\n      mload(0x40)\n      tag_63\n      swap2\n      swap1\n      tag_40\n      jump\t// in\n    tag_63:\n      mload(0x40)\n      dup1\n      swap2\n      sub\n      swap1\n      return\n        /* \"contracts/GHBToken.sol\":1834:1955  function balanceOf(address tokenOwner) public override view returns (uint256){... */\n    tag_13:\n      tag_64\n      0x04\n      dup1\n      calldatasize\n      sub\n      dup2\n      add\n      swap1\n      tag_65\n      swap2\n      swap1\n      tag_43\n      jump\t// in\n    tag_65:\n      tag_66\n      jump\t// in\n    tag_64:\n      mload(0x40)\n      tag_67\n      swap2\n      swap1\n      tag_40\n      jump\t// in\n    tag_67:\n      mload(0x40)\n      dup1\n      swap2\n      sub\n      swap1\n      return\n        /* \"contracts/GHBToken.sol\":467:487  address public owner */\n    tag_14:\n      tag_68\n      tag_69\n      jump\t// in\n    tag_68:\n      mload(0x40)\n      tag_70\n      swap2\n      swap1\n      tag_71\n      jump\t// in\n    tag_70:\n      mload(0x40)\n      dup1\n      swap2\n      sub\n      swap1\n      return\n        /* \"contracts/GHBToken.sol\":321:359  string public constant symbol = \"GHBT\" */\n    tag_15:\n      tag_72\n      tag_73\n      jump\t// in\n    tag_72:\n      mload(0x40)\n      tag_74\n      swap2\n      swap1\n      tag_32\n      jump\t// in\n    tag_74:\n      mload(0x40)\n      dup1\n      swap2\n      sub\n      swap1\n      return\n        /* \"contracts/GHBToken.sol\":5181:5583  function burn(address account, uint256 amount) public onlyOwner() isValidAddress(account) enoughBalance(account, amount) {... */\n    tag_16:\n      tag_75\n      0x04\n      dup1\n      calldatasize\n      sub\n      dup2\n      add\n      swap1\n      tag_76\n      swap2\n      swap1\n      tag_25\n      jump\t// in\n    tag_76:\n      tag_77\n      jump\t// in\n    tag_75:\n      stop\n        /* \"contracts/GHBToken.sol\":4284:4673  function decreaseAllowance(address spender, uint256 subtractedValue) public isValidAddress(spender) returns (bool) {... */\n    tag_17:\n      tag_78\n      0x04\n      dup1\n      calldatasize\n      sub\n      dup2\n      add\n      swap1\n      tag_79\n      swap2\n      swap1\n      tag_25\n      jump\t// in\n    tag_79:\n      tag_80\n      jump\t// in\n    tag_78:\n      mload(0x40)\n      tag_81\n      swap2\n      swap1\n      tag_28\n      jump\t// in\n    tag_81:\n      mload(0x40)\n      dup1\n      swap2\n      sub\n      swap1\n      return\n        /* \"contracts/GHBToken.sol\":1994:2380  function transfer(address receiver, uint256 amount) public override enoughBalance(msg.sender, amount) returns (bool){... */\n    tag_18:\n      tag_82\n      0x04\n      dup1\n      calldatasize\n      sub\n      dup2\n      add\n      swap1\n      tag_83\n      swap2\n      swap1\n      tag_25\n      jump\t// in\n    tag_83:\n      tag_84\n      jump\t// in\n    tag_82:\n      mload(0x40)\n      tag_85\n      swap2\n      swap1\n      tag_28\n      jump\t// in\n    tag_85:\n      mload(0x40)\n      dup1\n      swap2\n      sub\n      swap1\n      return\n        /* \"contracts/GHBToken.sol\":2887:3026  function allowance(address origin, address delegate) public override view returns(uint256){... */\n    tag_19:\n      tag_86\n      0x04\n      dup1\n      calldatasize\n      sub\n      dup2\n      add\n      swap1\n      tag_87\n      swap2\n      swap1\n      tag_61\n      jump\t// in\n    tag_87:\n      tag_88\n      jump\t// in\n    tag_86:\n      mload(0x40)\n      tag_89\n      swap2\n      swap1\n      tag_40\n      jump\t// in\n    tag_89:\n      mload(0x40)\n      dup1\n      swap2\n      sub\n      swap1\n      return\n        /* \"contracts/GHBToken.sol\":3217:3675  function transferFrom(address origin, uint256 amount) public override enoughBalance(origin, amount) enoughAllowance(owner, amount) returns(bool){... */\n    tag_26:\n        /* \"contracts/GHBToken.sol\":3356:3360  bool */\n      0x00\n        /* \"contracts/GHBToken.sol\":3301:3307  origin */\n      dup3\n        /* \"contracts/GHBToken.sol\":3309:3315  amount */\n      dup3\n        /* \"contracts/GHBToken.sol\":1230:1238  balances */\n      0x02\n        /* \"contracts/GHBToken.sol\":1230:1247  balances[account] */\n      0x00\n        /* \"contracts/GHBToken.sol\":1239:1246  account */\n      dup4\n        /* \"contracts/GHBToken.sol\":1230:1247  balances[account] */\n      0xffffffffffffffffffffffffffffffffffffffff\n      and\n      0xffffffffffffffffffffffffffffffffffffffff\n      and\n      dup2\n      mstore\n      0x20\n      add\n      swap1\n      dup2\n      mstore\n      0x20\n      add\n      0x00\n      keccak256\n      sload\n        /* \"contracts/GHBToken.sol\":1220:1226  amount */\n      dup2\n        /* \"contracts/GHBToken.sol\":1220:1247  amount <= balances[account] */\n      gt\n      iszero\n        /* \"contracts/GHBToken.sol\":1212:1295  require(amount <= balances[account], 'ERRO: Account does not have enough balance!') */\n      tag_91\n      jumpi\n      mload(0x40)\n      0x08c379a000000000000000000000000000000000000000000000000000000000\n      dup2\n      mstore\n      0x04\n      add\n      tag_92\n      swap1\n      tag_93\n      jump\t// in\n    tag_92:\n      mload(0x40)\n      dup1\n      swap2\n      sub\n      swap1\n      revert\n    tag_91:\n        /* \"contracts/GHBToken.sol\":3333:3338  owner */\n      0x01\n      0x00\n      swap1\n      sload\n      swap1\n      0x0100\n      exp\n      swap1\n      div\n      0xffffffffffffffffffffffffffffffffffffffff\n      and\n        /* \"contracts/GHBToken.sol\":3340:3346  amount */\n      dup5\n        /* \"contracts/GHBToken.sol\":1477:1484  allowed */\n      0x03\n        /* \"contracts/GHBToken.sol\":1477:1493  allowed[account] */\n      0x00\n        /* \"contracts/GHBToken.sol\":1485:1492  account */\n      dup4\n        /* \"contracts/GHBToken.sol\":1477:1493  allowed[account] */\n      0xffffffffffffffffffffffffffffffffffffffff\n      and\n      0xffffffffffffffffffffffffffffffffffffffff\n      and\n      dup2\n      mstore\n      0x20\n      add\n      swap1\n      dup2\n      mstore\n      0x20\n      add\n      0x00\n      keccak256\n        /* \"contracts/GHBToken.sol\":1477:1505  allowed[account][msg.sender] */\n      0x00\n        /* \"contracts/GHBToken.sol\":1494:1504  msg.sender */\n      caller\n        /* \"contracts/GHBToken.sol\":1477:1505  allowed[account][msg.sender] */\n      0xffffffffffffffffffffffffffffffffffffffff\n      and\n      0xffffffffffffffffffffffffffffffffffffffff\n      and\n      dup2\n      mstore\n      0x20\n      add\n      swap1\n      dup2\n      mstore\n      0x20\n      add\n      0x00\n      keccak256\n      sload\n        /* \"contracts/GHBToken.sol\":1467:1473  amount */\n      dup2\n        /* \"contracts/GHBToken.sol\":1467:1505  amount <= allowed[account][msg.sender] */\n      gt\n      iszero\n        /* \"contracts/GHBToken.sol\":1459:1555  require(amount <= allowed[account][msg.sender], 'ERRO: Account does not have enough allowance!') */\n      tag_95\n      jumpi\n      mload(0x40)\n      0x08c379a000000000000000000000000000000000000000000000000000000000\n      dup2\n      mstore\n      0x04\n      add\n      tag_96\n      swap1\n      tag_97\n      jump\t// in\n    tag_96:\n      mload(0x40)\n      dup1\n      swap2\n      sub\n      swap1\n      revert\n    tag_95:\n        /* \"contracts/GHBToken.sol\":3464:3470  amount */\n      dup6\n        /* \"contracts/GHBToken.sol\":3444:3452  balances */\n      0x02\n        /* \"contracts/GHBToken.sol\":3444:3460  balances[origin] */\n      0x00\n        /* \"contracts/GHBToken.sol\":3453:3459  origin */\n      dup10\n        /* \"contracts/GHBToken.sol\":3444:3460  balances[origin] */\n      0xffffffffffffffffffffffffffffffffffffffff\n      and\n      0xffffffffffffffffffffffffffffffffffffffff\n      and\n      dup2\n      mstore\n      0x20\n      add\n      swap1\n      dup2\n      mstore\n      0x20\n      add\n      0x00\n      keccak256\n      0x00\n        /* \"contracts/GHBToken.sol\":3444:3470  balances[origin] -= amount */\n      dup3\n      dup3\n      sload\n      tag_99\n      swap2\n      swap1\n      tag_100\n      jump\t// in\n    tag_99:\n      swap3\n      pop\n      pop\n      dup2\n      swap1\n      sstore\n      pop\n        /* \"contracts/GHBToken.sol\":3511:3517  amount */\n      dup6\n        /* \"contracts/GHBToken.sol\":3480:3487  allowed */\n      0x03\n        /* \"contracts/GHBToken.sol\":3480:3495  allowed[origin] */\n      0x00\n        /* \"contracts/GHBToken.sol\":3488:3494  origin */\n      dup10\n        /* \"contracts/GHBToken.sol\":3480:3495  allowed[origin] */\n      0xffffffffffffffffffffffffffffffffffffffff\n      and\n      0xffffffffffffffffffffffffffffffffffffffff\n      and\n      dup2\n      mstore\n      0x20\n      add\n      swap1\n      dup2\n      mstore\n      0x20\n      add\n      0x00\n      keccak256\n        /* \"contracts/GHBToken.sol\":3480:3507  allowed[origin][msg.sender] */\n      0x00\n        /* \"contracts/GHBToken.sol\":3496:3506  msg.sender */\n      caller\n        /* \"contracts/GHBToken.sol\":3480:3507  allowed[origin][msg.sender] */\n      0xffffffffffffffffffffffffffffffffffffffff\n      and\n      0xffffffffffffffffffffffffffffffffffffffff\n      and\n      dup2\n      mstore\n      0x20\n      add\n      swap1\n      dup2\n      mstore\n      0x20\n      add\n      0x00\n      keccak256\n      0x00\n        /* \"contracts/GHBToken.sol\":3480:3517  allowed[origin][msg.sender] -= amount */\n      dup3\n      dup3\n      sload\n      tag_101\n      swap2\n      swap1\n      tag_100\n      jump\t// in\n    tag_101:\n      swap3\n      pop\n      pop\n      dup2\n      swap1\n      sstore\n      pop\n        /* \"contracts/GHBToken.sol\":3551:3557  amount */\n      dup6\n        /* \"contracts/GHBToken.sol\":3527:3535  balances */\n      0x02\n        /* \"contracts/GHBToken.sol\":3527:3547  balances[msg.sender] */\n      0x00\n        /* \"contracts/GHBToken.sol\":3536:3546  msg.sender */\n      caller\n        /* \"contracts/GHBToken.sol\":3527:3547  balances[msg.sender] */\n      0xffffffffffffffffffffffffffffffffffffffff\n      and\n      0xffffffffffffffffffffffffffffffffffffffff\n      and\n      dup2\n      mstore\n      0x20\n      add\n      swap1\n      dup2\n      mstore\n      0x20\n      add\n      0x00\n      keccak256\n      0x00\n        /* \"contracts/GHBToken.sol\":3527:3557  balances[msg.sender] += amount */\n      dup3\n      dup3\n      sload\n      tag_102\n      swap2\n      swap1\n      tag_103\n      jump\t// in\n    tag_102:\n      swap3\n      pop\n      pop\n      dup2\n      swap1\n      sstore\n      pop\n        /* \"contracts/GHBToken.sol\":3627:3637  msg.sender */\n      caller\n        /* \"contracts/GHBToken.sol\":3610:3646  Transfer(origin, msg.sender, amount) */\n      0xffffffffffffffffffffffffffffffffffffffff\n      and\n        /* \"contracts/GHBToken.sol\":3619:3625  origin */\n      dup8\n        /* \"contracts/GHBToken.sol\":3610:3646  Transfer(origin, msg.sender, amount) */\n      0xffffffffffffffffffffffffffffffffffffffff\n      and\n      0xddf252ad1be2c89b69c2b068fc378daa952ba7f163c4a11628f55a4df523b3ef\n        /* \"contracts/GHBToken.sol\":3639:3645  amount */\n      dup9\n        /* \"contracts/GHBToken.sol\":3610:3646  Transfer(origin, msg.sender, amount) */\n      mload(0x40)\n      tag_104\n      swap2\n      swap1\n      tag_40\n      jump\t// in\n    tag_104:\n      mload(0x40)\n      dup1\n      swap2\n      sub\n      swap1\n      log3\n        /* \"contracts/GHBToken.sol\":3663:3667  true */\n      0x01\n        /* \"contracts/GHBToken.sol\":3656:3667  return true */\n      swap5\n      pop\n        /* \"contracts/GHBToken.sol\":1305:1306  _ */\n      pop\n      pop\n        /* \"contracts/GHBToken.sol\":3217:3675  function transferFrom(address origin, uint256 amount) public override enoughBalance(origin, amount) enoughAllowance(owner, amount) returns(bool){... */\n      pop\n      pop\n      swap3\n      swap2\n      pop\n      pop\n      jump\t// out\n        /* \"contracts/GHBToken.sol\":274:314  string public constant name = \"GHBToken\" */\n    tag_30:\n      mload(0x40)\n      dup1\n      0x40\n      add\n      0x40\n      mstore\n      dup1\n      0x08\n      dup2\n      mstore\n      0x20\n      add\n      0x474842546f6b656e000000000000000000000000000000000000000000000000\n      dup2\n      mstore\n      pop\n      dup2\n      jump\t// out\n        /* \"contracts/GHBToken.sol\":2433:2751  function approve(address delegate, uint256 amount) public override enoughBalance(msg.sender, amount) returns(bool){... */\n    tag_35:\n        /* \"contracts/GHBToken.sol\":2542:2546  bool */\n      0x00\n        /* \"contracts/GHBToken.sol\":2514:2524  msg.sender */\n      caller\n        /* \"contracts/GHBToken.sol\":2526:2532  amount */\n      dup3\n        /* \"contracts/GHBToken.sol\":1230:1238  balances */\n      0x02\n        /* \"contracts/GHBToken.sol\":1230:1247  balances[account] */\n      0x00\n        /* \"contracts/GHBToken.sol\":1239:1246  account */\n      dup4\n        /* \"contracts/GHBToken.sol\":1230:1247  balances[account] */\n      0xffffffffffffffffffffffffffffffffffffffff\n      and\n      0xffffffffffffffffffffffffffffffffffffffff\n      and\n      dup2\n      mstore\n      0x20\n      add\n      swap1\n      dup2\n      mstore\n      0x20\n      add\n      0x00\n      keccak256\n      sload\n        /* \"contracts/GHBToken.sol\":1220:1226  amount */\n      dup2\n        /* \"contracts/GHBToken.sol\":1220:1247  amount <= balances[account] */\n      gt\n      iszero\n        /* \"contracts/GHBToken.sol\":1212:1295  require(amount <= balances[account], 'ERRO: Account does not have enough balance!') */\n      tag_106\n      jumpi\n      mload(0x40)\n      0x08c379a000000000000000000000000000000000000000000000000000000000\n      dup2\n      mstore\n      0x04\n      add\n      tag_107\n      swap1\n      tag_93\n      jump\t// in\n    tag_107:\n      mload(0x40)\n      dup1\n      swap2\n      sub\n      swap1\n      revert\n    tag_106:\n        /* \"contracts/GHBToken.sol\":2663:2669  amount */\n      dup4\n        /* \"contracts/GHBToken.sol\":2631:2638  allowed */\n      0x03\n        /* \"contracts/GHBToken.sol\":2631:2650  allowed[msg.sender] */\n      0x00\n        /* \"contracts/GHBToken.sol\":2639:2649  msg.sender */\n      caller\n        /* \"contracts/GHBToken.sol\":2631:2650  allowed[msg.sender] */\n      0xffffffffffffffffffffffffffffffffffffffff\n      and\n      0xffffffffffffffffffffffffffffffffffffffff\n      and\n      dup2\n      mstore\n      0x20\n      add\n      swap1\n      dup2\n      mstore\n      0x20\n      add\n      0x00\n      keccak256\n        /* \"contracts/GHBToken.sol\":2631:2660  allowed[msg.sender][delegate] */\n      0x00\n        /* \"contracts/GHBToken.sol\":2651:2659  delegate */\n      dup8\n        /* \"contracts/GHBToken.sol\":2631:2660  allowed[msg.sender][delegate] */\n      0xffffffffffffffffffffffffffffffffffffffff\n      and\n      0xffffffffffffffffffffffffffffffffffffffff\n      and\n      dup2\n      mstore\n      0x20\n      add\n      swap1\n      dup2\n      mstore\n      0x20\n      add\n      0x00\n      keccak256\n        /* \"contracts/GHBToken.sol\":2631:2669  allowed[msg.sender][delegate] = amount */\n      dup2\n      swap1\n      sstore\n      pop\n        /* \"contracts/GHBToken.sol\":2705:2713  delegate */\n      dup5\n        /* \"contracts/GHBToken.sol\":2684:2722  Approval(msg.sender, delegate, amount) */\n      0xffffffffffffffffffffffffffffffffffffffff\n      and\n        /* \"contracts/GHBToken.sol\":2693:2703  msg.sender */\n      caller\n        /* \"contracts/GHBToken.sol\":2684:2722  Approval(msg.sender, delegate, amount) */\n      0xffffffffffffffffffffffffffffffffffffffff\n      and\n      0x8c5be1e5ebec7d5bd14f71427d1e84f3dd0314c0f7b2291e5b200ac8c7c3b925\n        /* \"contracts/GHBToken.sol\":2715:2721  amount */\n      dup7\n        /* \"contracts/GHBToken.sol\":2684:2722  Approval(msg.sender, delegate, amount) */\n      mload(0x40)\n      tag_109\n      swap2\n      swap1\n      tag_40\n      jump\t// in\n    tag_109:\n      mload(0x40)\n      dup1\n      swap2\n      sub\n      swap1\n      log3\n        /* \"contracts/GHBToken.sol\":2739:2743  true */\n      0x01\n        /* \"contracts/GHBToken.sol\":2732:2743  return true */\n      swap3\n      pop\n        /* \"contracts/GHBToken.sol\":2433:2751  function approve(address delegate, uint256 amount) public override enoughBalance(msg.sender, amount) returns(bool){... */\n      pop\n      pop\n      swap3\n      swap2\n      pop\n      pop\n      jump\t// out\n        /* \"contracts/GHBToken.sol\":1647:1744  function totalSupply() public override view returns( uint256){... */\n    tag_38:\n        /* \"contracts/GHBToken.sol\":1700:1707  uint256 */\n      0x00\n        /* \"contracts/GHBToken.sol\":1725:1737  totalSupply_ */\n      dup1\n      sload\n        /* \"contracts/GHBToken.sol\":1718:1737  return totalSupply_ */\n      swap1\n      pop\n        /* \"contracts/GHBToken.sol\":1647:1744  function totalSupply() public override view returns( uint256){... */\n      swap1\n      jump\t// out\n        /* \"contracts/GHBToken.sol\":494:537  mapping(address => uint256) public balances */\n    tag_44:\n      mstore(0x20, 0x02)\n      dup1\n      0x00\n      mstore\n      keccak256(0x00, 0x40)\n      0x00\n      swap2\n      pop\n      swap1\n      pop\n      sload\n      dup2\n      jump\t// out\n        /* \"contracts/GHBToken.sol\":365:402  uint256 public constant decimals = 18 */\n    tag_47:\n        /* \"contracts/GHBToken.sol\":400:402  18 */\n      0x12\n        /* \"contracts/GHBToken.sol\":365:402  uint256 public constant decimals = 18 */\n      dup2\n      jump\t// out\n        /* \"contracts/GHBToken.sol\":408:461  uint256 public totalSupply_= 100000000000000000000000 */\n    tag_50:\n      sload(0x00)\n      dup2\n      jump\t// out\n        /* \"contracts/GHBToken.sol\":3789:4166  function increaseAllowance(address spender, uint256 addedValue) public isValidAddress(spender) returns (bool) {... */\n    tag_54:\n        /* \"contracts/GHBToken.sol\":3893:3897  bool */\n      0x00\n        /* \"contracts/GHBToken.sol\":3875:3882  spender */\n      dup3\n        /* \"contracts/GHBToken.sol\":1012:1013  0 */\n      0x00\n        /* \"contracts/GHBToken.sol\":993:1014  account != address(0) */\n      0xffffffffffffffffffffffffffffffffffffffff\n      and\n        /* \"contracts/GHBToken.sol\":993:1000  account */\n      dup2\n        /* \"contracts/GHBToken.sol\":993:1014  account != address(0) */\n      0xffffffffffffffffffffffffffffffffffffffff\n      and\n      sub\n        /* \"contracts/GHBToken.sol\":985:1041  require(account != address(0), \"ERRO: Invalid address!\") */\n      tag_112\n      jumpi\n      mload(0x40)\n      0x08c379a000000000000000000000000000000000000000000000000000000000\n      dup2\n      mstore\n      0x04\n      add\n      tag_113\n      swap1\n      tag_114\n      jump\t// in\n    tag_113:\n      mload(0x40)\n      dup1\n      swap2\n      sub\n      swap1\n      revert\n    tag_112:\n        /* \"contracts/GHBToken.sol\":4053:4063  addedValue */\n      dup3\n        /* \"contracts/GHBToken.sol\":4021:4028  allowed */\n      0x03\n        /* \"contracts/GHBToken.sol\":4021:4040  allowed[msg.sender] */\n      0x00\n        /* \"contracts/GHBToken.sol\":4029:4039  msg.sender */\n      caller\n        /* \"contracts/GHBToken.sol\":4021:4040  allowed[msg.sender] */\n      0xffffffffffffffffffffffffffffffffffffffff\n      and\n      0xffffffffffffffffffffffffffffffffffffffff\n      and\n      dup2\n      mstore\n      0x20\n      add\n      swap1\n      dup2\n      mstore\n      0x20\n      add\n      0x00\n      keccak256\n        /* \"contracts/GHBToken.sol\":4021:4049  allowed[msg.sender][spender] */\n      0x00\n        /* \"contracts/GHBToken.sol\":4041:4048  spender */\n      dup7\n        /* \"contracts/GHBToken.sol\":4021:4049  allowed[msg.sender][spender] */\n      0xffffffffffffffffffffffffffffffffffffffff\n      and\n      0xffffffffffffffffffffffffffffffffffffffff\n      and\n      dup2\n      mstore\n      0x20\n      add\n      swap1\n      dup2\n      mstore\n      0x20\n      add\n      0x00\n      keccak256\n      0x00\n        /* \"contracts/GHBToken.sol\":4021:4063  allowed[msg.sender][spender] += addedValue */\n      dup3\n      dup3\n      sload\n      tag_116\n      swap2\n      swap1\n      tag_103\n      jump\t// in\n    tag_116:\n      swap3\n      pop\n      pop\n      dup2\n      swap1\n      sstore\n      pop\n        /* \"contracts/GHBToken.sol\":4099:4106  spender */\n      dup4\n        /* \"contracts/GHBToken.sol\":4078:4137  Approval(msg.sender, spender, allowed[msg.sender][spender]) */\n      0xffffffffffffffffffffffffffffffffffffffff\n      and\n        /* \"contracts/GHBToken.sol\":4087:4097  msg.sender */\n      caller\n        /* \"contracts/GHBToken.sol\":4078:4137  Approval(msg.sender, spender, allowed[msg.sender][spender]) */\n      0xffffffffffffffffffffffffffffffffffffffff\n      and\n      0x8c5be1e5ebec7d5bd14f71427d1e84f3dd0314c0f7b2291e5b200ac8c7c3b925\n        /* \"contracts/GHBToken.sol\":4108:4115  allowed */\n      0x03\n        /* \"contracts/GHBToken.sol\":4108:4127  allowed[msg.sender] */\n      0x00\n        /* \"contracts/GHBToken.sol\":4116:4126  msg.sender */\n      caller\n        /* \"contracts/GHBToken.sol\":4108:4127  allowed[msg.sender] */\n      0xffffffffffffffffffffffffffffffffffffffff\n      and\n      0xffffffffffffffffffffffffffffffffffffffff\n      and\n      dup2\n      mstore\n      0x20\n      add\n      swap1\n      dup2\n      mstore\n      0x20\n      add\n      0x00\n      keccak256\n        /* \"contracts/GHBToken.sol\":4108:4136  allowed[msg.sender][spender] */\n      0x00\n        /* \"contracts/GHBToken.sol\":4128:4135  spender */\n      dup9\n        /* \"contracts/GHBToken.sol\":4108:4136  allowed[msg.sender][spender] */\n      0xffffffffffffffffffffffffffffffffffffffff\n      and\n      0xffffffffffffffffffffffffffffffffffffffff\n      and\n      dup2\n      mstore\n      0x20\n      add\n      swap1\n      dup2\n      mstore\n      0x20\n      add\n      0x00\n      keccak256\n      sload\n        /* \"contracts/GHBToken.sol\":4078:4137  Approval(msg.sender, spender, allowed[msg.sender][spender]) */\n      mload(0x40)\n      tag_117\n      swap2\n      swap1\n      tag_40\n      jump\t// in\n    tag_117:\n      mload(0x40)\n      dup1\n      swap2\n      sub\n      swap1\n      log3\n        /* \"contracts/GHBToken.sol\":4154:4158  true */\n      0x01\n        /* \"contracts/GHBToken.sol\":4147:4158  return true */\n      swap2\n      pop\n        /* \"contracts/GHBToken.sol\":3789:4166  function increaseAllowance(address spender, uint256 addedValue) public isValidAddress(spender) returns (bool) {... */\n      pop\n      swap3\n      swap2\n      pop\n      pop\n      jump\t// out\n        /* \"contracts/GHBToken.sol\":4751:5114  function mint(address account, uint256 amount) public onlyOwner() isValidAddress(account) {... */\n    tag_58:\n        /* \"contracts/GHBToken.sol\":862:867  owner */\n      0x01\n      0x00\n      swap1\n      sload\n      swap1\n      0x0100\n      exp\n      swap1\n      div\n      0xffffffffffffffffffffffffffffffffffffffff\n      and\n        /* \"contracts/GHBToken.sol\":848:867  msg.sender == owner */\n      0xffffffffffffffffffffffffffffffffffffffff\n      and\n        /* \"contracts/GHBToken.sol\":848:858  msg.sender */\n      caller\n        /* \"contracts/GHBToken.sol\":848:867  msg.sender == owner */\n      0xffffffffffffffffffffffffffffffffffffffff\n      and\n      eq\n        /* \"contracts/GHBToken.sol\":840:868  require(msg.sender == owner) */\n      tag_119\n      jumpi\n      0x00\n      dup1\n      revert\n    tag_119:\n        /* \"contracts/GHBToken.sol\":4832:4839  account */\n      dup2\n        /* \"contracts/GHBToken.sol\":1012:1013  0 */\n      0x00\n        /* \"contracts/GHBToken.sol\":993:1014  account != address(0) */\n      0xffffffffffffffffffffffffffffffffffffffff\n      and\n        /* \"contracts/GHBToken.sol\":993:1000  account */\n      dup2\n        /* \"contracts/GHBToken.sol\":993:1014  account != address(0) */\n      0xffffffffffffffffffffffffffffffffffffffff\n      and\n      sub\n        /* \"contracts/GHBToken.sol\":985:1041  require(account != address(0), \"ERRO: Invalid address!\") */\n      tag_121\n      jumpi\n      mload(0x40)\n      0x08c379a000000000000000000000000000000000000000000000000000000000\n      dup2\n      mstore\n      0x04\n      add\n      tag_122\n      swap1\n      tag_114\n      jump\t// in\n    tag_122:\n      mload(0x40)\n      dup1\n      swap2\n      sub\n      swap1\n      revert\n    tag_121:\n        /* \"contracts/GHBToken.sol\":4946:4952  amount */\n      dup2\n        /* \"contracts/GHBToken.sol\":4930:4942  totalSupply_ */\n      0x00\n      dup1\n        /* \"contracts/GHBToken.sol\":4930:4952  totalSupply_ += amount */\n      dup3\n      dup3\n      sload\n      tag_124\n      swap2\n      swap1\n      tag_103\n      jump\t// in\n    tag_124:\n      swap3\n      pop\n      pop\n      dup2\n      swap1\n      sstore\n      pop\n        /* \"contracts/GHBToken.sol\":4983:4989  amount */\n      dup2\n        /* \"contracts/GHBToken.sol\":4962:4970  balances */\n      0x02\n        /* \"contracts/GHBToken.sol\":4962:4979  balances[account] */\n      0x00\n        /* \"contracts/GHBToken.sol\":4971:4978  account */\n      dup6\n        /* \"contracts/GHBToken.sol\":4962:4979  balances[account] */\n      0xffffffffffffffffffffffffffffffffffffffff\n      and\n      0xffffffffffffffffffffffffffffffffffffffff\n      and\n      dup2\n      mstore\n      0x20\n      add\n      swap1\n      dup2\n      mstore\n      0x20\n      add\n      0x00\n      keccak256\n      0x00\n        /* \"contracts/GHBToken.sol\":4962:4989  balances[account] += amount */\n      dup3\n      dup3\n      sload\n      tag_125\n      swap2\n      swap1\n      tag_103\n      jump\t// in\n    tag_125:\n      swap3\n      pop\n      pop\n      dup2\n      swap1\n      sstore\n      pop\n        /* \"contracts/GHBToken.sol\":5090:5097  account */\n      dup3\n        /* \"contracts/GHBToken.sol\":5069:5106  Transfer(address(0), account, amount) */\n      0xffffffffffffffffffffffffffffffffffffffff\n      and\n        /* \"contracts/GHBToken.sol\":5086:5087  0 */\n      0x00\n        /* \"contracts/GHBToken.sol\":5069:5106  Transfer(address(0), account, amount) */\n      0xffffffffffffffffffffffffffffffffffffffff\n      and\n      0xddf252ad1be2c89b69c2b068fc378daa952ba7f163c4a11628f55a4df523b3ef\n        /* \"contracts/GHBToken.sol\":5099:5105  amount */\n      dup5\n        /* \"contracts/GHBToken.sol\":5069:5106  Transfer(address(0), account, amount) */\n      mload(0x40)\n      tag_126\n      swap2\n      swap1\n      tag_40\n      jump\t// in\n    tag_126:\n      mload(0x40)\n      dup1\n      swap2\n      sub\n      swap1\n      log3\n        /* \"contracts/GHBToken.sol\":878:879  _ */\n      pop\n        /* \"contracts/GHBToken.sol\":4751:5114  function mint(address account, uint256 amount) public onlyOwner() isValidAddress(account) {... */\n      pop\n      pop\n      jump\t// out\n        /* \"contracts/GHBToken.sol\":543:605  mapping(address => mapping(address => uint256)) public allowed */\n    tag_62:\n      mstore(0x20, 0x03)\n      dup2\n      0x00\n      mstore\n      mstore(0x20, keccak256(0x00, 0x40))\n      dup1\n      0x00\n      mstore\n      keccak256(0x00, 0x40)\n      0x00\n      swap2\n      pop\n      swap2\n      pop\n      pop\n      sload\n      dup2\n      jump\t// out\n        /* \"contracts/GHBToken.sol\":1834:1955  function balanceOf(address tokenOwner) public override view returns (uint256){... */\n    tag_66:\n        /* \"contracts/GHBToken.sol\":1903:1910  uint256 */\n      0x00\n        /* \"contracts/GHBToken.sol\":1928:1936  balances */\n      0x02\n        /* \"contracts/GHBToken.sol\":1928:1948  balances[tokenOwner] */\n      0x00\n        /* \"contracts/GHBToken.sol\":1937:1947  tokenOwner */\n      dup4\n        /* \"contracts/GHBToken.sol\":1928:1948  balances[tokenOwner] */\n      0xffffffffffffffffffffffffffffffffffffffff\n      and\n      0xffffffffffffffffffffffffffffffffffffffff\n      and\n      dup2\n      mstore\n      0x20\n      add\n      swap1\n      dup2\n      mstore\n      0x20\n      add\n      0x00\n      keccak256\n      sload\n        /* \"contracts/GHBToken.sol\":1921:1948  return balances[tokenOwner] */\n      swap1\n      pop\n        /* \"contracts/GHBToken.sol\":1834:1955  function balanceOf(address tokenOwner) public override view returns (uint256){... */\n      swap2\n      swap1\n      pop\n      jump\t// out\n        /* \"contracts/GHBToken.sol\":467:487  address public owner */\n    tag_69:\n      0x01\n      0x00\n      swap1\n      sload\n      swap1\n      0x0100\n      exp\n      swap1\n      div\n      0xffffffffffffffffffffffffffffffffffffffff\n      and\n      dup2\n      jump\t// out\n        /* \"contracts/GHBToken.sol\":321:359  string public constant symbol = \"GHBT\" */\n    tag_73:\n      mload(0x40)\n      dup1\n      0x40\n      add\n      0x40\n      mstore\n      dup1\n      0x04\n      dup2\n      mstore\n      0x20\n      add\n      0x4748425400000000000000000000000000000000000000000000000000000000\n      dup2\n      mstore\n      pop\n      dup2\n      jump\t// out\n        /* \"contracts/GHBToken.sol\":5181:5583  function burn(address account, uint256 amount) public onlyOwner() isValidAddress(account) enoughBalance(account, amount) {... */\n    tag_77:\n        /* \"contracts/GHBToken.sol\":862:867  owner */\n      0x01\n      0x00\n      swap1\n      sload\n      swap1\n      0x0100\n      exp\n      swap1\n      div\n      0xffffffffffffffffffffffffffffffffffffffff\n      and\n        /* \"contracts/GHBToken.sol\":848:867  msg.sender == owner */\n      0xffffffffffffffffffffffffffffffffffffffff\n      and\n        /* \"contracts/GHBToken.sol\":848:858  msg.sender */\n      caller\n        /* \"contracts/GHBToken.sol\":848:867  msg.sender == owner */\n      0xffffffffffffffffffffffffffffffffffffffff\n      and\n      eq\n        /* \"contracts/GHBToken.sol\":840:868  require(msg.sender == owner) */\n      tag_129\n      jumpi\n      0x00\n      dup1\n      revert\n    tag_129:\n        /* \"contracts/GHBToken.sol\":5262:5269  account */\n      dup2\n        /* \"contracts/GHBToken.sol\":1012:1013  0 */\n      0x00\n        /* \"contracts/GHBToken.sol\":993:1014  account != address(0) */\n      0xffffffffffffffffffffffffffffffffffffffff\n      and\n        /* \"contracts/GHBToken.sol\":993:1000  account */\n      dup2\n        /* \"contracts/GHBToken.sol\":993:1014  account != address(0) */\n      0xffffffffffffffffffffffffffffffffffffffff\n      and\n      sub\n        /* \"contracts/GHBToken.sol\":985:1041  require(account != address(0), \"ERRO: Invalid address!\") */\n      tag_131\n      jumpi\n      mload(0x40)\n      0x08c379a000000000000000000000000000000000000000000000000000000000\n      dup2\n      mstore\n      0x04\n      add\n      tag_132\n      swap1\n      tag_114\n      jump\t// in\n    tag_132:\n      mload(0x40)\n      dup1\n      swap2\n      sub\n      swap1\n      revert\n    tag_131:\n        /* \"contracts/GHBToken.sol\":5285:5292  account */\n      dup3\n        /* \"contracts/GHBToken.sol\":5294:5300  amount */\n      dup3\n        /* \"contracts/GHBToken.sol\":1230:1238  balances */\n      0x02\n        /* \"contracts/GHBToken.sol\":1230:1247  balances[account] */\n      0x00\n        /* \"contracts/GHBToken.sol\":1239:1246  account */\n      dup4\n        /* \"contracts/GHBToken.sol\":1230:1247  balances[account] */\n      0xffffffffffffffffffffffffffffffffffffffff\n      and\n      0xffffffffffffffffffffffffffffffffffffffff\n      and\n      dup2\n      mstore\n      0x20\n      add\n      swap1\n      dup2\n      mstore\n      0x20\n      add\n      0x00\n      keccak256\n      sload\n        /* \"contracts/GHBToken.sol\":1220:1226  amount */\n      dup2\n        /* \"contracts/GHBToken.sol\":1220:1247  amount <= balances[account] */\n      gt\n      iszero\n        /* \"contracts/GHBToken.sol\":1212:1295  require(amount <= balances[account], 'ERRO: Account does not have enough balance!') */\n      tag_134\n      jumpi\n      mload(0x40)\n      0x08c379a000000000000000000000000000000000000000000000000000000000\n      dup2\n      mstore\n      0x04\n      add\n      tag_135\n      swap1\n      tag_93\n      jump\t// in\n    tag_135:\n      mload(0x40)\n      dup1\n      swap2\n      sub\n      swap1\n      revert\n    tag_134:\n        /* \"contracts/GHBToken.sol\":5415:5421  amount */\n      dup4\n        /* \"contracts/GHBToken.sol\":5399:5411  totalSupply_ */\n      0x00\n      dup1\n        /* \"contracts/GHBToken.sol\":5399:5421  totalSupply_ -= amount */\n      dup3\n      dup3\n      sload\n      tag_137\n      swap2\n      swap1\n      tag_100\n      jump\t// in\n    tag_137:\n      swap3\n      pop\n      pop\n      dup2\n      swap1\n      sstore\n      pop\n        /* \"contracts/GHBToken.sol\":5452:5458  amount */\n      dup4\n        /* \"contracts/GHBToken.sol\":5431:5439  balances */\n      0x02\n        /* \"contracts/GHBToken.sol\":5431:5448  balances[account] */\n      0x00\n        /* \"contracts/GHBToken.sol\":5440:5447  account */\n      dup8\n        /* \"contracts/GHBToken.sol\":5431:5448  balances[account] */\n      0xffffffffffffffffffffffffffffffffffffffff\n      and\n      0xffffffffffffffffffffffffffffffffffffffff\n      and\n      dup2\n      mstore\n      0x20\n      add\n      swap1\n      dup2\n      mstore\n      0x20\n      add\n      0x00\n      keccak256\n      0x00\n        /* \"contracts/GHBToken.sol\":5431:5458  balances[account] -= amount */\n      dup3\n      dup3\n      sload\n      tag_138\n      swap2\n      swap1\n      tag_100\n      jump\t// in\n    tag_138:\n      swap3\n      pop\n      pop\n      dup2\n      swap1\n      sstore\n      pop\n        /* \"contracts/GHBToken.sol\":5564:5565  0 */\n      0x00\n        /* \"contracts/GHBToken.sol\":5538:5575  Transfer(account, address(0), amount) */\n      0xffffffffffffffffffffffffffffffffffffffff\n      and\n        /* \"contracts/GHBToken.sol\":5547:5554  account */\n      dup6\n        /* \"contracts/GHBToken.sol\":5538:5575  Transfer(account, address(0), amount) */\n      0xffffffffffffffffffffffffffffffffffffffff\n      and\n      0xddf252ad1be2c89b69c2b068fc378daa952ba7f163c4a11628f55a4df523b3ef\n        /* \"contracts/GHBToken.sol\":5568:5574  amount */\n      dup7\n        /* \"contracts/GHBToken.sol\":5538:5575  Transfer(account, address(0), amount) */\n      mload(0x40)\n      tag_139\n      swap2\n      swap1\n      tag_40\n      jump\t// in\n    tag_139:\n      mload(0x40)\n      dup1\n      swap2\n      sub\n      swap1\n      log3\n        /* \"contracts/GHBToken.sol\":1051:1052  _ */\n      pop\n      pop\n        /* \"contracts/GHBToken.sol\":878:879  _ */\n      pop\n        /* \"contracts/GHBToken.sol\":5181:5583  function burn(address account, uint256 amount) public onlyOwner() isValidAddress(account) enoughBalance(account, amount) {... */\n      pop\n      pop\n      jump\t// out\n        /* \"contracts/GHBToken.sol\":4284:4673  function decreaseAllowance(address spender, uint256 subtractedValue) public isValidAddress(spender) returns (bool) {... */\n    tag_80:\n        /* \"contracts/GHBToken.sol\":4393:4397  bool */\n      0x00\n        /* \"contracts/GHBToken.sol\":4375:4382  spender */\n      dup3\n        /* \"contracts/GHBToken.sol\":1012:1013  0 */\n      0x00\n        /* \"contracts/GHBToken.sol\":993:1014  account != address(0) */\n      0xffffffffffffffffffffffffffffffffffffffff\n      and\n        /* \"contracts/GHBToken.sol\":993:1000  account */\n      dup2\n        /* \"contracts/GHBToken.sol\":993:1014  account != address(0) */\n      0xffffffffffffffffffffffffffffffffffffffff\n      and\n      sub\n        /* \"contracts/GHBToken.sol\":985:1041  require(account != address(0), \"ERRO: Invalid address!\") */\n      tag_141\n      jumpi\n      mload(0x40)\n      0x08c379a000000000000000000000000000000000000000000000000000000000\n      dup2\n      mstore\n      0x04\n      add\n      tag_142\n      swap1\n      tag_114\n      jump\t// in\n    tag_142:\n      mload(0x40)\n      dup1\n      swap2\n      sub\n      swap1\n      revert\n    tag_141:\n        /* \"contracts/GHBToken.sol\":4556:4571  subtractedValue */\n      dup3\n        /* \"contracts/GHBToken.sol\":4524:4531  allowed */\n      0x03\n        /* \"contracts/GHBToken.sol\":4524:4543  allowed[msg.sender] */\n      0x00\n        /* \"contracts/GHBToken.sol\":4532:4542  msg.sender */\n      caller\n        /* \"contracts/GHBToken.sol\":4524:4543  allowed[msg.sender] */\n      0xffffffffffffffffffffffffffffffffffffffff\n      and\n      0xffffffffffffffffffffffffffffffffffffffff\n      and\n      dup2\n      mstore\n      0x20\n      add\n      swap1\n      dup2\n      mstore\n      0x20\n      add\n      0x00\n      keccak256\n        /* \"contracts/GHBToken.sol\":4524:4552  allowed[msg.sender][spender] */\n      0x00\n        /* \"contracts/GHBToken.sol\":4544:4551  spender */\n      dup7\n        /* \"contracts/GHBToken.sol\":4524:4552  allowed[msg.sender][spender] */\n      0xffffffffffffffffffffffffffffffffffffffff\n      and\n      0xffffffffffffffffffffffffffffffffffffffff\n      and\n      dup2\n      mstore\n      0x20\n      add\n      swap1\n      dup2\n      mstore\n      0x20\n      add\n      0x00\n      keccak256\n      0x00\n        /* \"contracts/GHBToken.sol\":4524:4571  allowed[msg.sender][spender] -= subtractedValue */\n      dup3\n      dup3\n      sload\n      tag_144\n      swap2\n      swap1\n      tag_100\n      jump\t// in\n    tag_144:\n      swap3\n      pop\n      pop\n      dup2\n      swap1\n      sstore\n      pop\n        /* \"contracts/GHBToken.sol\":4607:4614  spender */\n      dup4\n        /* \"contracts/GHBToken.sol\":4586:4645  Approval(msg.sender, spender, allowed[msg.sender][spender]) */\n      0xffffffffffffffffffffffffffffffffffffffff\n      and\n        /* \"contracts/GHBToken.sol\":4595:4605  msg.sender */\n      caller\n        /* \"contracts/GHBToken.sol\":4586:4645  Approval(msg.sender, spender, allowed[msg.sender][spender]) */\n      0xffffffffffffffffffffffffffffffffffffffff\n      and\n      0x8c5be1e5ebec7d5bd14f71427d1e84f3dd0314c0f7b2291e5b200ac8c7c3b925\n        /* \"contracts/GHBToken.sol\":4616:4623  allowed */\n      0x03\n        /* \"contracts/GHBToken.sol\":4616:4635  allowed[msg.sender] */\n      0x00\n        /* \"contracts/GHBToken.sol\":4624:4634  msg.sender */\n      caller\n        /* \"contracts/GHBToken.sol\":4616:4635  allowed[msg.sender] */\n      0xffffffffffffffffffffffffffffffffffffffff\n      and\n      0xffffffffffffffffffffffffffffffffffffffff\n      and\n      dup2\n      mstore\n      0x20\n      add\n      swap1\n      dup2\n      mstore\n      0x20\n      add\n      0x00\n      keccak256\n        /* \"contracts/GHBToken.sol\":4616:4644  allowed[msg.sender][spender] */\n      0x00\n        /* \"contracts/GHBToken.sol\":4636:4643  spender */\n      dup9\n        /* \"contracts/GHBToken.sol\":4616:4644  allowed[msg.sender][spender] */\n      0xffffffffffffffffffffffffffffffffffffffff\n      and\n      0xffffffffffffffffffffffffffffffffffffffff\n      and\n      dup2\n      mstore\n      0x20\n      add\n      swap1\n      dup2\n      mstore\n      0x20\n      add\n      0x00\n      keccak256\n      sload\n        /* \"contracts/GHBToken.sol\":4586:4645  Approval(msg.sender, spender, allowed[msg.sender][spender]) */\n      mload(0x40)\n      tag_145\n      swap2\n      swap1\n      tag_40\n      jump\t// in\n    tag_145:\n      mload(0x40)\n      dup1\n      swap2\n      sub\n      swap1\n      log3\n        /* \"contracts/GHBToken.sol\":4662:4666  true */\n      0x01\n        /* \"contracts/GHBToken.sol\":4655:4666  return true */\n      swap2\n      pop\n        /* \"contracts/GHBToken.sol\":4284:4673  function decreaseAllowance(address spender, uint256 subtractedValue) public isValidAddress(spender) returns (bool) {... */\n      pop\n      swap3\n      swap2\n      pop\n      pop\n      jump\t// out\n        /* \"contracts/GHBToken.sol\":1994:2380  function transfer(address receiver, uint256 amount) public override enoughBalance(msg.sender, amount) returns (bool){... */\n    tag_84:\n        /* \"contracts/GHBToken.sol\":2105:2109  bool */\n      0x00\n        /* \"contracts/GHBToken.sol\":2076:2086  msg.sender */\n      caller\n        /* \"contracts/GHBToken.sol\":2088:2094  amount */\n      dup3\n        /* \"contracts/GHBToken.sol\":1230:1238  balances */\n      0x02\n        /* \"contracts/GHBToken.sol\":1230:1247  balances[account] */\n      0x00\n        /* \"contracts/GHBToken.sol\":1239:1246  account */\n      dup4\n        /* \"contracts/GHBToken.sol\":1230:1247  balances[account] */\n      0xffffffffffffffffffffffffffffffffffffffff\n      and\n      0xffffffffffffffffffffffffffffffffffffffff\n      and\n      dup2\n      mstore\n      0x20\n      add\n      swap1\n      dup2\n      mstore\n      0x20\n      add\n      0x00\n      keccak256\n      sload\n        /* \"contracts/GHBToken.sol\":1220:1226  amount */\n      dup2\n        /* \"contracts/GHBToken.sol\":1220:1247  amount <= balances[account] */\n      gt\n      iszero\n        /* \"contracts/GHBToken.sol\":1212:1295  require(amount <= balances[account], 'ERRO: Account does not have enough balance!') */\n      tag_147\n      jumpi\n      mload(0x40)\n      0x08c379a000000000000000000000000000000000000000000000000000000000\n      dup2\n      mstore\n      0x04\n      add\n      tag_148\n      swap1\n      tag_93\n      jump\t// in\n    tag_148:\n      mload(0x40)\n      dup1\n      swap2\n      sub\n      swap1\n      revert\n    tag_147:\n        /* \"contracts/GHBToken.sol\":2216:2222  amount */\n      dup4\n        /* \"contracts/GHBToken.sol\":2192:2200  balances */\n      0x02\n        /* \"contracts/GHBToken.sol\":2192:2212  balances[msg.sender] */\n      0x00\n        /* \"contracts/GHBToken.sol\":2201:2211  msg.sender */\n      caller\n        /* \"contracts/GHBToken.sol\":2192:2212  balances[msg.sender] */\n      0xffffffffffffffffffffffffffffffffffffffff\n      and\n      0xffffffffffffffffffffffffffffffffffffffff\n      and\n      dup2\n      mstore\n      0x20\n      add\n      swap1\n      dup2\n      mstore\n      0x20\n      add\n      0x00\n      keccak256\n      0x00\n        /* \"contracts/GHBToken.sol\":2192:2222  balances[msg.sender] -= amount */\n      dup3\n      dup3\n      sload\n      tag_150\n      swap2\n      swap1\n      tag_100\n      jump\t// in\n    tag_150:\n      swap3\n      pop\n      pop\n      dup2\n      swap1\n      sstore\n      pop\n        /* \"contracts/GHBToken.sol\":2254:2260  amount */\n      dup4\n        /* \"contracts/GHBToken.sol\":2232:2240  balances */\n      0x02\n        /* \"contracts/GHBToken.sol\":2232:2250  balances[receiver] */\n      0x00\n        /* \"contracts/GHBToken.sol\":2241:2249  receiver */\n      dup8\n        /* \"contracts/GHBToken.sol\":2232:2250  balances[receiver] */\n      0xffffffffffffffffffffffffffffffffffffffff\n      and\n      0xffffffffffffffffffffffffffffffffffffffff\n      and\n      dup2\n      mstore\n      0x20\n      add\n      swap1\n      dup2\n      mstore\n      0x20\n      add\n      0x00\n      keccak256\n      0x00\n        /* \"contracts/GHBToken.sol\":2232:2260  balances[receiver] += amount */\n      dup3\n      dup3\n      sload\n      tag_151\n      swap2\n      swap1\n      tag_103\n      jump\t// in\n    tag_151:\n      swap3\n      pop\n      pop\n      dup2\n      swap1\n      sstore\n      pop\n        /* \"contracts/GHBToken.sol\":2334:2342  receiver */\n      dup5\n        /* \"contracts/GHBToken.sol\":2313:2351  Transfer(msg.sender, receiver, amount) */\n      0xffffffffffffffffffffffffffffffffffffffff\n      and\n        /* \"contracts/GHBToken.sol\":2322:2332  msg.sender */\n      caller\n        /* \"contracts/GHBToken.sol\":2313:2351  Transfer(msg.sender, receiver, amount) */\n      0xffffffffffffffffffffffffffffffffffffffff\n      and\n      0xddf252ad1be2c89b69c2b068fc378daa952ba7f163c4a11628f55a4df523b3ef\n        /* \"contracts/GHBToken.sol\":2344:2350  amount */\n      dup7\n        /* \"contracts/GHBToken.sol\":2313:2351  Transfer(msg.sender, receiver, amount) */\n      mload(0x40)\n      tag_152\n      swap2\n      swap1\n      tag_40\n      jump\t// in\n    tag_152:\n      mload(0x40)\n      dup1\n      swap2\n      sub\n      swap1\n      log3\n        /* \"contracts/GHBToken.sol\":2368:2372  true */\n      0x01\n        /* \"contracts/GHBToken.sol\":2361:2372  return true */\n      swap3\n      pop\n        /* \"contracts/GHBToken.sol\":1994:2380  function transfer(address receiver, uint256 amount) public override enoughBalance(msg.sender, amount) returns (bool){... */\n      pop\n      pop\n      swap3\n      swap2\n      pop\n      pop\n      jump\t// out\n        /* \"contracts/GHBToken.sol\":2887:3026  function allowance(address origin, address delegate) public override view returns(uint256){... */\n    tag_88:\n        /* \"contracts/GHBToken.sol\":2969:2976  uint256 */\n      0x00\n        /* \"contracts/GHBToken.sol\":2994:3001  allowed */\n      0x03\n        /* \"contracts/GHBToken.sol\":2994:3009  allowed[origin] */\n      0x00\n        /* \"contracts/GHBToken.sol\":3002:3008  origin */\n      dup5\n        /* \"contracts/GHBToken.sol\":2994:3009  allowed[origin] */\n      0xffffffffffffffffffffffffffffffffffffffff\n      and\n      0xffffffffffffffffffffffffffffffffffffffff\n      and\n      dup2\n      mstore\n      0x20\n      add\n      swap1\n      dup2\n      mstore\n      0x20\n      add\n      0x00\n      keccak256\n        /* \"contracts/GHBToken.sol\":2994:3019  allowed[origin][delegate] */\n      0x00\n        /* \"contracts/GHBToken.sol\":3010:3018  delegate */\n      dup4\n        /* \"contracts/GHBToken.sol\":2994:3019  allowed[origin][delegate] */\n      0xffffffffffffffffffffffffffffffffffffffff\n      and\n      0xffffffffffffffffffffffffffffffffffffffff\n      and\n      dup2\n      mstore\n      0x20\n      add\n      swap1\n      dup2\n      mstore\n      0x20\n      add\n      0x00\n      keccak256\n      sload\n        /* \"contracts/GHBToken.sol\":2987:3019  return allowed[origin][delegate] */\n      swap1\n      pop\n        /* \"contracts/GHBToken.sol\":2887:3026  function allowance(address origin, address delegate) public override view returns(uint256){... */\n      swap3\n      swap2\n      pop\n      pop\n      jump\t// out\n        /* \"#utility.yul\":88:205   */\n    tag_155:\n        /* \"#utility.yul\":197:198   */\n      0x00\n        /* \"#utility.yul\":194:195   */\n      dup1\n        /* \"#utility.yul\":187:199   */\n      revert\n        /* \"#utility.yul\":334:460   */\n    tag_157:\n        /* \"#utility.yul\":371:378   */\n      0x00\n        /* \"#utility.yul\":411:453   */\n      0xffffffffffffffffffffffffffffffffffffffff\n        /* \"#utility.yul\":404:409   */\n      dup3\n        /* \"#utility.yul\":400:454   */\n      and\n        /* \"#utility.yul\":389:454   */\n      swap1\n      pop\n        /* \"#utility.yul\":334:460   */\n      swap2\n      swap1\n      pop\n      jump\t// out\n        /* \"#utility.yul\":466:562   */\n    tag_158:\n        /* \"#utility.yul\":503:510   */\n      0x00\n        /* \"#utility.yul\":532:556   */\n      tag_186\n        /* \"#utility.yul\":550:555   */\n      dup3\n        /* \"#utility.yul\":532:556   */\n      tag_157\n      jump\t// in\n    tag_186:\n        /* \"#utility.yul\":521:556   */\n      swap1\n      pop\n        /* \"#utility.yul\":466:562   */\n      swap2\n      swap1\n      pop\n      jump\t// out\n        /* \"#utility.yul\":568:690   */\n    tag_159:\n        /* \"#utility.yul\":641:665   */\n      tag_188\n        /* \"#utility.yul\":659:664   */\n      dup2\n        /* \"#utility.yul\":641:665   */\n      tag_158\n      jump\t// in\n    tag_188:\n        /* \"#utility.yul\":634:639   */\n      dup2\n        /* \"#utility.yul\":631:666   */\n      eq\n        /* \"#utility.yul\":621:684   */\n      tag_189\n      jumpi\n        /* \"#utility.yul\":680:681   */\n      0x00\n        /* \"#utility.yul\":677:678   */\n      dup1\n        /* \"#utility.yul\":670:682   */\n      revert\n        /* \"#utility.yul\":621:684   */\n    tag_189:\n        /* \"#utility.yul\":568:690   */\n      pop\n      jump\t// out\n        /* \"#utility.yul\":696:835   */\n    tag_160:\n        /* \"#utility.yul\":742:747   */\n      0x00\n        /* \"#utility.yul\":780:786   */\n      dup2\n        /* \"#utility.yul\":767:787   */\n      calldataload\n        /* \"#utility.yul\":758:787   */\n      swap1\n      pop\n        /* \"#utility.yul\":796:829   */\n      tag_191\n        /* \"#utility.yul\":823:828   */\n      dup2\n        /* \"#utility.yul\":796:829   */\n      tag_159\n      jump\t// in\n    tag_191:\n        /* \"#utility.yul\":696:835   */\n      swap3\n      swap2\n      pop\n      pop\n      jump\t// out\n        /* \"#utility.yul\":841:918   */\n    tag_161:\n        /* \"#utility.yul\":878:885   */\n      0x00\n        /* \"#utility.yul\":907:912   */\n      dup2\n        /* \"#utility.yul\":896:912   */\n      swap1\n      pop\n        /* \"#utility.yul\":841:918   */\n      swap2\n      swap1\n      pop\n      jump\t// out\n        /* \"#utility.yul\":924:1046   */\n    tag_162:\n        /* \"#utility.yul\":997:1021   */\n      tag_194\n        /* \"#utility.yul\":1015:1020   */\n      dup2\n        /* \"#utility.yul\":997:1021   */\n      tag_161\n      jump\t// in\n    tag_194:\n        /* \"#utility.yul\":990:995   */\n      dup2\n        /* \"#utility.yul\":987:1022   */\n      eq\n        /* \"#utility.yul\":977:1040   */\n      tag_195\n      jumpi\n        /* \"#utility.yul\":1036:1037   */\n      0x00\n        /* \"#utility.yul\":1033:1034   */\n      dup1\n        /* \"#utility.yul\":1026:1038   */\n      revert\n        /* \"#utility.yul\":977:1040   */\n    tag_195:\n        /* \"#utility.yul\":924:1046   */\n      pop\n      jump\t// out\n        /* \"#utility.yul\":1052:1191   */\n    tag_163:\n        /* \"#utility.yul\":1098:1103   */\n      0x00\n        /* \"#utility.yul\":1136:1142   */\n      dup2\n        /* \"#utility.yul\":1123:1143   */\n      calldataload\n        /* \"#utility.yul\":1114:1143   */\n      swap1\n      pop\n        /* \"#utility.yul\":1152:1185   */\n      tag_197\n        /* \"#utility.yul\":1179:1184   */\n      dup2\n        /* \"#utility.yul\":1152:1185   */\n      tag_162\n      jump\t// in\n    tag_197:\n        /* \"#utility.yul\":1052:1191   */\n      swap3\n      swap2\n      pop\n      pop\n      jump\t// out\n        /* \"#utility.yul\":1197:1671   */\n    tag_25:\n        /* \"#utility.yul\":1265:1271   */\n      0x00\n        /* \"#utility.yul\":1273:1279   */\n      dup1\n        /* \"#utility.yul\":1322:1324   */\n      0x40\n        /* \"#utility.yul\":1310:1319   */\n      dup4\n        /* \"#utility.yul\":1301:1308   */\n      dup6\n        /* \"#utility.yul\":1297:1320   */\n      sub\n        /* \"#utility.yul\":1293:1325   */\n      slt\n        /* \"#utility.yul\":1290:1409   */\n      iszero\n      tag_199\n      jumpi\n        /* \"#utility.yul\":1328:1407   */\n      tag_200\n      tag_155\n      jump\t// in\n    tag_200:\n        /* \"#utility.yul\":1290:1409   */\n    tag_199:\n        /* \"#utility.yul\":1448:1449   */\n      0x00\n        /* \"#utility.yul\":1473:1526   */\n      tag_201\n        /* \"#utility.yul\":1518:1525   */\n      dup6\n        /* \"#utility.yul\":1509:1515   */\n      dup3\n        /* \"#utility.yul\":1498:1507   */\n      dup7\n        /* \"#utility.yul\":1494:1516   */\n      add\n        /* \"#utility.yul\":1473:1526   */\n      tag_160\n      jump\t// in\n    tag_201:\n        /* \"#utility.yul\":1463:1526   */\n      swap3\n      pop\n        /* \"#utility.yul\":1419:1536   */\n      pop\n        /* \"#utility.yul\":1575:1577   */\n      0x20\n        /* \"#utility.yul\":1601:1654   */\n      tag_202\n        /* \"#utility.yul\":1646:1653   */\n      dup6\n        /* \"#utility.yul\":1637:1643   */\n      dup3\n        /* \"#utility.yul\":1626:1635   */\n      dup7\n        /* \"#utility.yul\":1622:1644   */\n      add\n        /* \"#utility.yul\":1601:1654   */\n      tag_163\n      jump\t// in\n    tag_202:\n        /* \"#utility.yul\":1591:1654   */\n      swap2\n      pop\n        /* \"#utility.yul\":1546:1664   */\n      pop\n        /* \"#utility.yul\":1197:1671   */\n      swap3\n      pop\n      swap3\n      swap1\n      pop\n      jump\t// out\n        /* \"#utility.yul\":1677:1767   */\n    tag_164:\n        /* \"#utility.yul\":1711:1718   */\n      0x00\n        /* \"#utility.yul\":1754:1759   */\n      dup2\n        /* \"#utility.yul\":1747:1760   */\n      iszero\n        /* \"#utility.yul\":1740:1761   */\n      iszero\n        /* \"#utility.yul\":1729:1761   */\n      swap1\n      pop\n        /* \"#utility.yul\":1677:1767   */\n      swap2\n      swap1\n      pop\n      jump\t// out\n        /* \"#utility.yul\":1773:1882   */\n    tag_165:\n        /* \"#utility.yul\":1854:1875   */\n      tag_205\n        /* \"#utility.yul\":1869:1874   */\n      dup2\n        /* \"#utility.yul\":1854:1875   */\n      tag_164\n      jump\t// in\n    tag_205:\n        /* \"#utility.yul\":1849:1852   */\n      dup3\n        /* \"#utility.yul\":1842:1876   */\n      mstore\n        /* \"#utility.yul\":1773:1882   */\n      pop\n      pop\n      jump\t// out\n        /* \"#utility.yul\":1888:2098   */\n    tag_28:\n        /* \"#utility.yul\":1975:1979   */\n      0x00\n        /* \"#utility.yul\":2013:2015   */\n      0x20\n        /* \"#utility.yul\":2002:2011   */\n      dup3\n        /* \"#utility.yul\":1998:2016   */\n      add\n        /* \"#utility.yul\":1990:2016   */\n      swap1\n      pop\n        /* \"#utility.yul\":2026:2091   */\n      tag_207\n        /* \"#utility.yul\":2088:2089   */\n      0x00\n        /* \"#utility.yul\":2077:2086   */\n      dup4\n        /* \"#utility.yul\":2073:2090   */\n      add\n        /* \"#utility.yul\":2064:2070   */\n      dup5\n        /* \"#utility.yul\":2026:2091   */\n      tag_165\n      jump\t// in\n    tag_207:\n        /* \"#utility.yul\":1888:2098   */\n      swap3\n      swap2\n      pop\n      pop\n      jump\t// out\n        /* \"#utility.yul\":2104:2203   */\n    tag_166:\n        /* \"#utility.yul\":2156:2162   */\n      0x00\n        /* \"#utility.yul\":2190:2195   */\n      dup2\n        /* \"#utility.yul\":2184:2196   */\n      mload\n        /* \"#utility.yul\":2174:2196   */\n      swap1\n      pop\n        /* \"#utility.yul\":2104:2203   */\n      swap2\n      swap1\n      pop\n      jump\t// out\n        /* \"#utility.yul\":2209:2378   */\n    tag_167:\n        /* \"#utility.yul\":2293:2304   */\n      0x00\n        /* \"#utility.yul\":2327:2333   */\n      dup3\n        /* \"#utility.yul\":2322:2325   */\n      dup3\n        /* \"#utility.yul\":2315:2334   */\n      mstore\n        /* \"#utility.yul\":2367:2371   */\n      0x20\n        /* \"#utility.yul\":2362:2365   */\n      dup3\n        /* \"#utility.yul\":2358:2372   */\n      add\n        /* \"#utility.yul\":2343:2372   */\n      swap1\n      pop\n        /* \"#utility.yul\":2209:2378   */\n      swap3\n      swap2\n      pop\n      pop\n      jump\t// out\n        /* \"#utility.yul\":2384:2523   */\n    tag_168:\n        /* \"#utility.yul\":2473:2479   */\n      dup3\n        /* \"#utility.yul\":2468:2471   */\n      dup2\n        /* \"#utility.yul\":2463:2466   */\n      dup4\n        /* \"#utility.yul\":2457:2480   */\n      mcopy\n        /* \"#utility.yul\":2514:2515   */\n      0x00\n        /* \"#utility.yul\":2505:2511   */\n      dup4\n        /* \"#utility.yul\":2500:2503   */\n      dup4\n        /* \"#utility.yul\":2496:2512   */\n      add\n        /* \"#utility.yul\":2489:2516   */\n      mstore\n        /* \"#utility.yul\":2384:2523   */\n      pop\n      pop\n      pop\n      jump\t// out\n        /* \"#utility.yul\":2529:2631   */\n    tag_169:\n        /* \"#utility.yul\":2570:2576   */\n      0x00\n        /* \"#utility.yul\":2621:2623   */\n      0x1f\n        /* \"#utility.yul\":2617:2624   */\n      not\n        /* \"#utility.yul\":2612:2614   */\n      0x1f\n        /* \"#utility.yul\":2605:2610   */\n      dup4\n        /* \"#utility.yul\":2601:2615   */\n      add\n        /* \"#utility.yul\":2597:2625   */\n      and\n        /* \"#utility.yul\":2587:2625   */\n      swap1\n      pop\n        /* \"#utility.yul\":2529:2631   */\n      swap2\n      swap1\n      pop\n      jump\t// out\n        /* \"#utility.yul\":2637:3014   */\n    tag_170:\n        /* \"#utility.yul\":2725:2728   */\n      0x00\n        /* \"#utility.yul\":2753:2792   */\n      tag_213\n        /* \"#utility.yul\":2786:2791   */\n      dup3\n        /* \"#utility.yul\":2753:2792   */\n      tag_166\n      jump\t// in\n    tag_213:\n        /* \"#utility.yul\":2808:2879   */\n      tag_214\n        /* \"#utility.yul\":2872:2878   */\n      dup2\n        /* \"#utility.yul\":2867:2870   */\n      dup6\n        /* \"#utility.yul\":2808:2879   */\n      tag_167\n      jump\t// in\n    tag_214:\n        /* \"#utility.yul\":2801:2879   */\n      swap4\n      pop\n        /* \"#utility.yul\":2888:2953   */\n      tag_215\n        /* \"#utility.yul\":2946:2952   */\n      dup2\n        /* \"#utility.yul\":2941:2944   */\n      dup6\n        /* \"#utility.yul\":2934:2938   */\n      0x20\n        /* \"#utility.yul\":2927:2932   */\n      dup7\n        /* \"#utility.yul\":2923:2939   */\n      add\n        /* \"#utility.yul\":2888:2953   */\n      tag_168\n      jump\t// in\n    tag_215:\n        /* \"#utility.yul\":2978:3007   */\n      tag_216\n        /* \"#utility.yul\":3000:3006   */\n      dup2\n        /* \"#utility.yul\":2978:3007   */\n      tag_169\n      jump\t// in\n    tag_216:\n        /* \"#utility.yul\":2973:2976   */\n      dup5\n        /* \"#utility.yul\":2969:3008   */\n      add\n        /* \"#utility.yul\":2962:3008   */\n      swap2\n      pop\n        /* \"#utility.yul\":2729:3014   */\n      pop\n        /* \"#utility.yul\":2637:3014   */\n      swap3\n      swap2\n      pop\n      pop\n      jump\t// out\n        /* \"#utility.yul\":3020:3333   */\n    tag_32:\n        /* \"#utility.yul\":3133:3137   */\n      0x00\n        /* \"#utility.yul\":3171:3173   */\n      0x20\n        /* \"#utility.yul\":3160:3169   */\n      dup3\n        /* \"#utility.yul\":3156:3174   */\n      add\n        /* \"#utility.yul\":3148:3174   */\n      swap1\n      pop\n        /* \"#utility.yul\":3220:3229   */\n      dup2\n        /* \"#utility.yul\":3214:3218   */\n      dup2\n        /* \"#utility.yul\":3210:3230   */\n      sub\n        /* \"#utility.yul\":3206:3207   */\n      0x00\n        /* \"#utility.yul\":3195:3204   */\n      dup4\n        /* \"#utility.yul\":3191:3208   */\n      add\n        /* \"#utility.yul\":3184:3231   */\n      mstore\n        /* \"#utility.yul\":3248:3326   */\n      tag_218\n        /* \"#utility.yul\":3321:3325   */\n      dup2\n        /* \"#utility.yul\":3312:3318   */\n      dup5\n        /* \"#utility.yul\":3248:3326   */\n      tag_170\n      jump\t// in\n    tag_218:\n        /* \"#utility.yul\":3240:3326   */\n      swap1\n      pop\n        /* \"#utility.yul\":3020:3333   */\n      swap3\n      swap2\n      pop\n      pop\n      jump\t// out\n        /* \"#utility.yul\":3339:3457   */\n    tag_171:\n        /* \"#utility.yul\":3426:3450   */\n      tag_220\n        /* \"#utility.yul\":3444:3449   */\n      dup2\n        /* \"#utility.yul\":3426:3450   */\n      tag_161\n      jump\t// in\n    tag_220:\n        /* \"#utility.yul\":3421:3424   */\n      dup3\n        /* \"#utility.yul\":3414:3451   */\n      mstore\n        /* \"#utility.yul\":3339:3457   */\n      pop\n      pop\n      jump\t// out\n        /* \"#utility.yul\":3463:3685   */\n    tag_40:\n        /* \"#utility.yul\":3556:3560   */\n      0x00\n        /* \"#utility.yul\":3594:3596   */\n      0x20\n        /* \"#utility.yul\":3583:3592   */\n      dup3\n        /* \"#utility.yul\":3579:3597   */\n      add\n        /* \"#utility.yul\":3571:3597   */\n      swap1\n      pop\n        /* \"#utility.yul\":3607:3678   */\n      tag_222\n        /* \"#utility.yul\":3675:3676   */\n      0x00\n        /* \"#utility.yul\":3664:3673   */\n      dup4\n        /* \"#utility.yul\":3660:3677   */\n      add\n        /* \"#utility.yul\":3651:3657   */\n      dup5\n        /* \"#utility.yul\":3607:3678   */\n      tag_171\n      jump\t// in\n    tag_222:\n        /* \"#utility.yul\":3463:3685   */\n      swap3\n      swap2\n      pop\n      pop\n      jump\t// out\n        /* \"#utility.yul\":3691:4020   */\n    tag_43:\n        /* \"#utility.yul\":3750:3756   */\n      0x00\n        /* \"#utility.yul\":3799:3801   */\n      0x20\n        /* \"#utility.yul\":3787:3796   */\n      dup3\n        /* \"#utility.yul\":3778:3785   */\n      dup5\n        /* \"#utility.yul\":3774:3797   */\n      sub\n        /* \"#utility.yul\":3770:3802   */\n      slt\n        /* \"#utility.yul\":3767:3886   */\n      iszero\n      tag_224\n      jumpi\n        /* \"#utility.yul\":3805:3884   */\n      tag_225\n      tag_155\n      jump\t// in\n    tag_225:\n        /* \"#utility.yul\":3767:3886   */\n    tag_224:\n        /* \"#utility.yul\":3925:3926   */\n      0x00\n        /* \"#utility.yul\":3950:4003   */\n      tag_226\n        /* \"#utility.yul\":3995:4002   */\n      dup5\n        /* \"#utility.yul\":3986:3992   */\n      dup3\n        /* \"#utility.yul\":3975:3984   */\n      dup6\n        /* \"#utility.yul\":3971:3993   */\n      add\n        /* \"#utility.yul\":3950:4003   */\n      tag_160\n      jump\t// in\n    tag_226:\n        /* \"#utility.yul\":3940:4003   */\n      swap2\n      pop\n        /* \"#utility.yul\":3896:4013   */\n      pop\n        /* \"#utility.yul\":3691:4020   */\n      swap3\n      swap2\n      pop\n      pop\n      jump\t// out\n        /* \"#utility.yul\":4026:4500   */\n    tag_61:\n        /* \"#utility.yul\":4094:4100   */\n      0x00\n        /* \"#utility.yul\":4102:4108   */\n      dup1\n        /* \"#utility.yul\":4151:4153   */\n      0x40\n        /* \"#utility.yul\":4139:4148   */\n      dup4\n        /* \"#utility.yul\":4130:4137   */\n      dup6\n        /* \"#utility.yul\":4126:4149   */\n      sub\n        /* \"#utility.yul\":4122:4154   */\n      slt\n        /* \"#utility.yul\":4119:4238   */\n      iszero\n      tag_228\n      jumpi\n        /* \"#utility.yul\":4157:4236   */\n      tag_229\n      tag_155\n      jump\t// in\n    tag_229:\n        /* \"#utility.yul\":4119:4238   */\n    tag_228:\n        /* \"#utility.yul\":4277:4278   */\n      0x00\n        /* \"#utility.yul\":4302:4355   */\n      tag_230\n        /* \"#utility.yul\":4347:4354   */\n      dup6\n        /* \"#utility.yul\":4338:4344   */\n      dup3\n        /* \"#utility.yul\":4327:4336   */\n      dup7\n        /* \"#utility.yul\":4323:4345   */\n      add\n        /* \"#utility.yul\":4302:4355   */\n      tag_160\n      jump\t// in\n    tag_230:\n        /* \"#utility.yul\":4292:4355   */\n      swap3\n      pop\n        /* \"#utility.yul\":4248:4365   */\n      pop\n        /* \"#utility.yul\":4404:4406   */\n      0x20\n        /* \"#utility.yul\":4430:4483   */\n      tag_231\n        /* \"#utility.yul\":4475:4482   */\n      dup6\n        /* \"#utility.yul\":4466:4472   */\n      dup3\n        /* \"#utility.yul\":4455:4464   */\n      dup7\n        /* \"#utility.yul\":4451:4473   */\n      add\n        /* \"#utility.yul\":4430:4483   */\n      tag_160\n      jump\t// in\n    tag_231:\n        /* \"#utility.yul\":4420:4483   */\n      swap2\n      pop\n        /* \"#utility.yul\":4375:4493   */\n      pop\n        /* \"#utility.yul\":4026:4500   */\n      swap3\n      pop\n      swap3\n      swap1\n      pop\n      jump\t// out\n        /* \"#utility.yul\":4506:4624   */\n    tag_172:\n        /* \"#utility.yul\":4593:4617   */\n      tag_233\n        /* \"#utility.yul\":4611:4616   */\n      dup2\n        /* \"#utility.yul\":4593:4617   */\n      tag_158\n      jump\t// in\n    tag_233:\n        /* \"#utility.yul\":4588:4591   */\n      dup3\n        /* \"#utility.yul\":4581:4618   */\n      mstore\n        /* \"#utility.yul\":4506:4624   */\n      pop\n      pop\n      jump\t// out\n        /* \"#utility.yul\":4630:4852   */\n    tag_71:\n        /* \"#utility.yul\":4723:4727   */\n      0x00\n        /* \"#utility.yul\":4761:4763   */\n      0x20\n        /* \"#utility.yul\":4750:4759   */\n      dup3\n        /* \"#utility.yul\":4746:4764   */\n      add\n        /* \"#utility.yul\":4738:4764   */\n      swap1\n      pop\n        /* \"#utility.yul\":4774:4845   */\n      tag_235\n        /* \"#utility.yul\":4842:4843   */\n      0x00\n        /* \"#utility.yul\":4831:4840   */\n      dup4\n        /* \"#utility.yul\":4827:4844   */\n      add\n        /* \"#utility.yul\":4818:4824   */\n      dup5\n        /* \"#utility.yul\":4774:4845   */\n      tag_172\n      jump\t// in\n    tag_235:\n        /* \"#utility.yul\":4630:4852   */\n      swap3\n      swap2\n      pop\n      pop\n      jump\t// out\n        /* \"#utility.yul\":4858:5088   */\n    tag_173:\n        /* \"#utility.yul\":4998:5032   */\n      0x4552524f3a204163636f756e7420646f6573206e6f74206861766520656e6f75\n        /* \"#utility.yul\":4994:4995   */\n      0x00\n        /* \"#utility.yul\":4986:4992   */\n      dup3\n        /* \"#utility.yul\":4982:4996   */\n      add\n        /* \"#utility.yul\":4975:5033   */\n      mstore\n        /* \"#utility.yul\":5067:5080   */\n      0x67682062616c616e636521000000000000000000000000000000000000000000\n        /* \"#utility.yul\":5062:5064   */\n      0x20\n        /* \"#utility.yul\":5054:5060   */\n      dup3\n        /* \"#utility.yul\":5050:5065   */\n      add\n        /* \"#utility.yul\":5043:5081   */\n      mstore\n        /* \"#utility.yul\":4858:5088   */\n      pop\n      jump\t// out\n        /* \"#utility.yul\":5094:5460   */\n    tag_174:\n        /* \"#utility.yul\":5236:5239   */\n      0x00\n        /* \"#utility.yul\":5257:5324   */\n      tag_238\n        /* \"#utility.yul\":5321:5323   */\n      0x2b\n        /* \"#utility.yul\":5316:5319   */\n      dup4\n        /* \"#utility.yul\":5257:5324   */\n      tag_167\n      jump\t// in\n    tag_238:\n        /* \"#utility.yul\":5250:5324   */\n      swap2\n      pop\n        /* \"#utility.yul\":5333:5426   */\n      tag_239\n        /* \"#utility.yul\":5422:5425   */\n      dup3\n        /* \"#utility.yul\":5333:5426   */\n      tag_173\n      jump\t// in\n    tag_239:\n        /* \"#utility.yul\":5451:5453   */\n      0x40\n        /* \"#utility.yul\":5446:5449   */\n      dup3\n        /* \"#utility.yul\":5442:5454   */\n      add\n        /* \"#utility.yul\":5435:5454   */\n      swap1\n      pop\n        /* \"#utility.yul\":5094:5460   */\n      swap2\n      swap1\n      pop\n      jump\t// out\n        /* \"#utility.yul\":5466:5885   */\n    tag_93:\n        /* \"#utility.yul\":5632:5636   */\n      0x00\n        /* \"#utility.yul\":5670:5672   */\n      0x20\n        /* \"#utility.yul\":5659:5668   */\n      dup3\n        /* \"#utility.yul\":5655:5673   */\n      add\n        /* \"#utility.yul\":5647:5673   */\n      swap1\n      pop\n        /* \"#utility.yul\":5719:5728   */\n      dup2\n        /* \"#utility.yul\":5713:5717   */\n      dup2\n        /* \"#utility.yul\":5709:5729   */\n      sub\n        /* \"#utility.yul\":5705:5706   */\n      0x00\n        /* \"#utility.yul\":5694:5703   */\n      dup4\n        /* \"#utility.yul\":5690:5707   */\n      add\n        /* \"#utility.yul\":5683:5730   */\n      mstore\n        /* \"#utility.yul\":5747:5878   */\n      tag_241\n        /* \"#utility.yul\":5873:5877   */\n      dup2\n        /* \"#utility.yul\":5747:5878   */\n      tag_174\n      jump\t// in\n    tag_241:\n        /* \"#utility.yul\":5739:5878   */\n      swap1\n      pop\n        /* \"#utility.yul\":5466:5885   */\n      swap2\n      swap1\n      pop\n      jump\t// out\n        /* \"#utility.yul\":5891:6123   */\n    tag_175:\n        /* \"#utility.yul\":6031:6065   */\n      0x4552524f3a204163636f756e7420646f6573206e6f74206861766520656e6f75\n        /* \"#utility.yul\":6027:6028   */\n      0x00\n        /* \"#utility.yul\":6019:6025   */\n      dup3\n        /* \"#utility.yul\":6015:6029   */\n      add\n        /* \"#utility.yul\":6008:6066   */\n      mstore\n        /* \"#utility.yul\":6100:6115   */\n      0x676820616c6c6f77616e63652100000000000000000000000000000000000000\n        /* \"#utility.yul\":6095:6097   */\n      0x20\n        /* \"#utility.yul\":6087:6093   */\n      dup3\n        /* \"#utility.yul\":6083:6098   */\n      add\n        /* \"#utility.yul\":6076:6116   */\n      mstore\n        /* \"#utility.yul\":5891:6123   */\n      pop\n      jump\t// out\n        /* \"#utility.yul\":6129:6495   */\n    tag_176:\n        /* \"#utility.yul\":6271:6274   */\n      0x00\n        /* \"#utility.yul\":6292:6359   */\n      tag_244\n        /* \"#utility.yul\":6356:6358   */\n      0x2d\n        /* \"#utility.yul\":6351:6354   */\n      dup4\n        /* \"#utility.yul\":6292:6359   */\n      tag_167\n      jump\t// in\n    tag_244:\n        /* \"#utility.yul\":6285:6359   */\n      swap2\n      pop\n        /* \"#utility.yul\":6368:6461   */\n      tag_245\n        /* \"#utility.yul\":6457:6460   */\n      dup3\n        /* \"#utility.yul\":6368:6461   */\n      tag_175\n      jump\t// in\n    tag_245:\n        /* \"#utility.yul\":6486:6488   */\n      0x40\n        /* \"#utility.yul\":6481:6484   */\n      dup3\n        /* \"#utility.yul\":6477:6489   */\n      add\n        /* \"#utility.yul\":6470:6489   */\n      swap1\n      pop\n        /* \"#utility.yul\":6129:6495   */\n      swap2\n      swap1\n      pop\n      jump\t// out\n        /* \"#utility.yul\":6501:6920   */\n    tag_97:\n        /* \"#utility.yul\":6667:6671   */\n      0x00\n        /* \"#utility.yul\":6705:6707   */\n      0x20\n        /* \"#utility.yul\":6694:6703   */\n      dup3\n        /* \"#utility.yul\":6690:6708   */\n      add\n        /* \"#utility.yul\":6682:6708   */\n      swap1\n      pop\n        /* \"#utility.yul\":6754:6763   */\n      dup2\n        /* \"#utility.yul\":6748:6752   */\n      dup2\n        /* \"#utility.yul\":6744:6764   */\n      sub\n        /* \"#utility.yul\":6740:6741   */\n      0x00\n        /* \"#utility.yul\":6729:6738   */\n      dup4\n        /* \"#utility.yul\":6725:6742   */\n      add\n        /* \"#utility.yul\":6718:6765   */\n      mstore\n        /* \"#utility.yul\":6782:6913   */\n      tag_247\n        /* \"#utility.yul\":6908:6912   */\n      dup2\n        /* \"#utility.yul\":6782:6913   */\n      tag_176\n      jump\t// in\n    tag_247:\n        /* \"#utility.yul\":6774:6913   */\n      swap1\n      pop\n        /* \"#utility.yul\":6501:6920   */\n      swap2\n      swap1\n      pop\n      jump\t// out\n        /* \"#utility.yul\":6926:7106   */\n    tag_177:\n        /* \"#utility.yul\":6974:7051   */\n      0x4e487b7100000000000000000000000000000000000000000000000000000000\n        /* \"#utility.yul\":6971:6972   */\n      0x00\n        /* \"#utility.yul\":6964:7052   */\n      mstore\n        /* \"#utility.yul\":7071:7075   */\n      0x11\n        /* \"#utility.yul\":7068:7069   */\n      0x04\n        /* \"#utility.yul\":7061:7076   */\n      mstore\n        /* \"#utility.yul\":7095:7099   */\n      0x24\n        /* \"#utility.yul\":7092:7093   */\n      0x00\n        /* \"#utility.yul\":7085:7100   */\n      revert\n        /* \"#utility.yul\":7112:7306   */\n    tag_100:\n        /* \"#utility.yul\":7152:7156   */\n      0x00\n        /* \"#utility.yul\":7172:7192   */\n      tag_250\n        /* \"#utility.yul\":7190:7191   */\n      dup3\n        /* \"#utility.yul\":7172:7192   */\n      tag_161\n      jump\t// in\n    tag_250:\n        /* \"#utility.yul\":7167:7192   */\n      swap2\n      pop\n        /* \"#utility.yul\":7206:7226   */\n      tag_251\n        /* \"#utility.yul\":7224:7225   */\n      dup4\n        /* \"#utility.yul\":7206:7226   */\n      tag_161\n      jump\t// in\n    tag_251:\n        /* \"#utility.yul\":7201:7226   */\n      swap3\n      pop\n        /* \"#utility.yul\":7250:7251   */\n      dup3\n        /* \"#utility.yul\":7247:7248   */\n      dup3\n        /* \"#utility.yul\":7243:7252   */\n      sub\n        /* \"#utility.yul\":7235:7252   */\n      swap1\n      pop\n        /* \"#utility.yul\":7274:7275   */\n      dup2\n        /* \"#utility.yul\":7268:7272   */\n      dup2\n        /* \"#utility.yul\":7265:7276   */\n      gt\n        /* \"#utility.yul\":7262:7299   */\n      iszero\n      tag_252\n      jumpi\n        /* \"#utility.yul\":7279:7297   */\n      tag_253\n      tag_177\n      jump\t// in\n    tag_253:\n        /* \"#utility.yul\":7262:7299   */\n    tag_252:\n        /* \"#utility.yul\":7112:7306   */\n      swap3\n      swap2\n      pop\n      pop\n      jump\t// out\n        /* \"#utility.yul\":7312:7503   */\n    tag_103:\n        /* \"#utility.yul\":7352:7355   */\n      0x00\n        /* \"#utility.yul\":7371:7391   */\n      tag_255\n        /* \"#utility.yul\":7389:7390   */\n      dup3\n        /* \"#utility.yul\":7371:7391   */\n      tag_161\n      jump\t// in\n    tag_255:\n        /* \"#utility.yul\":7366:7391   */\n      swap2\n      pop\n        /* \"#utility.yul\":7405:7425   */\n      tag_256\n        /* \"#utility.yul\":7423:7424   */\n      dup4\n        /* \"#utility.yul\":7405:7425   */\n      tag_161\n      jump\t// in\n    tag_256:\n        /* \"#utility.yul\":7400:7425   */\n      swap3\n      pop\n        /* \"#utility.yul\":7448:7449   */\n      dup3\n        /* \"#utility.yul\":7445:7446   */\n      dup3\n        /* \"#utility.yul\":7441:7450   */\n      add\n        /* \"#utility.yul\":7434:7450   */\n      swap1\n      pop\n        /* \"#utility.yul\":7469:7472   */\n      dup1\n        /* \"#utility.yul\":7466:7467   */\n      dup3\n        /* \"#utility.yul\":7463:7473   */\n      gt\n        /* \"#utility.yul\":7460:7496   */\n      iszero\n      tag_257\n      jumpi\n        /* \"#utility.yul\":7476:7494   */\n      tag_258\n      tag_177\n      jump\t// in\n    tag_258:\n        /* \"#utility.yul\":7460:7496   */\n    tag_257:\n        /* \"#utility.yul\":7312:7503   */\n      swap3\n      swap2\n      pop\n      pop\n      jump\t// out\n        /* \"#utility.yul\":7509:7681   */\n    tag_178:\n        /* \"#utility.yul\":7649:7673   */\n      0x4552524f3a20496e76616c696420616464726573732100000000000000000000\n        /* \"#utility.yul\":7645:7646   */\n      0x00\n        /* \"#utility.yul\":7637:7643   */\n      dup3\n        /* \"#utility.yul\":7633:7647   */\n      add\n        /* \"#utility.yul\":7626:7674   */\n      mstore\n        /* \"#utility.yul\":7509:7681   */\n      pop\n      jump\t// out\n        /* \"#utility.yul\":7687:8053   */\n    tag_179:\n        /* \"#utility.yul\":7829:7832   */\n      0x00\n        /* \"#utility.yul\":7850:7917   */\n      tag_261\n        /* \"#utility.yul\":7914:7916   */\n      0x16\n        /* \"#utility.yul\":7909:7912   */\n      dup4\n        /* \"#utility.yul\":7850:7917   */\n      tag_167\n      jump\t// in\n    tag_261:\n        /* \"#utility.yul\":7843:7917   */\n      swap2\n      pop\n        /* \"#utility.yul\":7926:8019   */\n      tag_262\n        /* \"#utility.yul\":8015:8018   */\n      dup3\n        /* \"#utility.yul\":7926:8019   */\n      tag_178\n      jump\t// in\n    tag_262:\n        /* \"#utility.yul\":8044:8046   */\n      0x20\n        /* \"#utility.yul\":8039:8042   */\n      dup3\n        /* \"#utility.yul\":8035:8047   */\n      add\n        /* \"#utility.yul\":8028:8047   */\n      swap1\n      pop\n        /* \"#utility.yul\":7687:8053   */\n      swap2\n      swap1\n      pop\n      jump\t// out\n        /* \"#utility.yul\":8059:8478   */\n    tag_114:\n        /* \"#utility.yul\":8225:8229   */\n      0x00\n        /* \"#utility.yul\":8263:8265   */\n      0x20\n        /* \"#utility.yul\":8252:8261   */\n      dup3\n        /* \"#utility.yul\":8248:8266   */\n      add\n        /* \"#utility.yul\":8240:8266   */\n      swap1\n      pop\n        /* \"#utility.yul\":8312:8321   */\n      dup2\n        /* \"#utility.yul\":8306:8310   */\n      dup2\n        /* \"#utility.yul\":8302:8322   */\n      sub\n        /* \"#utility.yul\":8298:8299   */\n      0x00\n        /* \"#utility.yul\":8287:8296   */\n      dup4\n        /* \"#utility.yul\":8283:8300   */\n      add\n        /* \"#utility.yul\":8276:8323   */\n      mstore\n        /* \"#utility.yul\":8340:8471   */\n      tag_264\n        /* \"#utility.yul\":8466:8470   */\n      dup2\n        /* \"#utility.yul\":8340:8471   */\n      tag_179\n      jump\t// in\n    tag_264:\n        /* \"#utility.yul\":8332:8471   */\n      swap1\n      pop\n        /* \"#utility.yul\":8059:8478   */\n      swap2\n      swap1\n      pop\n      jump\t// out\n\n    auxdata: 0xa26469706673582212209113bd3c85932ed4c2435aecb887d5a22d3ce5163e3587e0a26cc6edfb809aa264736f6c634300081a0033\n}\n",
				"bytecode": {
					"linkReferences": {},
					"object": "608060405269152d02c7e14af68000005f55348015601b575f80fd5b505f5460025f3373ffffffffffffffffffffffffffffffffffffffff1673ffffffffffffffffffffffffffffffffffffffff1681526020019081526020015f20819055503360015f6101000a81548173ffffffffffffffffffffffffffffffffffffffff021916908373ffffffffffffffffffffffffffffffffffffffff160217905550611780806100ac5f395ff3fe608060405234801561000f575f80fd5b5060043610610109575f3560e01c806340c10f19116100a057806395d89b411161006f57806395d89b41146102df5780639dc29fac146102fd578063a457c2d714610319578063a9059cbb14610349578063dd62ed3e1461037957610109565b806340c10f19146102455780635c6581651461026157806370a08231146102915780638da5cb5b146102c157610109565b806327e235e3116100dc57806327e235e3146101a9578063313ce567146101d9578063324536eb146101f7578063395093511461021557610109565b806301c6adc31461010d57806306fdde031461013d578063095ea7b31461015b57806318160ddd1461018b575b5f80fd5b61012760048036038101906101229190611379565b6103a9565b60405161013491906113d1565b60405180910390f35b6101456106b1565b604051610152919061145a565b60405180910390f35b61017560048036038101906101709190611379565b6106ea565b60405161018291906113d1565b60405180910390f35b61019361085b565b6040516101a09190611489565b60405180910390f35b6101c360048036038101906101be91906114a2565b610863565b6040516101d09190611489565b60405180910390f35b6101e1610878565b6040516101ee9190611489565b60405180910390f35b6101ff61087d565b60405161020c9190611489565b60405180910390f35b61022f600480360381019061022a9190611379565b610882565b60405161023c91906113d1565b60405180910390f35b61025f600480360381019061025a9190611379565b610a68565b005b61027b600480360381019061027691906114cd565b610c03565b6040516102889190611489565b60405180910390f35b6102ab60048036038101906102a691906114a2565b610c23565b6040516102b89190611489565b60405180910390f35b6102c9610c69565b6040516102d6919061151a565b60405180910390f35b6102e7610c8e565b6040516102f4919061145a565b60405180910390f35b61031760048036038101906103129190611379565b610cc7565b005b610333600480360381019061032e9190611379565b610ee6565b60405161034091906113d1565b60405180910390f35b610363600480360381019061035e9190611379565b6110cc565b60405161037091906113d1565b60405180910390f35b610393600480360381019061038e91906114cd565b611266565b6040516103a09190611489565b60405180910390f35b5f828260025f8373ffffffffffffffffffffffffffffffffffffffff1673ffffffffffffffffffffffffffffffffffffffff1681526020019081526020015f205481111561042c576040517f08c379a0000000000000000000000000000000000000000000000000000000008152600401610423906115a3565b60405180910390fd5b60015f9054906101000a900473ffffffffffffffffffffffffffffffffffffffff168460035f8373ffffffffffffffffffffffffffffffffffffffff1673ffffffffffffffffffffffffffffffffffffffff1681526020019081526020015f205f3373ffffffffffffffffffffffffffffffffffffffff1673ffffffffffffffffffffffffffffffffffffffff1681526020019081526020015f205481111561050a576040517f08c379a000000000000000000000000000000000000000000000000000000000815260040161050190611631565b60405180910390fd5b8560025f8973ffffffffffffffffffffffffffffffffffffffff1673ffffffffffffffffffffffffffffffffffffffff1681526020019081526020015f205f828254610556919061167c565b925050819055508560035f8973ffffffffffffffffffffffffffffffffffffffff1673ffffffffffffffffffffffffffffffffffffffff1681526020019081526020015f205f3373ffffffffffffffffffffffffffffffffffffffff1673ffffffffffffffffffffffffffffffffffffffff1681526020019081526020015f205f8282546105e4919061167c565b925050819055508560025f3373ffffffffffffffffffffffffffffffffffffffff1673ffffffffffffffffffffffffffffffffffffffff1681526020019081526020015f205f82825461063791906116af565b925050819055503373ffffffffffffffffffffffffffffffffffffffff168773ffffffffffffffffffffffffffffffffffffffff167fddf252ad1be2c89b69c2b068fc378daa952ba7f163c4a11628f55a4df523b3ef8860405161069b9190611489565b60405180910390a3600194505050505092915050565b6040518060400160405280600881526020017f474842546f6b656e00000000000000000000000000000000000000000000000081525081565b5f338260025f8373ffffffffffffffffffffffffffffffffffffffff1673ffffffffffffffffffffffffffffffffffffffff1681526020019081526020015f205481111561076d576040517f08c379a0000000000000000000000000000000000000000000000000000000008152600401610764906115a3565b60405180910390fd5b8360035f3373ffffffffffffffffffffffffffffffffffffffff1673ffffffffffffffffffffffffffffffffffffffff1681526020019081526020015f205f8773ffffffffffffffffffffffffffffffffffffffff1673ffffffffffffffffffffffffffffffffffffffff1681526020019081526020015f20819055508473ffffffffffffffffffffffffffffffffffffffff163373ffffffffffffffffffffffffffffffffffffffff167f8c5be1e5ebec7d5bd14f71427d1e84f3dd0314c0f7b2291e5b200ac8c7c3b925866040516108479190611489565b60405180910390a360019250505092915050565b5f8054905090565b6002602052805f5260405f205f915090505481565b601281565b5f5481565b5f825f73ffffffffffffffffffffffffffffffffffffffff168173ffffffffffffffffffffffffffffffffffffffff16036108f2576040517f08c379a00000000000000000000000000000000000000000000000000000000081526004016108e99061172c565b60405180910390fd5b8260035f3373ffffffffffffffffffffffffffffffffffffffff1673ffffffffffffffffffffffffffffffffffffffff1681526020019081526020015f205f8673ffffffffffffffffffffffffffffffffffffffff1673ffffffffffffffffffffffffffffffffffffffff1681526020019081526020015f205f82825461097991906116af565b925050819055508373ffffffffffffffffffffffffffffffffffffffff163373ffffffffffffffffffffffffffffffffffffffff167f8c5be1e5ebec7d5bd14f71427d1e84f3dd0314c0f7b2291e5b200ac8c7c3b92560035f3373ffffffffffffffffffffffffffffffffffffffff1673ffffffffffffffffffffffffffffffffffffffff1681526020019081526020015f205f8873ffffffffffffffffffffffffffffffffffffffff1673ffffffffffffffffffffffffffffffffffffffff1681526020019081526020015f2054604051610a559190611489565b60405180910390a3600191505092915050565b60015f9054906101000a900473ffffffffffffffffffffffffffffffffffffffff1673ffffffffffffffffffffffffffffffffffffffff163373ffffffffffffffffffffffffffffffffffffffff1614610ac0575f80fd5b815f73ffffffffffffffffffffffffffffffffffffffff168173ffffffffffffffffffffffffffffffffffffffff1603610b2f576040517f08c379a0000000000000000000000000000000000000000000000000000000008152600401610b269061172c565b60405180910390fd5b815f80828254610b3f91906116af565b925050819055508160025f8573ffffffffffffffffffffffffffffffffffffffff1673ffffffffffffffffffffffffffffffffffffffff1681526020019081526020015f205f828254610b9291906116af565b925050819055508273ffffffffffffffffffffffffffffffffffffffff165f73ffffffffffffffffffffffffffffffffffffffff167fddf252ad1be2c89b69c2b068fc378daa952ba7f163c4a11628f55a4df523b3ef84604051610bf69190611489565b60405180910390a3505050565b6003602052815f5260405f20602052805f5260405f205f91509150505481565b5f60025f8373ffffffffffffffffffffffffffffffffffffffff1673ffffffffffffffffffffffffffffffffffffffff1681526020019081526020015f20549050919050565b60015f9054906101000a900473ffffffffffffffffffffffffffffffffffffffff1681565b6040518060400160405280600481526020017f474842540000000000000000000000000000000000000000000000000000000081525081565b60015f9054906101000a900473ffffffffffffffffffffffffffffffffffffffff1673ffffffffffffffffffffffffffffffffffffffff163373ffffffffffffffffffffffffffffffffffffffff1614610d1f575f80fd5b815f73ffffffffffffffffffffffffffffffffffffffff168173ffffffffffffffffffffffffffffffffffffffff1603610d8e576040517f08c379a0000000000000000000000000000000000000000000000000000000008152600401610d859061172c565b60405180910390fd5b828260025f8373ffffffffffffffffffffffffffffffffffffffff1673ffffffffffffffffffffffffffffffffffffffff1681526020019081526020015f2054811115610e10576040517f08c379a0000000000000000000000000000000000000000000000000000000008152600401610e07906115a3565b60405180910390fd5b835f80828254610e20919061167c565b925050819055508360025f8773ffffffffffffffffffffffffffffffffffffffff1673ffffffffffffffffffffffffffffffffffffffff1681526020019081526020015f205f828254610e73919061167c565b925050819055505f73ffffffffffffffffffffffffffffffffffffffff168573ffffffffffffffffffffffffffffffffffffffff167fddf252ad1be2c89b69c2b068fc378daa952ba7f163c4a11628f55a4df523b3ef86604051610ed79190611489565b60405180910390a35050505050565b5f825f73ffffffffffffffffffffffffffffffffffffffff168173ffffffffffffffffffffffffffffffffffffffff1603610f56576040517f08c379a0000000000000000000000000000000000000000000000000000000008152600401610f4d9061172c565b60405180910390fd5b8260035f3373ffffffffffffffffffffffffffffffffffffffff1673ffffffffffffffffffffffffffffffffffffffff1681526020019081526020015f205f8673ffffffffffffffffffffffffffffffffffffffff1673ffffffffffffffffffffffffffffffffffffffff1681526020019081526020015f205f828254610fdd919061167c565b925050819055508373ffffffffffffffffffffffffffffffffffffffff163373ffffffffffffffffffffffffffffffffffffffff167f8c5be1e5ebec7d5bd14f71427d1e84f3dd0314c0f7b2291e5b200ac8c7c3b92560035f3373ffffffffffffffffffffffffffffffffffffffff1673ffffffffffffffffffffffffffffffffffffffff1681526020019081526020015f205f8873ffffffffffffffffffffffffffffffffffffffff1673ffffffffffffffffffffffffffffffffffffffff1681526020019081526020015f20546040516110b99190611489565b60405180910390a3600191505092915050565b5f338260025f8373ffffffffffffffffffffffffffffffffffffffff1673ffffffffffffffffffffffffffffffffffffffff1681526020019081526020015f205481111561114f576040517f08c379a0000000000000000000000000000000000000000000000000000000008152600401611146906115a3565b60405180910390fd5b8360025f3373ffffffffffffffffffffffffffffffffffffffff1673ffffffffffffffffffffffffffffffffffffffff1681526020019081526020015f205f82825461119b919061167c565b925050819055508360025f8773ffffffffffffffffffffffffffffffffffffffff1673ffffffffffffffffffffffffffffffffffffffff1681526020019081526020015f205f8282546111ee91906116af565b925050819055508473ffffffffffffffffffffffffffffffffffffffff163373ffffffffffffffffffffffffffffffffffffffff167fddf252ad1be2c89b69c2b068fc378daa952ba7f163c4a11628f55a4df523b3ef866040516112529190611489565b60405180910390a360019250505092915050565b5f60035f8473ffffffffffffffffffffffffffffffffffffffff1673ffffffffffffffffffffffffffffffffffffffff1681526020019081526020015f205f8373ffffffffffffffffffffffffffffffffffffffff1673ffffffffffffffffffffffffffffffffffffffff1681526020019081526020015f2054905092915050565b5f80fd5b5f73ffffffffffffffffffffffffffffffffffffffff82169050919050565b5f611315826112ec565b9050919050565b6113258161130b565b811461132f575f80fd5b50565b5f813590506113408161131c565b92915050565b5f819050919050565b61135881611346565b8114611362575f80fd5b50565b5f813590506113738161134f565b92915050565b5f806040838503121561138f5761138e6112e8565b5b5f61139c85828601611332565b92505060206113ad85828601611365565b9150509250929050565b5f8115159050919050565b6113cb816113b7565b82525050565b5f6020820190506113e45f8301846113c2565b92915050565b5f81519050919050565b5f82825260208201905092915050565b8281835e5f83830152505050565b5f601f19601f8301169050919050565b5f61142c826113ea565b61143681856113f4565b9350611446818560208601611404565b61144f81611412565b840191505092915050565b5f6020820190508181035f8301526114728184611422565b905092915050565b61148381611346565b82525050565b5f60208201905061149c5f83018461147a565b92915050565b5f602082840312156114b7576114b66112e8565b5b5f6114c484828501611332565b91505092915050565b5f80604083850312156114e3576114e26112e8565b5b5f6114f085828601611332565b925050602061150185828601611332565b9150509250929050565b6115148161130b565b82525050565b5f60208201905061152d5f83018461150b565b92915050565b7f4552524f3a204163636f756e7420646f6573206e6f74206861766520656e6f755f8201527f67682062616c616e636521000000000000000000000000000000000000000000602082015250565b5f61158d602b836113f4565b915061159882611533565b604082019050919050565b5f6020820190508181035f8301526115ba81611581565b9050919050565b7f4552524f3a204163636f756e7420646f6573206e6f74206861766520656e6f755f8201527f676820616c6c6f77616e63652100000000000000000000000000000000000000602082015250565b5f61161b602d836113f4565b9150611626826115c1565b604082019050919050565b5f6020820190508181035f8301526116488161160f565b9050919050565b7f4e487b71000000000000000000000000000000000000000000000000000000005f52601160045260245ffd5b5f61168682611346565b915061169183611346565b92508282039050818111156116a9576116a861164f565b5b92915050565b5f6116b982611346565b91506116c483611346565b92508282019050808211156116dc576116db61164f565b5b92915050565b7f4552524f3a20496e76616c6964206164647265737321000000000000000000005f82015250565b5f6117166016836113f4565b9150611721826116e2565b602082019050919050565b5f6020820190508181035f8301526117438161170a565b905091905056fea26469706673582212209113bd3c85932ed4c2435aecb887d5a22d3ce5163e3587e0a26cc6edfb809aa264736f6c634300081a0033",
					"opcodes": "PUSH1 0x80 PUSH1 0x40 MSTORE PUSH10 0x152D02C7E14AF6800000 PUSH0 SSTORE CALLVALUE DUP1 ISZERO PUSH1 0x1B JUMPI PUSH0 DUP1 REVERT JUMPDEST POP PUSH0 SLOAD PUSH1 0x2 PUSH0 CALLER PUSH20 0xFFFFFFFFFFFFFFFFFFFFFFFFFFFFFFFFFFFFFFFF AND PUSH20 0xFFFFFFFFFFFFFFFFFFFFFFFFFFFFFFFFFFFFFFFF AND DUP2 MSTORE PUSH1 0x20 ADD SWAP1 DUP2 MSTORE PUSH1 0x20 ADD PUSH0 KECCAK256 DUP2 SWAP1 SSTORE POP CALLER PUSH1 0x1 PUSH0 PUSH2 0x100 EXP DUP2 SLOAD DUP2 PUSH20 0xFFFFFFFFFFFFFFFFFFFFFFFFFFFFFFFFFFFFFFFF MUL NOT AND SWAP1 DUP4 PUSH20 0xFFFFFFFFFFFFFFFFFFFFFFFFFFFFFFFFFFFFFFFF AND MUL OR SWAP1 SSTORE POP PUSH2 0x1780 DUP1 PUSH2 0xAC PUSH0 CODECOPY PUSH0 RETURN INVALID PUSH1 0x80 PUSH1 0x40 MSTORE CALLVALUE DUP1 ISZERO PUSH2 0xF JUMPI PUSH0 DUP1 REVERT JUMPDEST POP PUSH1 0x4 CALLDATASIZE LT PUSH2 0x109 JUMPI PUSH0 CALLDATALOAD PUSH1 0xE0 SHR DUP1 PUSH4 0x40C10F19 GT PUSH2 0xA0 JUMPI DUP1 PUSH4 0x95D89B41 GT PUSH2 0x6F JUMPI DUP1 PUSH4 0x95D89B41 EQ PUSH2 0x2DF JUMPI DUP1 PUSH4 0x9DC29FAC EQ PUSH2 0x2FD JUMPI DUP1 PUSH4 0xA457C2D7 EQ PUSH2 0x319 JUMPI DUP1 PUSH4 0xA9059CBB EQ PUSH2 0x349 JUMPI DUP1 PUSH4 0xDD62ED3E EQ PUSH2 0x379 JUMPI PUSH2 0x109 JUMP JUMPDEST DUP1 PUSH4 0x40C10F19 EQ PUSH2 0x245 JUMPI DUP1 PUSH4 0x5C658165 EQ PUSH2 0x261 JUMPI DUP1 PUSH4 0x70A08231 EQ PUSH2 0x291 JUMPI DUP1 PUSH4 0x8DA5CB5B EQ PUSH2 0x2C1 JUMPI PUSH2 0x109 JUMP JUMPDEST DUP1 PUSH4 0x27E235E3 GT PUSH2 0xDC JUMPI DUP1 PUSH4 0x27E235E3 EQ PUSH2 0x1A9 JUMPI DUP1 PUSH4 0x313CE567 EQ PUSH2 0x1D9 JUMPI DUP1 PUSH4 0x324536EB EQ PUSH2 0x1F7 JUMPI DUP1 PUSH4 0x39509351 EQ PUSH2 0x215 JUMPI PUSH2 0x109 JUMP JUMPDEST DUP1 PUSH4 0x1C6ADC3 EQ PUSH2 0x10D JUMPI DUP1 PUSH4 0x6FDDE03 EQ PUSH2 0x13D JUMPI DUP1 PUSH4 0x95EA7B3 EQ PUSH2 0x15B JUMPI DUP1 PUSH4 0x18160DDD EQ PUSH2 0x18B JUMPI JUMPDEST PUSH0 DUP1 REVERT JUMPDEST PUSH2 0x127 PUSH1 0x4 DUP1 CALLDATASIZE SUB DUP2 ADD SWAP1 PUSH2 0x122 SWAP2 SWAP1 PUSH2 0x1379 JUMP JUMPDEST PUSH2 0x3A9 JUMP JUMPDEST PUSH1 0x40 MLOAD PUSH2 0x134 SWAP2 SWAP1 PUSH2 0x13D1 JUMP JUMPDEST PUSH1 0x40 MLOAD DUP1 SWAP2 SUB SWAP1 RETURN JUMPDEST PUSH2 0x145 PUSH2 0x6B1 JUMP JUMPDEST PUSH1 0x40 MLOAD PUSH2 0x152 SWAP2 SWAP1 PUSH2 0x145A JUMP JUMPDEST PUSH1 0x40 MLOAD DUP1 SWAP2 SUB SWAP1 RETURN JUMPDEST PUSH2 0x175 PUSH1 0x4 DUP1 CALLDATASIZE SUB DUP2 ADD SWAP1 PUSH2 0x170 SWAP2 SWAP1 PUSH2 0x1379 JUMP JUMPDEST PUSH2 0x6EA JUMP JUMPDEST PUSH1 0x40 MLOAD PUSH2 0x182 SWAP2 SWAP1 PUSH2 0x13D1 JUMP JUMPDEST PUSH1 0x40 MLOAD DUP1 SWAP2 SUB SWAP1 RETURN JUMPDEST PUSH2 0x193 PUSH2 0x85B JUMP JUMPDEST PUSH1 0x40 MLOAD PUSH2 0x1A0 SWAP2 SWAP1 PUSH2 0x1489 JUMP JUMPDEST PUSH1 0x40 MLOAD DUP1 SWAP2 SUB SWAP1 RETURN JUMPDEST PUSH2 0x1C3 PUSH1 0x4 DUP1 CALLDATASIZE SUB DUP2 ADD SWAP1 PUSH2 0x1BE SWAP2 SWAP1 PUSH2 0x14A2 JUMP JUMPDEST PUSH2 0x863 JUMP JUMPDEST PUSH1 0x40 MLOAD PUSH2 0x1D0 SWAP2 SWAP1 PUSH2 0x1489 JUMP JUMPDEST PUSH1 0x40 MLOAD DUP1 SWAP2 SUB SWAP1 RETURN JUMPDEST PUSH2 0x1E1 PUSH2 0x878 JUMP JUMPDEST PUSH1 0x40 MLOAD PUSH2 0x1EE SWAP2 SWAP1 PUSH2 0x1489 JUMP JUMPDEST PUSH1 0x40 MLOAD DUP1 SWAP2 SUB SWAP1 RETURN JUMPDEST PUSH2 0x1FF PUSH2 0x87D JUMP JUMPDEST PUSH1 0x40 MLOAD PUSH2 0x20C SWAP2 SWAP1 PUSH2 0x1489 JUMP JUMPDEST PUSH1 0x40 MLOAD DUP1 SWAP2 SUB SWAP1 RETURN JUMPDEST PUSH2 0x22F PUSH1 0x4 DUP1 CALLDATASIZE SUB DUP2 ADD SWAP1 PUSH2 0x22A SWAP2 SWAP1 PUSH2 0x1379 JUMP JUMPDEST PUSH2 0x882 JUMP JUMPDEST PUSH1 0x40 MLOAD PUSH2 0x23C SWAP2 SWAP1 PUSH2 0x13D1 JUMP JUMPDEST PUSH1 0x40 MLOAD DUP1 SWAP2 SUB SWAP1 RETURN JUMPDEST PUSH2 0x25F PUSH1 0x4 DUP1 CALLDATASIZE SUB DUP2 ADD SWAP1 PUSH2 0x25A SWAP2 SWAP1 PUSH2 0x1379 JUMP JUMPDEST PUSH2 0xA68 JUMP JUMPDEST STOP JUMPDEST PUSH2 0x27B PUSH1 0x4 DUP1 CALLDATASIZE SUB DUP2 ADD SWAP1 PUSH2 0x276 SWAP2 SWAP1 PUSH2 0x14CD JUMP JUMPDEST PUSH2 0xC03 JUMP JUMPDEST PUSH1 0x40 MLOAD PUSH2 0x288 SWAP2 SWAP1 PUSH2 0x1489 JUMP JUMPDEST PUSH1 0x40 MLOAD DUP1 SWAP2 SUB SWAP1 RETURN JUMPDEST PUSH2 0x2AB PUSH1 0x4 DUP1 CALLDATASIZE SUB DUP2 ADD SWAP1 PUSH2 0x2A6 SWAP2 SWAP1 PUSH2 0x14A2 JUMP JUMPDEST PUSH2 0xC23 JUMP JUMPDEST PUSH1 0x40 MLOAD PUSH2 0x2B8 SWAP2 SWAP1 PUSH2 0x1489 JUMP JUMPDEST PUSH1 0x40 MLOAD DUP1 SWAP2 SUB SWAP1 RETURN JUMPDEST PUSH2 0x2C9 PUSH2 0xC69 JUMP JUMPDEST PUSH1 0x40 MLOAD PUSH2 0x2D6 SWAP2 SWAP1 PUSH2 0x151A JUMP JUMPDEST PUSH1 0x40 MLOAD DUP1 SWAP2 SUB SWAP1 RETURN JUMPDEST PUSH2 0x2E7 PUSH2 0xC8E JUMP JUMPDEST PUSH1 0x40 MLOAD PUSH2 0x2F4 SWAP2 SWAP1 PUSH2 0x145A JUMP JUMPDEST PUSH1 0x40 MLOAD DUP1 SWAP2 SUB SWAP1 RETURN JUMPDEST PUSH2 0x317 PUSH1 0x4 DUP1 CALLDATASIZE SUB DUP2 ADD SWAP1 PUSH2 0x312 SWAP2 SWAP1 PUSH2 0x1379 JUMP JUMPDEST PUSH2 0xCC7 JUMP JUMPDEST STOP JUMPDEST PUSH2 0x333 PUSH1 0x4 DUP1 CALLDATASIZE SUB DUP2 ADD SWAP1 PUSH2 0x32E SWAP2 SWAP1 PUSH2 0x1379 JUMP JUMPDEST PUSH2 0xEE6 JUMP JUMPDEST PUSH1 0x40 MLOAD PUSH2 0x340 SWAP2 SWAP1 PUSH2 0x13D1 JUMP JUMPDEST PUSH1 0x40 MLOAD DUP1 SWAP2 SUB SWAP1 RETURN JUMPDEST PUSH2 0x363 PUSH1 0x4 DUP1 CALLDATASIZE SUB DUP2 ADD SWAP1 PUSH2 0x35E SWAP2 SWAP1 PUSH2 0x1379 JUMP JUMPDEST PUSH2 0x10CC JUMP JUMPDEST PUSH1 0x40 MLOAD PUSH2 0x370 SWAP2 SWAP1 PUSH2 0x13D1 JUMP JUMPDEST PUSH1 0x40 MLOAD DUP1 SWAP2 SUB SWAP1 RETURN JUMPDEST PUSH2 0x393 PUSH1 0x4 DUP1 CALLDATASIZE SUB DUP2 ADD SWAP1 PUSH2 0x38E SWAP2 SWAP1 PUSH2 0x14CD JUMP JUMPDEST PUSH2 0x1266 JUMP JUMPDEST PUSH1 0x40 MLOAD PUSH2 0x3A0 SWAP2 SWAP1 PUSH2 0x1489 JUMP JUMPDEST PUSH1 0x40 MLOAD DUP1 SWAP2 SUB SWAP1 RETURN JUMPDEST PUSH0 DUP3 DUP3 PUSH1 0x2 PUSH0 DUP4 PUSH20 0xFFFFFFFFFFFFFFFFFFFFFFFFFFFFFFFFFFFFFFFF AND PUSH20 0xFFFFFFFFFFFFFFFFFFFFFFFFFFFFFFFFFFFFFFFF AND DUP2 MSTORE PUSH1 0x20 ADD SWAP1 DUP2 MSTORE PUSH1 0x20 ADD PUSH0 KECCAK256 SLOAD DUP2 GT ISZERO PUSH2 0x42C JUMPI PUSH1 0x40 MLOAD PUSH32 0x8C379A000000000000000000000000000000000000000000000000000000000 DUP2 MSTORE PUSH1 0x4 ADD PUSH2 0x423 SWAP1 PUSH2 0x15A3 JUMP JUMPDEST PUSH1 0x40 MLOAD DUP1 SWAP2 SUB SWAP1 REVERT JUMPDEST PUSH1 0x1 PUSH0 SWAP1 SLOAD SWAP1 PUSH2 0x100 EXP SWAP1 DIV PUSH20 0xFFFFFFFFFFFFFFFFFFFFFFFFFFFFFFFFFFFFFFFF AND DUP5 PUSH1 0x3 PUSH0 DUP4 PUSH20 0xFFFFFFFFFFFFFFFFFFFFFFFFFFFFFFFFFFFFFFFF AND PUSH20 0xFFFFFFFFFFFFFFFFFFFFFFFFFFFFFFFFFFFFFFFF AND DUP2 MSTORE PUSH1 0x20 ADD SWAP1 DUP2 MSTORE PUSH1 0x20 ADD PUSH0 KECCAK256 PUSH0 CALLER PUSH20 0xFFFFFFFFFFFFFFFFFFFFFFFFFFFFFFFFFFFFFFFF AND PUSH20 0xFFFFFFFFFFFFFFFFFFFFFFFFFFFFFFFFFFFFFFFF AND DUP2 MSTORE PUSH1 0x20 ADD SWAP1 DUP2 MSTORE PUSH1 0x20 ADD PUSH0 KECCAK256 SLOAD DUP2 GT ISZERO PUSH2 0x50A JUMPI PUSH1 0x40 MLOAD PUSH32 0x8C379A000000000000000000000000000000000000000000000000000000000 DUP2 MSTORE PUSH1 0x4 ADD PUSH2 0x501 SWAP1 PUSH2 0x1631 JUMP JUMPDEST PUSH1 0x40 MLOAD DUP1 SWAP2 SUB SWAP1 REVERT JUMPDEST DUP6 PUSH1 0x2 PUSH0 DUP10 PUSH20 0xFFFFFFFFFFFFFFFFFFFFFFFFFFFFFFFFFFFFFFFF AND PUSH20 0xFFFFFFFFFFFFFFFFFFFFFFFFFFFFFFFFFFFFFFFF AND DUP2 MSTORE PUSH1 0x20 ADD SWAP1 DUP2 MSTORE PUSH1 0x20 ADD PUSH0 KECCAK256 PUSH0 DUP3 DUP3 SLOAD PUSH2 0x556 SWAP2 SWAP1 PUSH2 0x167C JUMP JUMPDEST SWAP3 POP POP DUP2 SWAP1 SSTORE POP DUP6 PUSH1 0x3 PUSH0 DUP10 PUSH20 0xFFFFFFFFFFFFFFFFFFFFFFFFFFFFFFFFFFFFFFFF AND PUSH20 0xFFFFFFFFFFFFFFFFFFFFFFFFFFFFFFFFFFFFFFFF AND DUP2 MSTORE PUSH1 0x20 ADD SWAP1 DUP2 MSTORE PUSH1 0x20 ADD PUSH0 KECCAK256 PUSH0 CALLER PUSH20 0xFFFFFFFFFFFFFFFFFFFFFFFFFFFFFFFFFFFFFFFF AND PUSH20 0xFFFFFFFFFFFFFFFFFFFFFFFFFFFFFFFFFFFFFFFF AND DUP2 MSTORE PUSH1 0x20 ADD SWAP1 DUP2 MSTORE PUSH1 0x20 ADD PUSH0 KECCAK256 PUSH0 DUP3 DUP3 SLOAD PUSH2 0x5E4 SWAP2 SWAP1 PUSH2 0x167C JUMP JUMPDEST SWAP3 POP POP DUP2 SWAP1 SSTORE POP DUP6 PUSH1 0x2 PUSH0 CALLER PUSH20 0xFFFFFFFFFFFFFFFFFFFFFFFFFFFFFFFFFFFFFFFF AND PUSH20 0xFFFFFFFFFFFFFFFFFFFFFFFFFFFFFFFFFFFFFFFF AND DUP2 MSTORE PUSH1 0x20 ADD SWAP1 DUP2 MSTORE PUSH1 0x20 ADD PUSH0 KECCAK256 PUSH0 DUP3 DUP3 SLOAD PUSH2 0x637 SWAP2 SWAP1 PUSH2 0x16AF JUMP JUMPDEST SWAP3 POP POP DUP2 SWAP1 SSTORE POP CALLER PUSH20 0xFFFFFFFFFFFFFFFFFFFFFFFFFFFFFFFFFFFFFFFF AND DUP8 PUSH20 0xFFFFFFFFFFFFFFFFFFFFFFFFFFFFFFFFFFFFFFFF AND PUSH32 0xDDF252AD1BE2C89B69C2B068FC378DAA952BA7F163C4A11628F55A4DF523B3EF DUP9 PUSH1 0x40 MLOAD PUSH2 0x69B SWAP2 SWAP1 PUSH2 0x1489 JUMP JUMPDEST PUSH1 0x40 MLOAD DUP1 SWAP2 SUB SWAP1 LOG3 PUSH1 0x1 SWAP5 POP POP POP POP POP SWAP3 SWAP2 POP POP JUMP JUMPDEST PUSH1 0x40 MLOAD DUP1 PUSH1 0x40 ADD PUSH1 0x40 MSTORE DUP1 PUSH1 0x8 DUP2 MSTORE PUSH1 0x20 ADD PUSH32 0x474842546F6B656E000000000000000000000000000000000000000000000000 DUP2 MSTORE POP DUP2 JUMP JUMPDEST PUSH0 CALLER DUP3 PUSH1 0x2 PUSH0 DUP4 PUSH20 0xFFFFFFFFFFFFFFFFFFFFFFFFFFFFFFFFFFFFFFFF AND PUSH20 0xFFFFFFFFFFFFFFFFFFFFFFFFFFFFFFFFFFFFFFFF AND DUP2 MSTORE PUSH1 0x20 ADD SWAP1 DUP2 MSTORE PUSH1 0x20 ADD PUSH0 KECCAK256 SLOAD DUP2 GT ISZERO PUSH2 0x76D JUMPI PUSH1 0x40 MLOAD PUSH32 0x8C379A000000000000000000000000000000000000000000000000000000000 DUP2 MSTORE PUSH1 0x4 ADD PUSH2 0x764 SWAP1 PUSH2 0x15A3 JUMP JUMPDEST PUSH1 0x40 MLOAD DUP1 SWAP2 SUB SWAP1 REVERT JUMPDEST DUP4 PUSH1 0x3 PUSH0 CALLER PUSH20 0xFFFFFFFFFFFFFFFFFFFFFFFFFFFFFFFFFFFFFFFF AND PUSH20 0xFFFFFFFFFFFFFFFFFFFFFFFFFFFFFFFFFFFFFFFF AND DUP2 MSTORE PUSH1 0x20 ADD SWAP1 DUP2 MSTORE PUSH1 0x20 ADD PUSH0 KECCAK256 PUSH0 DUP8 PUSH20 0xFFFFFFFFFFFFFFFFFFFFFFFFFFFFFFFFFFFFFFFF AND PUSH20 0xFFFFFFFFFFFFFFFFFFFFFFFFFFFFFFFFFFFFFFFF AND DUP2 MSTORE PUSH1 0x20 ADD SWAP1 DUP2 MSTORE PUSH1 0x20 ADD PUSH0 KECCAK256 DUP2 SWAP1 SSTORE POP DUP5 PUSH20 0xFFFFFFFFFFFFFFFFFFFFFFFFFFFFFFFFFFFFFFFF AND CALLER PUSH20 0xFFFFFFFFFFFFFFFFFFFFFFFFFFFFFFFFFFFFFFFF AND PUSH32 0x8C5BE1E5EBEC7D5BD14F71427D1E84F3DD0314C0F7B2291E5B200AC8C7C3B925 DUP7 PUSH1 0x40 MLOAD PUSH2 0x847 SWAP2 SWAP1 PUSH2 0x1489 JUMP JUMPDEST PUSH1 0x40 MLOAD DUP1 SWAP2 SUB SWAP1 LOG3 PUSH1 0x1 SWAP3 POP POP POP SWAP3 SWAP2 POP POP JUMP JUMPDEST PUSH0 DUP1 SLOAD SWAP1 POP SWAP1 JUMP JUMPDEST PUSH1 0x2 PUSH1 0x20 MSTORE DUP1 PUSH0 MSTORE PUSH1 0x40 PUSH0 KECCAK256 PUSH0 SWAP2 POP SWAP1 POP SLOAD DUP2 JUMP JUMPDEST PUSH1 0x12 DUP2 JUMP JUMPDEST PUSH0 SLOAD DUP2 JUMP JUMPDEST PUSH0 DUP3 PUSH0 PUSH20 0xFFFFFFFFFFFFFFFFFFFFFFFFFFFFFFFFFFFFFFFF AND DUP2 PUSH20 0xFFFFFFFFFFFFFFFFFFFFFFFFFFFFFFFFFFFFFFFF AND SUB PUSH2 0x8F2 JUMPI PUSH1 0x40 MLOAD PUSH32 0x8C379A000000000000000000000000000000000000000000000000000000000 DUP2 MSTORE PUSH1 0x4 ADD PUSH2 0x8E9 SWAP1 PUSH2 0x172C JUMP JUMPDEST PUSH1 0x40 MLOAD DUP1 SWAP2 SUB SWAP1 REVERT JUMPDEST DUP3 PUSH1 0x3 PUSH0 CALLER PUSH20 0xFFFFFFFFFFFFFFFFFFFFFFFFFFFFFFFFFFFFFFFF AND PUSH20 0xFFFFFFFFFFFFFFFFFFFFFFFFFFFFFFFFFFFFFFFF AND DUP2 MSTORE PUSH1 0x20 ADD SWAP1 DUP2 MSTORE PUSH1 0x20 ADD PUSH0 KECCAK256 PUSH0 DUP7 PUSH20 0xFFFFFFFFFFFFFFFFFFFFFFFFFFFFFFFFFFFFFFFF AND PUSH20 0xFFFFFFFFFFFFFFFFFFFFFFFFFFFFFFFFFFFFFFFF AND DUP2 MSTORE PUSH1 0x20 ADD SWAP1 DUP2 MSTORE PUSH1 0x20 ADD PUSH0 KECCAK256 PUSH0 DUP3 DUP3 SLOAD PUSH2 0x979 SWAP2 SWAP1 PUSH2 0x16AF JUMP JUMPDEST SWAP3 POP POP DUP2 SWAP1 SSTORE POP DUP4 PUSH20 0xFFFFFFFFFFFFFFFFFFFFFFFFFFFFFFFFFFFFFFFF AND CALLER PUSH20 0xFFFFFFFFFFFFFFFFFFFFFFFFFFFFFFFFFFFFFFFF AND PUSH32 0x8C5BE1E5EBEC7D5BD14F71427D1E84F3DD0314C0F7B2291E5B200AC8C7C3B925 PUSH1 0x3 PUSH0 CALLER PUSH20 0xFFFFFFFFFFFFFFFFFFFFFFFFFFFFFFFFFFFFFFFF AND PUSH20 0xFFFFFFFFFFFFFFFFFFFFFFFFFFFFFFFFFFFFFFFF AND DUP2 MSTORE PUSH1 0x20 ADD SWAP1 DUP2 MSTORE PUSH1 0x20 ADD PUSH0 KECCAK256 PUSH0 DUP9 PUSH20 0xFFFFFFFFFFFFFFFFFFFFFFFFFFFFFFFFFFFFFFFF AND PUSH20 0xFFFFFFFFFFFFFFFFFFFFFFFFFFFFFFFFFFFFFFFF AND DUP2 MSTORE PUSH1 0x20 ADD SWAP1 DUP2 MSTORE PUSH1 0x20 ADD PUSH0 KECCAK256 SLOAD PUSH1 0x40 MLOAD PUSH2 0xA55 SWAP2 SWAP1 PUSH2 0x1489 JUMP JUMPDEST PUSH1 0x40 MLOAD DUP1 SWAP2 SUB SWAP1 LOG3 PUSH1 0x1 SWAP2 POP POP SWAP3 SWAP2 POP POP JUMP JUMPDEST PUSH1 0x1 PUSH0 SWAP1 SLOAD SWAP1 PUSH2 0x100 EXP SWAP1 DIV PUSH20 0xFFFFFFFFFFFFFFFFFFFFFFFFFFFFFFFFFFFFFFFF AND PUSH20 0xFFFFFFFFFFFFFFFFFFFFFFFFFFFFFFFFFFFFFFFF AND CALLER PUSH20 0xFFFFFFFFFFFFFFFFFFFFFFFFFFFFFFFFFFFFFFFF AND EQ PUSH2 0xAC0 JUMPI PUSH0 DUP1 REVERT JUMPDEST DUP2 PUSH0 PUSH20 0xFFFFFFFFFFFFFFFFFFFFFFFFFFFFFFFFFFFFFFFF AND DUP2 PUSH20 0xFFFFFFFFFFFFFFFFFFFFFFFFFFFFFFFFFFFFFFFF AND SUB PUSH2 0xB2F JUMPI PUSH1 0x40 MLOAD PUSH32 0x8C379A000000000000000000000000000000000000000000000000000000000 DUP2 MSTORE PUSH1 0x4 ADD PUSH2 0xB26 SWAP1 PUSH2 0x172C JUMP JUMPDEST PUSH1 0x40 MLOAD DUP1 SWAP2 SUB SWAP1 REVERT JUMPDEST DUP2 PUSH0 DUP1 DUP3 DUP3 SLOAD PUSH2 0xB3F SWAP2 SWAP1 PUSH2 0x16AF JUMP JUMPDEST SWAP3 POP POP DUP2 SWAP1 SSTORE POP DUP2 PUSH1 0x2 PUSH0 DUP6 PUSH20 0xFFFFFFFFFFFFFFFFFFFFFFFFFFFFFFFFFFFFFFFF AND PUSH20 0xFFFFFFFFFFFFFFFFFFFFFFFFFFFFFFFFFFFFFFFF AND DUP2 MSTORE PUSH1 0x20 ADD SWAP1 DUP2 MSTORE PUSH1 0x20 ADD PUSH0 KECCAK256 PUSH0 DUP3 DUP3 SLOAD PUSH2 0xB92 SWAP2 SWAP1 PUSH2 0x16AF JUMP JUMPDEST SWAP3 POP POP DUP2 SWAP1 SSTORE POP DUP3 PUSH20 0xFFFFFFFFFFFFFFFFFFFFFFFFFFFFFFFFFFFFFFFF AND PUSH0 PUSH20 0xFFFFFFFFFFFFFFFFFFFFFFFFFFFFFFFFFFFFFFFF AND PUSH32 0xDDF252AD1BE2C89B69C2B068FC378DAA952BA7F163C4A11628F55A4DF523B3EF DUP5 PUSH1 0x40 MLOAD PUSH2 0xBF6 SWAP2 SWAP1 PUSH2 0x1489 JUMP JUMPDEST PUSH1 0x40 MLOAD DUP1 SWAP2 SUB SWAP1 LOG3 POP POP POP JUMP JUMPDEST PUSH1 0x3 PUSH1 0x20 MSTORE DUP2 PUSH0 MSTORE PUSH1 0x40 PUSH0 KECCAK256 PUSH1 0x20 MSTORE DUP1 PUSH0 MSTORE PUSH1 0x40 PUSH0 KECCAK256 PUSH0 SWAP2 POP SWAP2 POP POP SLOAD DUP2 JUMP JUMPDEST PUSH0 PUSH1 0x2 PUSH0 DUP4 PUSH20 0xFFFFFFFFFFFFFFFFFFFFFFFFFFFFFFFFFFFFFFFF AND PUSH20 0xFFFFFFFFFFFFFFFFFFFFFFFFFFFFFFFFFFFFFFFF AND DUP2 MSTORE PUSH1 0x20 ADD SWAP1 DUP2 MSTORE PUSH1 0x20 ADD PUSH0 KECCAK256 SLOAD SWAP1 POP SWAP2 SWAP1 POP JUMP JUMPDEST PUSH1 0x1 PUSH0 SWAP1 SLOAD SWAP1 PUSH2 0x100 EXP SWAP1 DIV PUSH20 0xFFFFFFFFFFFFFFFFFFFFFFFFFFFFFFFFFFFFFFFF AND DUP2 JUMP JUMPDEST PUSH1 0x40 MLOAD DUP1 PUSH1 0x40 ADD PUSH1 0x40 MSTORE DUP1 PUSH1 0x4 DUP2 MSTORE PUSH1 0x20 ADD PUSH32 0x4748425400000000000000000000000000000000000000000000000000000000 DUP2 MSTORE POP DUP2 JUMP JUMPDEST PUSH1 0x1 PUSH0 SWAP1 SLOAD SWAP1 PUSH2 0x100 EXP SWAP1 DIV PUSH20 0xFFFFFFFFFFFFFFFFFFFFFFFFFFFFFFFFFFFFFFFF AND PUSH20 0xFFFFFFFFFFFFFFFFFFFFFFFFFFFFFFFFFFFFFFFF AND CALLER PUSH20 0xFFFFFFFFFFFFFFFFFFFFFFFFFFFFFFFFFFFFFFFF AND EQ PUSH2 0xD1F JUMPI PUSH0 DUP1 REVERT JUMPDEST DUP2 PUSH0 PUSH20 0xFFFFFFFFFFFFFFFFFFFFFFFFFFFFFFFFFFFFFFFF AND DUP2 PUSH20 0xFFFFFFFFFFFFFFFFFFFFFFFFFFFFFFFFFFFFFFFF AND SUB PUSH2 0xD8E JUMPI PUSH1 0x40 MLOAD PUSH32 0x8C379A000000000000000000000000000000000000000000000000000000000 DUP2 MSTORE PUSH1 0x4 ADD PUSH2 0xD85 SWAP1 PUSH2 0x172C JUMP JUMPDEST PUSH1 0x40 MLOAD DUP1 SWAP2 SUB SWAP1 REVERT JUMPDEST DUP3 DUP3 PUSH1 0x2 PUSH0 DUP4 PUSH20 0xFFFFFFFFFFFFFFFFFFFFFFFFFFFFFFFFFFFFFFFF AND PUSH20 0xFFFFFFFFFFFFFFFFFFFFFFFFFFFFFFFFFFFFFFFF AND DUP2 MSTORE PUSH1 0x20 ADD SWAP1 DUP2 MSTORE PUSH1 0x20 ADD PUSH0 KECCAK256 SLOAD DUP2 GT ISZERO PUSH2 0xE10 JUMPI PUSH1 0x40 MLOAD PUSH32 0x8C379A000000000000000000000000000000000000000000000000000000000 DUP2 MSTORE PUSH1 0x4 ADD PUSH2 0xE07 SWAP1 PUSH2 0x15A3 JUMP JUMPDEST PUSH1 0x40 MLOAD DUP1 SWAP2 SUB SWAP1 REVERT JUMPDEST DUP4 PUSH0 DUP1 DUP3 DUP3 SLOAD PUSH2 0xE20 SWAP2 SWAP1 PUSH2 0x167C JUMP JUMPDEST SWAP3 POP POP DUP2 SWAP1 SSTORE POP DUP4 PUSH1 0x2 PUSH0 DUP8 PUSH20 0xFFFFFFFFFFFFFFFFFFFFFFFFFFFFFFFFFFFFFFFF AND PUSH20 0xFFFFFFFFFFFFFFFFFFFFFFFFFFFFFFFFFFFFFFFF AND DUP2 MSTORE PUSH1 0x20 ADD SWAP1 DUP2 MSTORE PUSH1 0x20 ADD PUSH0 KECCAK256 PUSH0 DUP3 DUP3 SLOAD PUSH2 0xE73 SWAP2 SWAP1 PUSH2 0x167C JUMP JUMPDEST SWAP3 POP POP DUP2 SWAP1 SSTORE POP PUSH0 PUSH20 0xFFFFFFFFFFFFFFFFFFFFFFFFFFFFFFFFFFFFFFFF AND DUP6 PUSH20 0xFFFFFFFFFFFFFFFFFFFFFFFFFFFFFFFFFFFFFFFF AND PUSH32 0xDDF252AD1BE2C89B69C2B068FC378DAA952BA7F163C4A11628F55A4DF523B3EF DUP7 PUSH1 0x40 MLOAD PUSH2 0xED7 SWAP2 SWAP1 PUSH2 0x1489 JUMP JUMPDEST PUSH1 0x40 MLOAD DUP1 SWAP2 SUB SWAP1 LOG3 POP POP POP POP POP JUMP JUMPDEST PUSH0 DUP3 PUSH0 PUSH20 0xFFFFFFFFFFFFFFFFFFFFFFFFFFFFFFFFFFFFFFFF AND DUP2 PUSH20 0xFFFFFFFFFFFFFFFFFFFFFFFFFFFFFFFFFFFFFFFF AND SUB PUSH2 0xF56 JUMPI PUSH1 0x40 MLOAD PUSH32 0x8C379A000000000000000000000000000000000000000000000000000000000 DUP2 MSTORE PUSH1 0x4 ADD PUSH2 0xF4D SWAP1 PUSH2 0x172C JUMP JUMPDEST PUSH1 0x40 MLOAD DUP1 SWAP2 SUB SWAP1 REVERT JUMPDEST DUP3 PUSH1 0x3 PUSH0 CALLER PUSH20 0xFFFFFFFFFFFFFFFFFFFFFFFFFFFFFFFFFFFFFFFF AND PUSH20 0xFFFFFFFFFFFFFFFFFFFFFFFFFFFFFFFFFFFFFFFF AND DUP2 MSTORE PUSH1 0x20 ADD SWAP1 DUP2 MSTORE PUSH1 0x20 ADD PUSH0 KECCAK256 PUSH0 DUP7 PUSH20 0xFFFFFFFFFFFFFFFFFFFFFFFFFFFFFFFFFFFFFFFF AND PUSH20 0xFFFFFFFFFFFFFFFFFFFFFFFFFFFFFFFFFFFFFFFF AND DUP2 MSTORE PUSH1 0x20 ADD SWAP1 DUP2 MSTORE PUSH1 0x20 ADD PUSH0 KECCAK256 PUSH0 DUP3 DUP3 SLOAD PUSH2 0xFDD SWAP2 SWAP1 PUSH2 0x167C JUMP JUMPDEST SWAP3 POP POP DUP2 SWAP1 SSTORE POP DUP4 PUSH20 0xFFFFFFFFFFFFFFFFFFFFFFFFFFFFFFFFFFFFFFFF AND CALLER PUSH20 0xFFFFFFFFFFFFFFFFFFFFFFFFFFFFFFFFFFFFFFFF AND PUSH32 0x8C5BE1E5EBEC7D5BD14F71427D1E84F3DD0314C0F7B2291E5B200AC8C7C3B925 PUSH1 0x3 PUSH0 CALLER PUSH20 0xFFFFFFFFFFFFFFFFFFFFFFFFFFFFFFFFFFFFFFFF AND PUSH20 0xFFFFFFFFFFFFFFFFFFFFFFFFFFFFFFFFFFFFFFFF AND DUP2 MSTORE PUSH1 0x20 ADD SWAP1 DUP2 MSTORE PUSH1 0x20 ADD PUSH0 KECCAK256 PUSH0 DUP9 PUSH20 0xFFFFFFFFFFFFFFFFFFFFFFFFFFFFFFFFFFFFFFFF AND PUSH20 0xFFFFFFFFFFFFFFFFFFFFFFFFFFFFFFFFFFFFFFFF AND DUP2 MSTORE PUSH1 0x20 ADD SWAP1 DUP2 MSTORE PUSH1 0x20 ADD PUSH0 KECCAK256 SLOAD PUSH1 0x40 MLOAD PUSH2 0x10B9 SWAP2 SWAP1 PUSH2 0x1489 JUMP JUMPDEST PUSH1 0x40 MLOAD DUP1 SWAP2 SUB SWAP1 LOG3 PUSH1 0x1 SWAP2 POP POP SWAP3 SWAP2 POP POP JUMP JUMPDEST PUSH0 CALLER DUP3 PUSH1 0x2 PUSH0 DUP4 PUSH20 0xFFFFFFFFFFFFFFFFFFFFFFFFFFFFFFFFFFFFFFFF AND PUSH20 0xFFFFFFFFFFFFFFFFFFFFFFFFFFFFFFFFFFFFFFFF AND DUP2 MSTORE PUSH1 0x20 ADD SWAP1 DUP2 MSTORE PUSH1 0x20 ADD PUSH0 KECCAK256 SLOAD DUP2 GT ISZERO PUSH2 0x114F JUMPI PUSH1 0x40 MLOAD PUSH32 0x8C379A000000000000000000000000000000000000000000000000000000000 DUP2 MSTORE PUSH1 0x4 ADD PUSH2 0x1146 SWAP1 PUSH2 0x15A3 JUMP JUMPDEST PUSH1 0x40 MLOAD DUP1 SWAP2 SUB SWAP1 REVERT JUMPDEST DUP4 PUSH1 0x2 PUSH0 CALLER PUSH20 0xFFFFFFFFFFFFFFFFFFFFFFFFFFFFFFFFFFFFFFFF AND PUSH20 0xFFFFFFFFFFFFFFFFFFFFFFFFFFFFFFFFFFFFFFFF AND DUP2 MSTORE PUSH1 0x20 ADD SWAP1 DUP2 MSTORE PUSH1 0x20 ADD PUSH0 KECCAK256 PUSH0 DUP3 DUP3 SLOAD PUSH2 0x119B SWAP2 SWAP1 PUSH2 0x167C JUMP JUMPDEST SWAP3 POP POP DUP2 SWAP1 SSTORE POP DUP4 PUSH1 0x2 PUSH0 DUP8 PUSH20 0xFFFFFFFFFFFFFFFFFFFFFFFFFFFFFFFFFFFFFFFF AND PUSH20 0xFFFFFFFFFFFFFFFFFFFFFFFFFFFFFFFFFFFFFFFF AND DUP2 MSTORE PUSH1 0x20 ADD SWAP1 DUP2 MSTORE PUSH1 0x20 ADD PUSH0 KECCAK256 PUSH0 DUP3 DUP3 SLOAD PUSH2 0x11EE SWAP2 SWAP1 PUSH2 0x16AF JUMP JUMPDEST SWAP3 POP POP DUP2 SWAP1 SSTORE POP DUP5 PUSH20 0xFFFFFFFFFFFFFFFFFFFFFFFFFFFFFFFFFFFFFFFF AND CALLER PUSH20 0xFFFFFFFFFFFFFFFFFFFFFFFFFFFFFFFFFFFFFFFF AND PUSH32 0xDDF252AD1BE2C89B69C2B068FC378DAA952BA7F163C4A11628F55A4DF523B3EF DUP7 PUSH1 0x40 MLOAD PUSH2 0x1252 SWAP2 SWAP1 PUSH2 0x1489 JUMP JUMPDEST PUSH1 0x40 MLOAD DUP1 SWAP2 SUB SWAP1 LOG3 PUSH1 0x1 SWAP3 POP POP POP SWAP3 SWAP2 POP POP JUMP JUMPDEST PUSH0 PUSH1 0x3 PUSH0 DUP5 PUSH20 0xFFFFFFFFFFFFFFFFFFFFFFFFFFFFFFFFFFFFFFFF AND PUSH20 0xFFFFFFFFFFFFFFFFFFFFFFFFFFFFFFFFFFFFFFFF AND DUP2 MSTORE PUSH1 0x20 ADD SWAP1 DUP2 MSTORE PUSH1 0x20 ADD PUSH0 KECCAK256 PUSH0 DUP4 PUSH20 0xFFFFFFFFFFFFFFFFFFFFFFFFFFFFFFFFFFFFFFFF AND PUSH20 0xFFFFFFFFFFFFFFFFFFFFFFFFFFFFFFFFFFFFFFFF AND DUP2 MSTORE PUSH1 0x20 ADD SWAP1 DUP2 MSTORE PUSH1 0x20 ADD PUSH0 KECCAK256 SLOAD SWAP1 POP SWAP3 SWAP2 POP POP JUMP JUMPDEST PUSH0 DUP1 REVERT JUMPDEST PUSH0 PUSH20 0xFFFFFFFFFFFFFFFFFFFFFFFFFFFFFFFFFFFFFFFF DUP3 AND SWAP1 POP SWAP2 SWAP1 POP JUMP JUMPDEST PUSH0 PUSH2 0x1315 DUP3 PUSH2 0x12EC JUMP JUMPDEST SWAP1 POP SWAP2 SWAP1 POP JUMP JUMPDEST PUSH2 0x1325 DUP2 PUSH2 0x130B JUMP JUMPDEST DUP2 EQ PUSH2 0x132F JUMPI PUSH0 DUP1 REVERT JUMPDEST POP JUMP JUMPDEST PUSH0 DUP2 CALLDATALOAD SWAP1 POP PUSH2 0x1340 DUP2 PUSH2 0x131C JUMP JUMPDEST SWAP3 SWAP2 POP POP JUMP JUMPDEST PUSH0 DUP2 SWAP1 POP SWAP2 SWAP1 POP JUMP JUMPDEST PUSH2 0x1358 DUP2 PUSH2 0x1346 JUMP JUMPDEST DUP2 EQ PUSH2 0x1362 JUMPI PUSH0 DUP1 REVERT JUMPDEST POP JUMP JUMPDEST PUSH0 DUP2 CALLDATALOAD SWAP1 POP PUSH2 0x1373 DUP2 PUSH2 0x134F JUMP JUMPDEST SWAP3 SWAP2 POP POP JUMP JUMPDEST PUSH0 DUP1 PUSH1 0x40 DUP4 DUP6 SUB SLT ISZERO PUSH2 0x138F JUMPI PUSH2 0x138E PUSH2 0x12E8 JUMP JUMPDEST JUMPDEST PUSH0 PUSH2 0x139C DUP6 DUP3 DUP7 ADD PUSH2 0x1332 JUMP JUMPDEST SWAP3 POP POP PUSH1 0x20 PUSH2 0x13AD DUP6 DUP3 DUP7 ADD PUSH2 0x1365 JUMP JUMPDEST SWAP2 POP POP SWAP3 POP SWAP3 SWAP1 POP JUMP JUMPDEST PUSH0 DUP2 ISZERO ISZERO SWAP1 POP SWAP2 SWAP1 POP JUMP JUMPDEST PUSH2 0x13CB DUP2 PUSH2 0x13B7 JUMP JUMPDEST DUP3 MSTORE POP POP JUMP JUMPDEST PUSH0 PUSH1 0x20 DUP3 ADD SWAP1 POP PUSH2 0x13E4 PUSH0 DUP4 ADD DUP5 PUSH2 0x13C2 JUMP JUMPDEST SWAP3 SWAP2 POP POP JUMP JUMPDEST PUSH0 DUP2 MLOAD SWAP1 POP SWAP2 SWAP1 POP JUMP JUMPDEST PUSH0 DUP3 DUP3 MSTORE PUSH1 0x20 DUP3 ADD SWAP1 POP SWAP3 SWAP2 POP POP JUMP JUMPDEST DUP3 DUP2 DUP4 MCOPY PUSH0 DUP4 DUP4 ADD MSTORE POP POP POP JUMP JUMPDEST PUSH0 PUSH1 0x1F NOT PUSH1 0x1F DUP4 ADD AND SWAP1 POP SWAP2 SWAP1 POP JUMP JUMPDEST PUSH0 PUSH2 0x142C DUP3 PUSH2 0x13EA JUMP JUMPDEST PUSH2 0x1436 DUP2 DUP6 PUSH2 0x13F4 JUMP JUMPDEST SWAP4 POP PUSH2 0x1446 DUP2 DUP6 PUSH1 0x20 DUP7 ADD PUSH2 0x1404 JUMP JUMPDEST PUSH2 0x144F DUP2 PUSH2 0x1412 JUMP JUMPDEST DUP5 ADD SWAP2 POP POP SWAP3 SWAP2 POP POP JUMP JUMPDEST PUSH0 PUSH1 0x20 DUP3 ADD SWAP1 POP DUP2 DUP2 SUB PUSH0 DUP4 ADD MSTORE PUSH2 0x1472 DUP2 DUP5 PUSH2 0x1422 JUMP JUMPDEST SWAP1 POP SWAP3 SWAP2 POP POP JUMP JUMPDEST PUSH2 0x1483 DUP2 PUSH2 0x1346 JUMP JUMPDEST DUP3 MSTORE POP POP JUMP JUMPDEST PUSH0 PUSH1 0x20 DUP3 ADD SWAP1 POP PUSH2 0x149C PUSH0 DUP4 ADD DUP5 PUSH2 0x147A JUMP JUMPDEST SWAP3 SWAP2 POP POP JUMP JUMPDEST PUSH0 PUSH1 0x20 DUP3 DUP5 SUB SLT ISZERO PUSH2 0x14B7 JUMPI PUSH2 0x14B6 PUSH2 0x12E8 JUMP JUMPDEST JUMPDEST PUSH0 PUSH2 0x14C4 DUP5 DUP3 DUP6 ADD PUSH2 0x1332 JUMP JUMPDEST SWAP2 POP POP SWAP3 SWAP2 POP POP JUMP JUMPDEST PUSH0 DUP1 PUSH1 0x40 DUP4 DUP6 SUB SLT ISZERO PUSH2 0x14E3 JUMPI PUSH2 0x14E2 PUSH2 0x12E8 JUMP JUMPDEST JUMPDEST PUSH0 PUSH2 0x14F0 DUP6 DUP3 DUP7 ADD PUSH2 0x1332 JUMP JUMPDEST SWAP3 POP POP PUSH1 0x20 PUSH2 0x1501 DUP6 DUP3 DUP7 ADD PUSH2 0x1332 JUMP JUMPDEST SWAP2 POP POP SWAP3 POP SWAP3 SWAP1 POP JUMP JUMPDEST PUSH2 0x1514 DUP2 PUSH2 0x130B JUMP JUMPDEST DUP3 MSTORE POP POP JUMP JUMPDEST PUSH0 PUSH1 0x20 DUP3 ADD SWAP1 POP PUSH2 0x152D PUSH0 DUP4 ADD DUP5 PUSH2 0x150B JUMP JUMPDEST SWAP3 SWAP2 POP POP JUMP JUMPDEST PUSH32 0x4552524F3A204163636F756E7420646F6573206E6F74206861766520656E6F75 PUSH0 DUP3 ADD MSTORE PUSH32 0x67682062616C616E636521000000000000000000000000000000000000000000 PUSH1 0x20 DUP3 ADD MSTORE POP JUMP JUMPDEST PUSH0 PUSH2 0x158D PUSH1 0x2B DUP4 PUSH2 0x13F4 JUMP JUMPDEST SWAP2 POP PUSH2 0x1598 DUP3 PUSH2 0x1533 JUMP JUMPDEST PUSH1 0x40 DUP3 ADD SWAP1 POP SWAP2 SWAP1 POP JUMP JUMPDEST PUSH0 PUSH1 0x20 DUP3 ADD SWAP1 POP DUP2 DUP2 SUB PUSH0 DUP4 ADD MSTORE PUSH2 0x15BA DUP2 PUSH2 0x1581 JUMP JUMPDEST SWAP1 POP SWAP2 SWAP1 POP JUMP JUMPDEST PUSH32 0x4552524F3A204163636F756E7420646F6573206E6F74206861766520656E6F75 PUSH0 DUP3 ADD MSTORE PUSH32 0x676820616C6C6F77616E63652100000000000000000000000000000000000000 PUSH1 0x20 DUP3 ADD MSTORE POP JUMP JUMPDEST PUSH0 PUSH2 0x161B PUSH1 0x2D DUP4 PUSH2 0x13F4 JUMP JUMPDEST SWAP2 POP PUSH2 0x1626 DUP3 PUSH2 0x15C1 JUMP JUMPDEST PUSH1 0x40 DUP3 ADD SWAP1 POP SWAP2 SWAP1 POP JUMP JUMPDEST PUSH0 PUSH1 0x20 DUP3 ADD SWAP1 POP DUP2 DUP2 SUB PUSH0 DUP4 ADD MSTORE PUSH2 0x1648 DUP2 PUSH2 0x160F JUMP JUMPDEST SWAP1 POP SWAP2 SWAP1 POP JUMP JUMPDEST PUSH32 0x4E487B7100000000000000000000000000000000000000000000000000000000 PUSH0 MSTORE PUSH1 0x11 PUSH1 0x4 MSTORE PUSH1 0x24 PUSH0 REVERT JUMPDEST PUSH0 PUSH2 0x1686 DUP3 PUSH2 0x1346 JUMP JUMPDEST SWAP2 POP PUSH2 0x1691 DUP4 PUSH2 0x1346 JUMP JUMPDEST SWAP3 POP DUP3 DUP3 SUB SWAP1 POP DUP2 DUP2 GT ISZERO PUSH2 0x16A9 JUMPI PUSH2 0x16A8 PUSH2 0x164F JUMP JUMPDEST JUMPDEST SWAP3 SWAP2 POP POP JUMP JUMPDEST PUSH0 PUSH2 0x16B9 DUP3 PUSH2 0x1346 JUMP JUMPDEST SWAP2 POP PUSH2 0x16C4 DUP4 PUSH2 0x1346 JUMP JUMPDEST SWAP3 POP DUP3 DUP3 ADD SWAP1 POP DUP1 DUP3 GT ISZERO PUSH2 0x16DC JUMPI PUSH2 0x16DB PUSH2 0x164F JUMP JUMPDEST JUMPDEST SWAP3 SWAP2 POP POP JUMP JUMPDEST PUSH32 0x4552524F3A20496E76616C696420616464726573732100000000000000000000 PUSH0 DUP3 ADD MSTORE POP JUMP JUMPDEST PUSH0 PUSH2 0x1716 PUSH1 0x16 DUP4 PUSH2 0x13F4 JUMP JUMPDEST SWAP2 POP PUSH2 0x1721 DUP3 PUSH2 0x16E2 JUMP JUMPDEST PUSH1 0x20 DUP3 ADD SWAP1 POP SWAP2 SWAP1 POP JUMP JUMPDEST PUSH0 PUSH1 0x20 DUP3 ADD SWAP1 POP DUP2 DUP2 SUB PUSH0 DUP4 ADD MSTORE PUSH2 0x1743 DUP2 PUSH2 0x170A JUMP JUMPDEST SWAP1 POP SWAP2 SWAP1 POP JUMP INVALID LOG2 PUSH5 0x6970667358 0x22 SLT KECCAK256 SWAP2 SGT 0xBD EXTCODECOPY DUP6 SWAP4 0x2E 0xD4 0xC2 NUMBER GAS 0xEC 0xB8 DUP8 0xD5 LOG2 0x2D EXTCODECOPY 0xE5 AND RETURNDATACOPY CALLDATALOAD DUP8 0xE0 LOG2 PUSH13 0xC6EDFB809AA264736F6C634300 ADDMOD BYTE STOP CALLER "
				},
				"gasEstimates": {
					"creation": {
						"codeDepositCost": "1203200",
						"executionCost": "71916",
						"totalCost": "1275116"
					},
					"external": {
						"allowance(address,address)": "infinite",
						"allowed(address,address)": "infinite",
						"approve(address,uint256)": "infinite",
						"balanceOf(address)": "2896",
						"balances(address)": "2825",
						"burn(address,uint256)": "infinite",
						"decimals()": "370",
						"decreaseAllowance(address,uint256)": "infinite",
						"increaseAllowance(address,uint256)": "infinite",
						"mint(address,uint256)": "infinite",
						"name()": "infinite",
						"owner()": "2597",
						"symbol()": "infinite",
						"totalSupply()": "2522",
						"totalSupply_()": "2491",
						"transfer(address,uint256)": "infinite",
						"transferFrom(address,uint256)": "infinite"
					}
				},
				"methodIdentifiers": {
					"allowance(address,address)": "dd62ed3e",
					"allowed(address,address)": "5c658165",
					"approve(address,uint256)": "095ea7b3",
					"balanceOf(address)": "70a08231",
					"balances(address)": "27e235e3",
					"burn(address,uint256)": "9dc29fac",
					"decimals()": "313ce567",
					"decreaseAllowance(address,uint256)": "a457c2d7",
					"increaseAllowance(address,uint256)": "39509351",
					"mint(address,uint256)": "40c10f19",
					"name()": "06fdde03",
					"owner()": "8da5cb5b",
					"symbol()": "95d89b41",
					"totalSupply()": "18160ddd",
					"totalSupply_()": "324536eb",
					"transfer(address,uint256)": "a9059cbb",
					"transferFrom(address,uint256)": "01c6adc3"
				}
			},
			"storageLayout": {
				"storage": [
					{
						"astId": 16,
						"contract": "contracts/GHBToken.sol:GHBToken",
						"label": "totalSupply_",
						"offset": 0,
						"slot": "0",
						"type": "t_uint256"
					},
					{
						"astId": 18,
						"contract": "contracts/GHBToken.sol:GHBToken",
						"label": "owner",
						"offset": 0,
						"slot": "1",
						"type": "t_address"
					},
					{
						"astId": 22,
						"contract": "contracts/GHBToken.sol:GHBToken",
						"label": "balances",
						"offset": 0,
						"slot": "2",
						"type": "t_mapping(t_address,t_uint256)"
					},
					{
						"astId": 28,
						"contract": "contracts/GHBToken.sol:GHBToken",
						"label": "allowed",
						"offset": 0,
						"slot": "3",
						"type": "t_mapping(t_address,t_mapping(t_address,t_uint256))"
					}
				],
				"types": {
					"t_address": {
						"encoding": "inplace",
						"label": "address",
						"numberOfBytes": "20"
					},
					"t_mapping(t_address,t_mapping(t_address,t_uint256))": {
						"encoding": "mapping",
						"key": "t_address",
						"label": "mapping(address => mapping(address => uint256))",
						"numberOfBytes": "32",
						"value": "t_mapping(t_address,t_uint256)"
					},
					"t_mapping(t_address,t_uint256)": {
						"encoding": "mapping",
						"key": "t_address",
						"label": "mapping(address => uint256)",
						"numberOfBytes": "32",
						"value": "t_uint256"
					},
					"t_uint256": {
						"encoding": "inplace",
						"label": "uint256",
						"numberOfBytes": "32"
					}
				}
			},
			"userdoc": {
				"kind": "user",
				"methods": {},
				"version": 1
			}
		}
	}
}