{
	"contracts/HelloWorld.sol": {
		"TicketToken": {
			"abi": [
				{
					"inputs": [
						{
							"internalType": "uint256",
							"name": "_eventDate",
							"type": "uint256"
						},
						{
							"internalType": "uint256",
							"name": "_totalTickets",
							"type": "uint256"
						},
						{
							"internalType": "uint256",
							"name": "_ticketPrice",
							"type": "uint256"
						}
					],
					"stateMutability": "nonpayable",
					"type": "constructor"
				},
				{
					"anonymous": false,
					"inputs": [
						{
							"indexed": true,
							"internalType": "uint256",
							"name": "ticketId",
							"type": "uint256"
						},
						{
							"indexed": true,
							"internalType": "address",
							"name": "to",
							"type": "address"
						},
						{
							"indexed": false,
							"internalType": "uint256",
							"name": "price",
							"type": "uint256"
						}
					],
					"name": "TicketIssued",
					"type": "event"
				},
				{
					"anonymous": false,
					"inputs": [
						{
							"indexed": true,
							"internalType": "uint256",
							"name": "ticketId",
							"type": "uint256"
						},
						{
							"indexed": true,
							"internalType": "address",
							"name": "by",
							"type": "address"
						}
					],
					"name": "TicketRedeemed",
					"type": "event"
				},
				{
					"anonymous": false,
					"inputs": [
						{
							"indexed": true,
							"internalType": "uint256",
							"name": "ticketId",
							"type": "uint256"
						},
						{
							"indexed": true,
							"internalType": "address",
							"name": "to",
							"type": "address"
						},
						{
							"indexed": false,
							"internalType": "uint256",
							"name": "refundAmount",
							"type": "uint256"
						}
					],
					"name": "TicketRefunded",
					"type": "event"
				},
				{
					"inputs": [],
					"name": "eventDate",
					"outputs": [
						{
							"internalType": "uint256",
							"name": "",
							"type": "uint256"
						}
					],
					"stateMutability": "view",
					"type": "function"
				},
				{
					"inputs": [],
					"name": "organizer",
					"outputs": [
						{
							"internalType": "address",
							"name": "",
							"type": "address"
						}
					],
					"stateMutability": "view",
					"type": "function"
				},
				{
					"inputs": [],
					"name": "purchaseTicket",
					"outputs": [],
					"stateMutability": "payable",
					"type": "function"
				},
				{
					"inputs": [
						{
							"internalType": "uint256",
							"name": "_ticketId",
							"type": "uint256"
						}
					],
					"name": "redeemTicket",
					"outputs": [],
					"stateMutability": "nonpayable",
					"type": "function"
				},
				{
					"inputs": [],
					"name": "refundPercentage",
					"outputs": [
						{
							"internalType": "uint256",
							"name": "",
							"type": "uint256"
						}
					],
					"stateMutability": "view",
					"type": "function"
				},
				{
					"inputs": [
						{
							"internalType": "uint256",
							"name": "_ticketId",
							"type": "uint256"
						}
					],
					"name": "refundUnusedTicket",
					"outputs": [],
					"stateMutability": "nonpayable",
					"type": "function"
				},
				{
					"inputs": [
						{
							"internalType": "uint256",
							"name": "",
							"type": "uint256"
						}
					],
					"name": "ticketOwners",
					"outputs": [
						{
							"internalType": "address",
							"name": "",
							"type": "address"
						}
					],
					"stateMutability": "view",
					"type": "function"
				},
				{
					"inputs": [],
					"name": "ticketPrice",
					"outputs": [
						{
							"internalType": "uint256",
							"name": "",
							"type": "uint256"
						}
					],
					"stateMutability": "view",
					"type": "function"
				},
				{
					"inputs": [
						{
							"internalType": "uint256",
							"name": "",
							"type": "uint256"
						}
					],
					"name": "ticketRedeemed",
					"outputs": [
						{
							"internalType": "bool",
							"name": "",
							"type": "bool"
						}
					],
					"stateMutability": "view",
					"type": "function"
				},
				{
					"inputs": [],
					"name": "totalTicketsAvailable",
					"outputs": [
						{
							"internalType": "uint256",
							"name": "",
							"type": "uint256"
						}
					],
					"stateMutability": "view",
					"type": "function"
				},
				{
					"inputs": [],
					"name": "totalTicketsSold",
					"outputs": [
						{
							"internalType": "uint256",
							"name": "",
							"type": "uint256"
						}
					],
					"stateMutability": "view",
					"type": "function"
				}
			],
			"devdoc": {
				"kind": "dev",
				"methods": {},
				"version": 1
			},
			"evm": {
				"assembly": "    /* \"contracts/HelloWorld.sol\":57:3247  contract TicketToken {... */\n  mstore(0x40, 0x80)\n    /* \"contracts/HelloWorld.sol\":179:181  75 */\n  0x4b\n    /* \"contracts/HelloWorld.sol\":145:181  uint256 public refundPercentage = 75 */\n  0x02\n  sstore\n    /* \"contracts/HelloWorld.sol\":998:1229  constructor(uint256 _eventDate, uint256 _totalTickets, uint256 _ticketPrice) {... */\n  callvalue\n  dup1\n  iszero\n  tag_1\n  jumpi\n  0x00\n  dup1\n  revert\ntag_1:\n  pop\n  mload(0x40)\n  sub(codesize, bytecodeSize)\n  dup1\n  bytecodeSize\n  dup4\n  codecopy\n  dup2\n  dup2\n  add\n  0x40\n  mstore\n  dup2\n  add\n  swap1\n  tag_2\n  swap2\n  swap1\n  tag_3\n  jump\t// in\ntag_2:\n    /* \"contracts/HelloWorld.sol\":1097:1107  msg.sender */\n  caller\n    /* \"contracts/HelloWorld.sol\":1085:1094  organizer */\n  0x00\n  dup1\n    /* \"contracts/HelloWorld.sol\":1085:1107  organizer = msg.sender */\n  0x0100\n  exp\n  dup2\n  sload\n  dup2\n  0xffffffffffffffffffffffffffffffffffffffff\n  mul\n  not\n  and\n  swap1\n  dup4\n  0xffffffffffffffffffffffffffffffffffffffff\n  and\n  mul\n  or\n  swap1\n  sstore\n  pop\n    /* \"contracts/HelloWorld.sol\":1129:1139  _eventDate */\n  dup3\n    /* \"contracts/HelloWorld.sol\":1117:1126  eventDate */\n  0x01\n    /* \"contracts/HelloWorld.sol\":1117:1139  eventDate = _eventDate */\n  dup2\n  swap1\n  sstore\n  pop\n    /* \"contracts/HelloWorld.sol\":1173:1186  _totalTickets */\n  dup2\n    /* \"contracts/HelloWorld.sol\":1149:1170  totalTicketsAvailable */\n  0x04\n    /* \"contracts/HelloWorld.sol\":1149:1186  totalTicketsAvailable = _totalTickets */\n  dup2\n  swap1\n  sstore\n  pop\n    /* \"contracts/HelloWorld.sol\":1210:1222  _ticketPrice */\n  dup1\n    /* \"contracts/HelloWorld.sol\":1196:1207  ticketPrice */\n  0x05\n    /* \"contracts/HelloWorld.sol\":1196:1222  ticketPrice = _ticketPrice */\n  dup2\n  swap1\n  sstore\n  pop\n    /* \"contracts/HelloWorld.sol\":998:1229  constructor(uint256 _eventDate, uint256 _totalTickets, uint256 _ticketPrice) {... */\n  pop\n  pop\n  pop\n    /* \"contracts/HelloWorld.sol\":57:3247  contract TicketToken {... */\n  jump(tag_6)\n    /* \"#utility.yul\":88:205   */\ntag_8:\n    /* \"#utility.yul\":197:198   */\n  0x00\n    /* \"#utility.yul\":194:195   */\n  dup1\n    /* \"#utility.yul\":187:199   */\n  revert\n    /* \"#utility.yul\":334:411   */\ntag_10:\n    /* \"#utility.yul\":371:378   */\n  0x00\n    /* \"#utility.yul\":400:405   */\n  dup2\n    /* \"#utility.yul\":389:405   */\n  swap1\n  pop\n    /* \"#utility.yul\":334:411   */\n  swap2\n  swap1\n  pop\n  jump\t// out\n    /* \"#utility.yul\":417:539   */\ntag_11:\n    /* \"#utility.yul\":490:514   */\n  tag_19\n    /* \"#utility.yul\":508:513   */\n  dup2\n    /* \"#utility.yul\":490:514   */\n  tag_10\n  jump\t// in\ntag_19:\n    /* \"#utility.yul\":483:488   */\n  dup2\n    /* \"#utility.yul\":480:515   */\n  eq\n    /* \"#utility.yul\":470:533   */\n  tag_20\n  jumpi\n    /* \"#utility.yul\":529:530   */\n  0x00\n    /* \"#utility.yul\":526:527   */\n  dup1\n    /* \"#utility.yul\":519:531   */\n  revert\n    /* \"#utility.yul\":470:533   */\ntag_20:\n    /* \"#utility.yul\":417:539   */\n  pop\n  jump\t// out\n    /* \"#utility.yul\":545:688   */\ntag_12:\n    /* \"#utility.yul\":602:607   */\n  0x00\n    /* \"#utility.yul\":633:639   */\n  dup2\n    /* \"#utility.yul\":627:640   */\n  mload\n    /* \"#utility.yul\":618:640   */\n  swap1\n  pop\n    /* \"#utility.yul\":649:682   */\n  tag_22\n    /* \"#utility.yul\":676:681   */\n  dup2\n    /* \"#utility.yul\":649:682   */\n  tag_11\n  jump\t// in\ntag_22:\n    /* \"#utility.yul\":545:688   */\n  swap3\n  swap2\n  pop\n  pop\n  jump\t// out\n    /* \"#utility.yul\":694:1357   */\ntag_3:\n    /* \"#utility.yul\":782:788   */\n  0x00\n    /* \"#utility.yul\":790:796   */\n  dup1\n    /* \"#utility.yul\":798:804   */\n  0x00\n    /* \"#utility.yul\":847:849   */\n  0x60\n    /* \"#utility.yul\":835:844   */\n  dup5\n    /* \"#utility.yul\":826:833   */\n  dup7\n    /* \"#utility.yul\":822:845   */\n  sub\n    /* \"#utility.yul\":818:850   */\n  slt\n    /* \"#utility.yul\":815:934   */\n  iszero\n  tag_24\n  jumpi\n    /* \"#utility.yul\":853:932   */\n  tag_25\n  tag_8\n  jump\t// in\ntag_25:\n    /* \"#utility.yul\":815:934   */\ntag_24:\n    /* \"#utility.yul\":973:974   */\n  0x00\n    /* \"#utility.yul\":998:1062   */\n  tag_26\n    /* \"#utility.yul\":1054:1061   */\n  dup7\n    /* \"#utility.yul\":1045:1051   */\n  dup3\n    /* \"#utility.yul\":1034:1043   */\n  dup8\n    /* \"#utility.yul\":1030:1052   */\n  add\n    /* \"#utility.yul\":998:1062   */\n  tag_12\n  jump\t// in\ntag_26:\n    /* \"#utility.yul\":988:1062   */\n  swap4\n  pop\n    /* \"#utility.yul\":944:1072   */\n  pop\n    /* \"#utility.yul\":1111:1113   */\n  0x20\n    /* \"#utility.yul\":1137:1201   */\n  tag_27\n    /* \"#utility.yul\":1193:1200   */\n  dup7\n    /* \"#utility.yul\":1184:1190   */\n  dup3\n    /* \"#utility.yul\":1173:1182   */\n  dup8\n    /* \"#utility.yul\":1169:1191   */\n  add\n    /* \"#utility.yul\":1137:1201   */\n  tag_12\n  jump\t// in\ntag_27:\n    /* \"#utility.yul\":1127:1201   */\n  swap3\n  pop\n    /* \"#utility.yul\":1082:1211   */\n  pop\n    /* \"#utility.yul\":1250:1252   */\n  0x40\n    /* \"#utility.yul\":1276:1340   */\n  tag_28\n    /* \"#utility.yul\":1332:1339   */\n  dup7\n    /* \"#utility.yul\":1323:1329   */\n  dup3\n    /* \"#utility.yul\":1312:1321   */\n  dup8\n    /* \"#utility.yul\":1308:1330   */\n  add\n    /* \"#utility.yul\":1276:1340   */\n  tag_12\n  jump\t// in\ntag_28:\n    /* \"#utility.yul\":1266:1340   */\n  swap2\n  pop\n    /* \"#utility.yul\":1221:1350   */\n  pop\n    /* \"#utility.yul\":694:1357   */\n  swap3\n  pop\n  swap3\n  pop\n  swap3\n  jump\t// out\n    /* \"contracts/HelloWorld.sol\":57:3247  contract TicketToken {... */\ntag_6:\n  dataSize(sub_0)\n  dup1\n  dataOffset(sub_0)\n  0x00\n  codecopy\n  0x00\n  return\nstop\n\nsub_0: assembly {\n        /* \"contracts/HelloWorld.sol\":57:3247  contract TicketToken {... */\n      mstore(0x40, 0x80)\n      jumpi(tag_1, lt(calldatasize, 0x04))\n      shr(0xe0, calldataload(0x00))\n      dup1\n      0x4bfbe5df\n      gt\n      tag_13\n      jumpi\n      dup1\n      0x4bfbe5df\n      eq\n      tag_7\n      jumpi\n      dup1\n      0x5e52584d\n      eq\n      tag_8\n      jumpi\n      dup1\n      0x61203265\n      eq\n      tag_9\n      jumpi\n      dup1\n      0x6cb471fe\n      eq\n      tag_10\n      jumpi\n      dup1\n      0xd92d62ac\n      eq\n      tag_11\n      jumpi\n      dup1\n      0xeb2dbcf6\n      eq\n      tag_12\n      jumpi\n      jump(tag_1)\n    tag_13:\n      dup1\n      0x1209b1f6\n      eq\n      tag_2\n      jumpi\n      dup1\n      0x15f59d7f\n      eq\n      tag_3\n      jumpi\n      dup1\n      0x21846c76\n      eq\n      tag_4\n      jumpi\n      dup1\n      0x34701db8\n      eq\n      tag_5\n      jumpi\n      dup1\n      0x4b77ae14\n      eq\n      tag_6\n      jumpi\n    tag_1:\n      0x00\n      dup1\n      revert\n        /* \"contracts/HelloWorld.sol\":310:336  uint256 public ticketPrice */\n    tag_2:\n      callvalue\n      dup1\n      iszero\n      tag_14\n      jumpi\n      0x00\n      dup1\n      revert\n    tag_14:\n      pop\n      tag_15\n      tag_16\n      jump\t// in\n    tag_15:\n      mload(0x40)\n      tag_17\n      swap2\n      swap1\n      tag_18\n      jump\t// in\n    tag_17:\n      mload(0x40)\n      dup1\n      swap2\n      sub\n      swap1\n      return\n        /* \"contracts/HelloWorld.sol\":1765:2307  function redeemTicket(uint256 _ticketId) external eventNotPassed {... */\n    tag_3:\n      callvalue\n      dup1\n      iszero\n      tag_19\n      jumpi\n      0x00\n      dup1\n      revert\n    tag_19:\n      pop\n      tag_20\n      0x04\n      dup1\n      calldatasize\n      sub\n      dup2\n      add\n      swap1\n      tag_21\n      swap2\n      swap1\n      tag_22\n      jump\t// in\n    tag_21:\n      tag_23\n      jump\t// in\n    tag_20:\n      stop\n        /* \"contracts/HelloWorld.sol\":1235:1759  function purchaseTicket() external payable eventNotPassed {... */\n    tag_4:\n      tag_24\n      tag_25\n      jump\t// in\n    tag_24:\n      stop\n        /* \"contracts/HelloWorld.sol\":231:262  uint256 public totalTicketsSold */\n    tag_5:\n      callvalue\n      dup1\n      iszero\n      tag_26\n      jumpi\n      0x00\n      dup1\n      revert\n    tag_26:\n      pop\n      tag_27\n      tag_28\n      jump\t// in\n    tag_27:\n      mload(0x40)\n      tag_29\n      swap2\n      swap1\n      tag_18\n      jump\t// in\n    tag_29:\n      mload(0x40)\n      dup1\n      swap2\n      sub\n      swap1\n      return\n        /* \"contracts/HelloWorld.sol\":145:181  uint256 public refundPercentage = 75 */\n    tag_6:\n      callvalue\n      dup1\n      iszero\n      tag_30\n      jumpi\n      0x00\n      dup1\n      revert\n    tag_30:\n      pop\n      tag_31\n      tag_32\n      jump\t// in\n    tag_31:\n      mload(0x40)\n      tag_33\n      swap2\n      swap1\n      tag_18\n      jump\t// in\n    tag_33:\n      mload(0x40)\n      dup1\n      swap2\n      sub\n      swap1\n      return\n        /* \"contracts/HelloWorld.sol\":115:139  uint256 public eventDate */\n    tag_7:\n      callvalue\n      dup1\n      iszero\n      tag_34\n      jumpi\n      0x00\n      dup1\n      revert\n    tag_34:\n      pop\n      tag_35\n      tag_36\n      jump\t// in\n    tag_35:\n      mload(0x40)\n      tag_37\n      swap2\n      swap1\n      tag_18\n      jump\t// in\n    tag_37:\n      mload(0x40)\n      dup1\n      swap2\n      sub\n      swap1\n      return\n        /* \"contracts/HelloWorld.sol\":2313:3244  function refundUnusedTicket(uint256 _ticketId) external {... */\n    tag_8:\n      callvalue\n      dup1\n      iszero\n      tag_38\n      jumpi\n      0x00\n      dup1\n      revert\n    tag_38:\n      pop\n      tag_39\n      0x04\n      dup1\n      calldatasize\n      sub\n      dup2\n      add\n      swap1\n      tag_40\n      swap2\n      swap1\n      tag_22\n      jump\t// in\n    tag_40:\n      tag_41\n      jump\t// in\n    tag_39:\n      stop\n        /* \"contracts/HelloWorld.sol\":85:109  address public organizer */\n    tag_9:\n      callvalue\n      dup1\n      iszero\n      tag_42\n      jumpi\n      0x00\n      dup1\n      revert\n    tag_42:\n      pop\n      tag_43\n      tag_44\n      jump\t// in\n    tag_43:\n      mload(0x40)\n      tag_45\n      swap2\n      swap1\n      tag_46\n      jump\t// in\n    tag_45:\n      mload(0x40)\n      dup1\n      swap2\n      sub\n      swap1\n      return\n        /* \"contracts/HelloWorld.sol\":268:304  uint256 public totalTicketsAvailable */\n    tag_10:\n      callvalue\n      dup1\n      iszero\n      tag_47\n      jumpi\n      0x00\n      dup1\n      revert\n    tag_47:\n      pop\n      tag_48\n      tag_49\n      jump\t// in\n    tag_48:\n      mload(0x40)\n      tag_50\n      swap2\n      swap1\n      tag_18\n      jump\t// in\n    tag_50:\n      mload(0x40)\n      dup1\n      swap2\n      sub\n      swap1\n      return\n        /* \"contracts/HelloWorld.sol\":427:474  mapping (uint256 => bool) public ticketRedeemed */\n    tag_11:\n      callvalue\n      dup1\n      iszero\n      tag_51\n      jumpi\n      0x00\n      dup1\n      revert\n    tag_51:\n      pop\n      tag_52\n      0x04\n      dup1\n      calldatasize\n      sub\n      dup2\n      add\n      swap1\n      tag_53\n      swap2\n      swap1\n      tag_22\n      jump\t// in\n    tag_53:\n      tag_54\n      jump\t// in\n    tag_52:\n      mload(0x40)\n      tag_55\n      swap2\n      swap1\n      tag_56\n      jump\t// in\n    tag_55:\n      mload(0x40)\n      dup1\n      swap2\n      sub\n      swap1\n      return\n        /* \"contracts/HelloWorld.sol\":373:421  mapping (uint256 => address) public ticketOwners */\n    tag_12:\n      callvalue\n      dup1\n      iszero\n      tag_57\n      jumpi\n      0x00\n      dup1\n      revert\n    tag_57:\n      pop\n      tag_58\n      0x04\n      dup1\n      calldatasize\n      sub\n      dup2\n      add\n      swap1\n      tag_59\n      swap2\n      swap1\n      tag_22\n      jump\t// in\n    tag_59:\n      tag_60\n      jump\t// in\n    tag_58:\n      mload(0x40)\n      tag_61\n      swap2\n      swap1\n      tag_46\n      jump\t// in\n    tag_61:\n      mload(0x40)\n      dup1\n      swap2\n      sub\n      swap1\n      return\n        /* \"contracts/HelloWorld.sol\":310:336  uint256 public ticketPrice */\n    tag_16:\n      sload(0x05)\n      dup2\n      jump\t// out\n        /* \"contracts/HelloWorld.sol\":1765:2307  function redeemTicket(uint256 _ticketId) external eventNotPassed {... */\n    tag_23:\n        /* \"contracts/HelloWorld.sol\":931:940  eventDate */\n      sload(0x01)\n        /* \"contracts/HelloWorld.sol\":913:928  block.timestamp */\n      timestamp\n        /* \"contracts/HelloWorld.sol\":913:940  block.timestamp < eventDate */\n      lt\n        /* \"contracts/HelloWorld.sol\":905:974  require(block.timestamp < eventDate, \"Event date has already passed\") */\n      tag_63\n      jumpi\n      mload(0x40)\n      0x08c379a000000000000000000000000000000000000000000000000000000000\n      dup2\n      mstore\n      0x04\n      add\n      tag_64\n      swap1\n      tag_65\n      jump\t// in\n    tag_64:\n      mload(0x40)\n      dup1\n      swap2\n      sub\n      swap1\n      revert\n    tag_63:\n        /* \"contracts/HelloWorld.sol\":1862:1874  ticketOwners */\n      0x07\n        /* \"contracts/HelloWorld.sol\":1862:1885  ticketOwners[_ticketId] */\n      0x00\n        /* \"contracts/HelloWorld.sol\":1875:1884  _ticketId */\n      dup3\n        /* \"contracts/HelloWorld.sol\":1862:1885  ticketOwners[_ticketId] */\n      dup2\n      mstore\n      0x20\n      add\n      swap1\n      dup2\n      mstore\n      0x20\n      add\n      0x00\n      keccak256\n      0x00\n      swap1\n      sload\n      swap1\n      0x0100\n      exp\n      swap1\n      div\n      0xffffffffffffffffffffffffffffffffffffffff\n      and\n        /* \"contracts/HelloWorld.sol\":1848:1885  msg.sender == ticketOwners[_ticketId] */\n      0xffffffffffffffffffffffffffffffffffffffff\n      and\n        /* \"contracts/HelloWorld.sol\":1848:1858  msg.sender */\n      caller\n        /* \"contracts/HelloWorld.sol\":1848:1885  msg.sender == ticketOwners[_ticketId] */\n      0xffffffffffffffffffffffffffffffffffffffff\n      and\n      eq\n        /* \"contracts/HelloWorld.sol\":1840:1926  require(msg.sender == ticketOwners[_ticketId], \"You are not the owner of this ticket\") */\n      tag_67\n      jumpi\n      mload(0x40)\n      0x08c379a000000000000000000000000000000000000000000000000000000000\n      dup2\n      mstore\n      0x04\n      add\n      tag_68\n      swap1\n      tag_69\n      jump\t// in\n    tag_68:\n      mload(0x40)\n      dup1\n      swap2\n      sub\n      swap1\n      revert\n    tag_67:\n        /* \"contracts/HelloWorld.sol\":1945:1959  ticketRedeemed */\n      0x08\n        /* \"contracts/HelloWorld.sol\":1945:1970  ticketRedeemed[_ticketId] */\n      0x00\n        /* \"contracts/HelloWorld.sol\":1960:1969  _ticketId */\n      dup3\n        /* \"contracts/HelloWorld.sol\":1945:1970  ticketRedeemed[_ticketId] */\n      dup2\n      mstore\n      0x20\n      add\n      swap1\n      dup2\n      mstore\n      0x20\n      add\n      0x00\n      keccak256\n      0x00\n      swap1\n      sload\n      swap1\n      0x0100\n      exp\n      swap1\n      div\n      0xff\n      and\n        /* \"contracts/HelloWorld.sol\":1944:1970  !ticketRedeemed[_ticketId] */\n      iszero\n        /* \"contracts/HelloWorld.sol\":1936:2012  require(!ticketRedeemed[_ticketId], \"This ticket has already been redeemed\") */\n      tag_70\n      jumpi\n      mload(0x40)\n      0x08c379a000000000000000000000000000000000000000000000000000000000\n      dup2\n      mstore\n      0x04\n      add\n      tag_71\n      swap1\n      tag_72\n      jump\t// in\n    tag_71:\n      mload(0x40)\n      dup1\n      swap2\n      sub\n      swap1\n      revert\n    tag_70:\n        /* \"contracts/HelloWorld.sol\":2095:2099  true */\n      0x01\n        /* \"contracts/HelloWorld.sol\":2067:2081  ticketRedeemed */\n      0x08\n        /* \"contracts/HelloWorld.sol\":2067:2092  ticketRedeemed[_ticketId] */\n      0x00\n        /* \"contracts/HelloWorld.sol\":2082:2091  _ticketId */\n      dup4\n        /* \"contracts/HelloWorld.sol\":2067:2092  ticketRedeemed[_ticketId] */\n      dup2\n      mstore\n      0x20\n      add\n      swap1\n      dup2\n      mstore\n      0x20\n      add\n      0x00\n      keccak256\n      0x00\n        /* \"contracts/HelloWorld.sol\":2067:2099  ticketRedeemed[_ticketId] = true */\n      0x0100\n      exp\n      dup2\n      sload\n      dup2\n      0xff\n      mul\n      not\n      and\n      swap1\n      dup4\n      iszero\n      iszero\n      mul\n      or\n      swap1\n      sstore\n      pop\n        /* \"contracts/HelloWorld.sol\":2165:2174  organizer */\n      0x00\n      dup1\n      sload\n      swap1\n      0x0100\n      exp\n      swap1\n      div\n      0xffffffffffffffffffffffffffffffffffffffff\n      and\n        /* \"contracts/HelloWorld.sol\":2157:2184  payable(organizer).transfer */\n      0xffffffffffffffffffffffffffffffffffffffff\n      and\n        /* \"contracts/HelloWorld.sol\":2157:2197  payable(organizer).transfer(ticketPrice) */\n      0x08fc\n        /* \"contracts/HelloWorld.sol\":2185:2196  ticketPrice */\n      sload(0x05)\n        /* \"contracts/HelloWorld.sol\":2157:2197  payable(organizer).transfer(ticketPrice) */\n      swap1\n      dup2\n      iszero\n      mul\n      swap1\n      mload(0x40)\n      0x00\n      mload(0x40)\n      dup1\n      dup4\n      sub\n      dup2\n      dup6\n      dup9\n      dup9\n      call\n      swap4\n      pop\n      pop\n      pop\n      pop\n      iszero\n      dup1\n      iszero\n      tag_74\n      jumpi\n      returndatasize\n      0x00\n      dup1\n      returndatacopy\n      revert(0x00, returndatasize)\n    tag_74:\n      pop\n        /* \"contracts/HelloWorld.sol\":2289:2299  msg.sender */\n      caller\n        /* \"contracts/HelloWorld.sol\":2263:2300  TicketRedeemed(_ticketId, msg.sender) */\n      0xffffffffffffffffffffffffffffffffffffffff\n      and\n        /* \"contracts/HelloWorld.sol\":2278:2287  _ticketId */\n      dup2\n        /* \"contracts/HelloWorld.sol\":2263:2300  TicketRedeemed(_ticketId, msg.sender) */\n      0x716bb19bdc2c35c51f08204334d6e0362bbe5428bbda94d186a1f2c8fa87b10c\n      mload(0x40)\n      mload(0x40)\n      dup1\n      swap2\n      sub\n      swap1\n      log3\n        /* \"contracts/HelloWorld.sol\":1765:2307  function redeemTicket(uint256 _ticketId) external eventNotPassed {... */\n      pop\n      jump\t// out\n        /* \"contracts/HelloWorld.sol\":1235:1759  function purchaseTicket() external payable eventNotPassed {... */\n    tag_25:\n        /* \"contracts/HelloWorld.sol\":931:940  eventDate */\n      sload(0x01)\n        /* \"contracts/HelloWorld.sol\":913:928  block.timestamp */\n      timestamp\n        /* \"contracts/HelloWorld.sol\":913:940  block.timestamp < eventDate */\n      lt\n        /* \"contracts/HelloWorld.sol\":905:974  require(block.timestamp < eventDate, \"Event date has already passed\") */\n      tag_76\n      jumpi\n      mload(0x40)\n      0x08c379a000000000000000000000000000000000000000000000000000000000\n      dup2\n      mstore\n      0x04\n      add\n      tag_77\n      swap1\n      tag_65\n      jump\t// in\n    tag_77:\n      mload(0x40)\n      dup1\n      swap2\n      sub\n      swap1\n      revert\n    tag_76:\n        /* \"contracts/HelloWorld.sol\":1330:1351  totalTicketsAvailable */\n      sload(0x04)\n        /* \"contracts/HelloWorld.sol\":1311:1327  totalTicketsSold */\n      sload(0x03)\n        /* \"contracts/HelloWorld.sol\":1311:1351  totalTicketsSold < totalTicketsAvailable */\n      lt\n        /* \"contracts/HelloWorld.sol\":1303:1384  require(totalTicketsSold < totalTicketsAvailable, \"All tickets have been issued\") */\n      tag_79\n      jumpi\n      mload(0x40)\n      0x08c379a000000000000000000000000000000000000000000000000000000000\n      dup2\n      mstore\n      0x04\n      add\n      tag_80\n      swap1\n      tag_81\n      jump\t// in\n    tag_80:\n      mload(0x40)\n      dup1\n      swap2\n      sub\n      swap1\n      revert\n    tag_79:\n        /* \"contracts/HelloWorld.sol\":1415:1426  ticketPrice */\n      sload(0x05)\n        /* \"contracts/HelloWorld.sol\":1402:1411  msg.value */\n      callvalue\n        /* \"contracts/HelloWorld.sol\":1402:1426  msg.value >= ticketPrice */\n      lt\n      iszero\n        /* \"contracts/HelloWorld.sol\":1394:1454  require(msg.value >= ticketPrice, \"Insufficient funds sent\") */\n      tag_82\n      jumpi\n      mload(0x40)\n      0x08c379a000000000000000000000000000000000000000000000000000000000\n      dup2\n      mstore\n      0x04\n      add\n      tag_83\n      swap1\n      tag_84\n      jump\t// in\n    tag_83:\n      mload(0x40)\n      dup1\n      swap2\n      sub\n      swap1\n      revert\n    tag_82:\n        /* \"contracts/HelloWorld.sol\":1536:1546  msg.sender */\n      caller\n        /* \"contracts/HelloWorld.sol\":1511:1523  ticketOwners */\n      0x07\n        /* \"contracts/HelloWorld.sol\":1511:1533  ticketOwners[ticketId] */\n      0x00\n        /* \"contracts/HelloWorld.sol\":1524:1532  ticketId */\n      sload(0x06)\n        /* \"contracts/HelloWorld.sol\":1511:1533  ticketOwners[ticketId] */\n      dup2\n      mstore\n      0x20\n      add\n      swap1\n      dup2\n      mstore\n      0x20\n      add\n      0x00\n      keccak256\n      0x00\n        /* \"contracts/HelloWorld.sol\":1511:1546  ticketOwners[ticketId] = msg.sender */\n      0x0100\n      exp\n      dup2\n      sload\n      dup2\n      0xffffffffffffffffffffffffffffffffffffffff\n      mul\n      not\n      and\n      swap1\n      dup4\n      0xffffffffffffffffffffffffffffffffffffffff\n      and\n      mul\n      or\n      swap1\n      sstore\n      pop\n        /* \"contracts/HelloWorld.sol\":1556:1572  totalTicketsSold */\n      0x03\n      0x00\n        /* \"contracts/HelloWorld.sol\":1556:1574  totalTicketsSold++ */\n      dup2\n      sload\n      dup1\n      swap3\n      swap2\n      swap1\n      tag_85\n      swap1\n      tag_86\n      jump\t// in\n    tag_85:\n      swap2\n      swap1\n      pop\n      sstore\n      pop\n        /* \"contracts/HelloWorld.sol\":1662:1672  msg.sender */\n      caller\n        /* \"contracts/HelloWorld.sol\":1639:1684  TicketIssued(ticketId, msg.sender, msg.value) */\n      0xffffffffffffffffffffffffffffffffffffffff\n      and\n        /* \"contracts/HelloWorld.sol\":1652:1660  ticketId */\n      sload(0x06)\n        /* \"contracts/HelloWorld.sol\":1639:1684  TicketIssued(ticketId, msg.sender, msg.value) */\n      0x885aea068dfc8d64b3da0c1131d16d6e26947c043fb441c446de14a01087540d\n        /* \"contracts/HelloWorld.sol\":1674:1683  msg.value */\n      callvalue\n        /* \"contracts/HelloWorld.sol\":1639:1684  TicketIssued(ticketId, msg.sender, msg.value) */\n      mload(0x40)\n      tag_87\n      swap2\n      swap1\n      tag_18\n      jump\t// in\n    tag_87:\n      mload(0x40)\n      dup1\n      swap2\n      sub\n      swap1\n      log3\n        /* \"contracts/HelloWorld.sol\":1742:1750  ticketId */\n      0x06\n      0x00\n        /* \"contracts/HelloWorld.sol\":1742:1752  ticketId++ */\n      dup2\n      sload\n      dup1\n      swap3\n      swap2\n      swap1\n      tag_88\n      swap1\n      tag_86\n      jump\t// in\n    tag_88:\n      swap2\n      swap1\n      pop\n      sstore\n      pop\n        /* \"contracts/HelloWorld.sol\":1235:1759  function purchaseTicket() external payable eventNotPassed {... */\n      jump\t// out\n        /* \"contracts/HelloWorld.sol\":231:262  uint256 public totalTicketsSold */\n    tag_28:\n      sload(0x03)\n      dup2\n      jump\t// out\n        /* \"contracts/HelloWorld.sol\":145:181  uint256 public refundPercentage = 75 */\n    tag_32:\n      sload(0x02)\n      dup2\n      jump\t// out\n        /* \"contracts/HelloWorld.sol\":115:139  uint256 public eventDate */\n    tag_36:\n      sload(0x01)\n      dup2\n      jump\t// out\n        /* \"contracts/HelloWorld.sol\":2313:3244  function refundUnusedTicket(uint256 _ticketId) external {... */\n    tag_41:\n        /* \"contracts/HelloWorld.sol\":2401:2413  ticketOwners */\n      0x07\n        /* \"contracts/HelloWorld.sol\":2401:2424  ticketOwners[_ticketId] */\n      0x00\n        /* \"contracts/HelloWorld.sol\":2414:2423  _ticketId */\n      dup3\n        /* \"contracts/HelloWorld.sol\":2401:2424  ticketOwners[_ticketId] */\n      dup2\n      mstore\n      0x20\n      add\n      swap1\n      dup2\n      mstore\n      0x20\n      add\n      0x00\n      keccak256\n      0x00\n      swap1\n      sload\n      swap1\n      0x0100\n      exp\n      swap1\n      div\n      0xffffffffffffffffffffffffffffffffffffffff\n      and\n        /* \"contracts/HelloWorld.sol\":2387:2424  msg.sender == ticketOwners[_ticketId] */\n      0xffffffffffffffffffffffffffffffffffffffff\n      and\n        /* \"contracts/HelloWorld.sol\":2387:2397  msg.sender */\n      caller\n        /* \"contracts/HelloWorld.sol\":2387:2424  msg.sender == ticketOwners[_ticketId] */\n      0xffffffffffffffffffffffffffffffffffffffff\n      and\n      eq\n        /* \"contracts/HelloWorld.sol\":2379:2465  require(msg.sender == ticketOwners[_ticketId], \"You are not the owner of this ticket\") */\n      tag_90\n      jumpi\n      mload(0x40)\n      0x08c379a000000000000000000000000000000000000000000000000000000000\n      dup2\n      mstore\n      0x04\n      add\n      tag_91\n      swap1\n      tag_69\n      jump\t// in\n    tag_91:\n      mload(0x40)\n      dup1\n      swap2\n      sub\n      swap1\n      revert\n    tag_90:\n        /* \"contracts/HelloWorld.sol\":2484:2498  ticketRedeemed */\n      0x08\n        /* \"contracts/HelloWorld.sol\":2484:2509  ticketRedeemed[_ticketId] */\n      0x00\n        /* \"contracts/HelloWorld.sol\":2499:2508  _ticketId */\n      dup3\n        /* \"contracts/HelloWorld.sol\":2484:2509  ticketRedeemed[_ticketId] */\n      dup2\n      mstore\n      0x20\n      add\n      swap1\n      dup2\n      mstore\n      0x20\n      add\n      0x00\n      keccak256\n      0x00\n      swap1\n      sload\n      swap1\n      0x0100\n      exp\n      swap1\n      div\n      0xff\n      and\n        /* \"contracts/HelloWorld.sol\":2483:2509  !ticketRedeemed[_ticketId] */\n      iszero\n        /* \"contracts/HelloWorld.sol\":2475:2551  require(!ticketRedeemed[_ticketId], \"This ticket has already been redeemed\") */\n      tag_92\n      jumpi\n      mload(0x40)\n      0x08c379a000000000000000000000000000000000000000000000000000000000\n      dup2\n      mstore\n      0x04\n      add\n      tag_93\n      swap1\n      tag_72\n      jump\t// in\n    tag_93:\n      mload(0x40)\n      dup1\n      swap2\n      sub\n      swap1\n      revert\n    tag_92:\n        /* \"contracts/HelloWorld.sol\":2588:2597  eventDate */\n      sload(0x01)\n        /* \"contracts/HelloWorld.sol\":2569:2584  block.timestamp */\n      timestamp\n        /* \"contracts/HelloWorld.sol\":2569:2597  block.timestamp >= eventDate */\n      lt\n      iszero\n        /* \"contracts/HelloWorld.sol\":2561:2631  require(block.timestamp >= eventDate, \"Event date has not passed yet\") */\n      tag_94\n      jumpi\n      mload(0x40)\n      0x08c379a000000000000000000000000000000000000000000000000000000000\n      dup2\n      mstore\n      0x04\n      add\n      tag_95\n      swap1\n      tag_96\n      jump\t// in\n    tag_95:\n      mload(0x40)\n      dup1\n      swap2\n      sub\n      swap1\n      revert\n    tag_94:\n        /* \"contracts/HelloWorld.sol\":2727:2747  uint256 refundAmount */\n      0x00\n        /* \"contracts/HelloWorld.sol\":2785:2788  100 */\n      0x64\n        /* \"contracts/HelloWorld.sol\":2765:2781  refundPercentage */\n      sload(0x02)\n        /* \"contracts/HelloWorld.sol\":2751:2762  ticketPrice */\n      sload(0x05)\n        /* \"contracts/HelloWorld.sol\":2751:2781  ticketPrice * refundPercentage */\n      tag_97\n      swap2\n      swap1\n      tag_98\n      jump\t// in\n    tag_97:\n        /* \"contracts/HelloWorld.sol\":2750:2788  (ticketPrice * refundPercentage) / 100 */\n      tag_99\n      swap2\n      swap1\n      tag_100\n      jump\t// in\n    tag_99:\n        /* \"contracts/HelloWorld.sol\":2727:2788  uint256 refundAmount = (ticketPrice * refundPercentage) / 100 */\n      swap1\n      pop\n        /* \"contracts/HelloWorld.sol\":2868:2878  msg.sender */\n      caller\n        /* \"contracts/HelloWorld.sol\":2860:2888  payable(msg.sender).transfer */\n      0xffffffffffffffffffffffffffffffffffffffff\n      and\n        /* \"contracts/HelloWorld.sol\":2860:2902  payable(msg.sender).transfer(refundAmount) */\n      0x08fc\n        /* \"contracts/HelloWorld.sol\":2889:2901  refundAmount */\n      dup3\n        /* \"contracts/HelloWorld.sol\":2860:2902  payable(msg.sender).transfer(refundAmount) */\n      swap1\n      dup2\n      iszero\n      mul\n      swap1\n      mload(0x40)\n      0x00\n      mload(0x40)\n      dup1\n      dup4\n      sub\n      dup2\n      dup6\n      dup9\n      dup9\n      call\n      swap4\n      pop\n      pop\n      pop\n      pop\n      iszero\n      dup1\n      iszero\n      tag_102\n      jumpi\n      returndatasize\n      0x00\n      dup1\n      returndatacopy\n      revert(0x00, returndatasize)\n    tag_102:\n      pop\n        /* \"contracts/HelloWorld.sol\":2984:2993  organizer */\n      0x00\n      dup1\n      sload\n      swap1\n      0x0100\n      exp\n      swap1\n      div\n      0xffffffffffffffffffffffffffffffffffffffff\n      and\n        /* \"contracts/HelloWorld.sol\":2976:3003  payable(organizer).transfer */\n      0xffffffffffffffffffffffffffffffffffffffff\n      and\n        /* \"contracts/HelloWorld.sol\":2976:3031  payable(organizer).transfer(ticketPrice - refundAmount) */\n      0x08fc\n        /* \"contracts/HelloWorld.sol\":3018:3030  refundAmount */\n      dup3\n        /* \"contracts/HelloWorld.sol\":3004:3015  ticketPrice */\n      sload(0x05)\n        /* \"contracts/HelloWorld.sol\":3004:3030  ticketPrice - refundAmount */\n      tag_103\n      swap2\n      swap1\n      tag_104\n      jump\t// in\n    tag_103:\n        /* \"contracts/HelloWorld.sol\":2976:3031  payable(organizer).transfer(ticketPrice - refundAmount) */\n      swap1\n      dup2\n      iszero\n      mul\n      swap1\n      mload(0x40)\n      0x00\n      mload(0x40)\n      dup1\n      dup4\n      sub\n      dup2\n      dup6\n      dup9\n      dup9\n      call\n      swap4\n      pop\n      pop\n      pop\n      pop\n      iszero\n      dup1\n      iszero\n      tag_106\n      jumpi\n      returndatasize\n      0x00\n      dup1\n      returndatacopy\n      revert(0x00, returndatasize)\n    tag_106:\n      pop\n        /* \"contracts/HelloWorld.sol\":3114:3118  true */\n      0x01\n        /* \"contracts/HelloWorld.sol\":3086:3100  ticketRedeemed */\n      0x08\n        /* \"contracts/HelloWorld.sol\":3086:3111  ticketRedeemed[_ticketId] */\n      0x00\n        /* \"contracts/HelloWorld.sol\":3101:3110  _ticketId */\n      dup5\n        /* \"contracts/HelloWorld.sol\":3086:3111  ticketRedeemed[_ticketId] */\n      dup2\n      mstore\n      0x20\n      add\n      swap1\n      dup2\n      mstore\n      0x20\n      add\n      0x00\n      keccak256\n      0x00\n        /* \"contracts/HelloWorld.sol\":3086:3118  ticketRedeemed[_ticketId] = true */\n      0x0100\n      exp\n      dup2\n      sload\n      dup2\n      0xff\n      mul\n      not\n      and\n      swap1\n      dup4\n      iszero\n      iszero\n      mul\n      or\n      swap1\n      sstore\n      pop\n        /* \"contracts/HelloWorld.sol\":3212:3222  msg.sender */\n      caller\n        /* \"contracts/HelloWorld.sol\":3186:3237  TicketRefunded(_ticketId, msg.sender, refundAmount) */\n      0xffffffffffffffffffffffffffffffffffffffff\n      and\n        /* \"contracts/HelloWorld.sol\":3201:3210  _ticketId */\n      dup3\n        /* \"contracts/HelloWorld.sol\":3186:3237  TicketRefunded(_ticketId, msg.sender, refundAmount) */\n      0x8c8fd3da31954f4657d981e2a89ea3421ef5d7bfa0998012eaff5f24a61a867a\n        /* \"contracts/HelloWorld.sol\":3224:3236  refundAmount */\n      dup4\n        /* \"contracts/HelloWorld.sol\":3186:3237  TicketRefunded(_ticketId, msg.sender, refundAmount) */\n      mload(0x40)\n      tag_107\n      swap2\n      swap1\n      tag_18\n      jump\t// in\n    tag_107:\n      mload(0x40)\n      dup1\n      swap2\n      sub\n      swap1\n      log3\n        /* \"contracts/HelloWorld.sol\":2369:3244  {... */\n      pop\n        /* \"contracts/HelloWorld.sol\":2313:3244  function refundUnusedTicket(uint256 _ticketId) external {... */\n      pop\n      jump\t// out\n        /* \"contracts/HelloWorld.sol\":85:109  address public organizer */\n    tag_44:\n      0x00\n      dup1\n      sload\n      swap1\n      0x0100\n      exp\n      swap1\n      div\n      0xffffffffffffffffffffffffffffffffffffffff\n      and\n      dup2\n      jump\t// out\n        /* \"contracts/HelloWorld.sol\":268:304  uint256 public totalTicketsAvailable */\n    tag_49:\n      sload(0x04)\n      dup2\n      jump\t// out\n        /* \"contracts/HelloWorld.sol\":427:474  mapping (uint256 => bool) public ticketRedeemed */\n    tag_54:\n      mstore(0x20, 0x08)\n      dup1\n      0x00\n      mstore\n      keccak256(0x00, 0x40)\n      0x00\n      swap2\n      pop\n      sload\n      swap1\n      0x0100\n      exp\n      swap1\n      div\n      0xff\n      and\n      dup2\n      jump\t// out\n        /* \"contracts/HelloWorld.sol\":373:421  mapping (uint256 => address) public ticketOwners */\n    tag_60:\n      mstore(0x20, 0x07)\n      dup1\n      0x00\n      mstore\n      keccak256(0x00, 0x40)\n      0x00\n      swap2\n      pop\n      sload\n      swap1\n      0x0100\n      exp\n      swap1\n      div\n      0xffffffffffffffffffffffffffffffffffffffff\n      and\n      dup2\n      jump\t// out\n        /* \"#utility.yul\":7:84   */\n    tag_108:\n        /* \"#utility.yul\":44:51   */\n      0x00\n        /* \"#utility.yul\":73:78   */\n      dup2\n        /* \"#utility.yul\":62:78   */\n      swap1\n      pop\n        /* \"#utility.yul\":7:84   */\n      swap2\n      swap1\n      pop\n      jump\t// out\n        /* \"#utility.yul\":90:208   */\n    tag_109:\n        /* \"#utility.yul\":177:201   */\n      tag_138\n        /* \"#utility.yul\":195:200   */\n      dup2\n        /* \"#utility.yul\":177:201   */\n      tag_108\n      jump\t// in\n    tag_138:\n        /* \"#utility.yul\":172:175   */\n      dup3\n        /* \"#utility.yul\":165:202   */\n      mstore\n        /* \"#utility.yul\":90:208   */\n      pop\n      pop\n      jump\t// out\n        /* \"#utility.yul\":214:436   */\n    tag_18:\n        /* \"#utility.yul\":307:311   */\n      0x00\n        /* \"#utility.yul\":345:347   */\n      0x20\n        /* \"#utility.yul\":334:343   */\n      dup3\n        /* \"#utility.yul\":330:348   */\n      add\n        /* \"#utility.yul\":322:348   */\n      swap1\n      pop\n        /* \"#utility.yul\":358:429   */\n      tag_140\n        /* \"#utility.yul\":426:427   */\n      0x00\n        /* \"#utility.yul\":415:424   */\n      dup4\n        /* \"#utility.yul\":411:428   */\n      add\n        /* \"#utility.yul\":402:408   */\n      dup5\n        /* \"#utility.yul\":358:429   */\n      tag_109\n      jump\t// in\n    tag_140:\n        /* \"#utility.yul\":214:436   */\n      swap3\n      swap2\n      pop\n      pop\n      jump\t// out\n        /* \"#utility.yul\":523:640   */\n    tag_111:\n        /* \"#utility.yul\":632:633   */\n      0x00\n        /* \"#utility.yul\":629:630   */\n      dup1\n        /* \"#utility.yul\":622:634   */\n      revert\n        /* \"#utility.yul\":769:891   */\n    tag_113:\n        /* \"#utility.yul\":842:866   */\n      tag_145\n        /* \"#utility.yul\":860:865   */\n      dup2\n        /* \"#utility.yul\":842:866   */\n      tag_108\n      jump\t// in\n    tag_145:\n        /* \"#utility.yul\":835:840   */\n      dup2\n        /* \"#utility.yul\":832:867   */\n      eq\n        /* \"#utility.yul\":822:885   */\n      tag_146\n      jumpi\n        /* \"#utility.yul\":881:882   */\n      0x00\n        /* \"#utility.yul\":878:879   */\n      dup1\n        /* \"#utility.yul\":871:883   */\n      revert\n        /* \"#utility.yul\":822:885   */\n    tag_146:\n        /* \"#utility.yul\":769:891   */\n      pop\n      jump\t// out\n        /* \"#utility.yul\":897:1036   */\n    tag_114:\n        /* \"#utility.yul\":943:948   */\n      0x00\n        /* \"#utility.yul\":981:987   */\n      dup2\n        /* \"#utility.yul\":968:988   */\n      calldataload\n        /* \"#utility.yul\":959:988   */\n      swap1\n      pop\n        /* \"#utility.yul\":997:1030   */\n      tag_148\n        /* \"#utility.yul\":1024:1029   */\n      dup2\n        /* \"#utility.yul\":997:1030   */\n      tag_113\n      jump\t// in\n    tag_148:\n        /* \"#utility.yul\":897:1036   */\n      swap3\n      swap2\n      pop\n      pop\n      jump\t// out\n        /* \"#utility.yul\":1042:1371   */\n    tag_22:\n        /* \"#utility.yul\":1101:1107   */\n      0x00\n        /* \"#utility.yul\":1150:1152   */\n      0x20\n        /* \"#utility.yul\":1138:1147   */\n      dup3\n        /* \"#utility.yul\":1129:1136   */\n      dup5\n        /* \"#utility.yul\":1125:1148   */\n      sub\n        /* \"#utility.yul\":1121:1153   */\n      slt\n        /* \"#utility.yul\":1118:1237   */\n      iszero\n      tag_150\n      jumpi\n        /* \"#utility.yul\":1156:1235   */\n      tag_151\n      tag_111\n      jump\t// in\n    tag_151:\n        /* \"#utility.yul\":1118:1237   */\n    tag_150:\n        /* \"#utility.yul\":1276:1277   */\n      0x00\n        /* \"#utility.yul\":1301:1354   */\n      tag_152\n        /* \"#utility.yul\":1346:1353   */\n      dup5\n        /* \"#utility.yul\":1337:1343   */\n      dup3\n        /* \"#utility.yul\":1326:1335   */\n      dup6\n        /* \"#utility.yul\":1322:1344   */\n      add\n        /* \"#utility.yul\":1301:1354   */\n      tag_114\n      jump\t// in\n    tag_152:\n        /* \"#utility.yul\":1291:1354   */\n      swap2\n      pop\n        /* \"#utility.yul\":1247:1364   */\n      pop\n        /* \"#utility.yul\":1042:1371   */\n      swap3\n      swap2\n      pop\n      pop\n      jump\t// out\n        /* \"#utility.yul\":1377:1503   */\n    tag_115:\n        /* \"#utility.yul\":1414:1421   */\n      0x00\n        /* \"#utility.yul\":1454:1496   */\n      0xffffffffffffffffffffffffffffffffffffffff\n        /* \"#utility.yul\":1447:1452   */\n      dup3\n        /* \"#utility.yul\":1443:1497   */\n      and\n        /* \"#utility.yul\":1432:1497   */\n      swap1\n      pop\n        /* \"#utility.yul\":1377:1503   */\n      swap2\n      swap1\n      pop\n      jump\t// out\n        /* \"#utility.yul\":1509:1605   */\n    tag_116:\n        /* \"#utility.yul\":1546:1553   */\n      0x00\n        /* \"#utility.yul\":1575:1599   */\n      tag_155\n        /* \"#utility.yul\":1593:1598   */\n      dup3\n        /* \"#utility.yul\":1575:1599   */\n      tag_115\n      jump\t// in\n    tag_155:\n        /* \"#utility.yul\":1564:1599   */\n      swap1\n      pop\n        /* \"#utility.yul\":1509:1605   */\n      swap2\n      swap1\n      pop\n      jump\t// out\n        /* \"#utility.yul\":1611:1729   */\n    tag_117:\n        /* \"#utility.yul\":1698:1722   */\n      tag_157\n        /* \"#utility.yul\":1716:1721   */\n      dup2\n        /* \"#utility.yul\":1698:1722   */\n      tag_116\n      jump\t// in\n    tag_157:\n        /* \"#utility.yul\":1693:1696   */\n      dup3\n        /* \"#utility.yul\":1686:1723   */\n      mstore\n        /* \"#utility.yul\":1611:1729   */\n      pop\n      pop\n      jump\t// out\n        /* \"#utility.yul\":1735:1957   */\n    tag_46:\n        /* \"#utility.yul\":1828:1832   */\n      0x00\n        /* \"#utility.yul\":1866:1868   */\n      0x20\n        /* \"#utility.yul\":1855:1864   */\n      dup3\n        /* \"#utility.yul\":1851:1869   */\n      add\n        /* \"#utility.yul\":1843:1869   */\n      swap1\n      pop\n        /* \"#utility.yul\":1879:1950   */\n      tag_159\n        /* \"#utility.yul\":1947:1948   */\n      0x00\n        /* \"#utility.yul\":1936:1945   */\n      dup4\n        /* \"#utility.yul\":1932:1949   */\n      add\n        /* \"#utility.yul\":1923:1929   */\n      dup5\n        /* \"#utility.yul\":1879:1950   */\n      tag_117\n      jump\t// in\n    tag_159:\n        /* \"#utility.yul\":1735:1957   */\n      swap3\n      swap2\n      pop\n      pop\n      jump\t// out\n        /* \"#utility.yul\":1963:2053   */\n    tag_118:\n        /* \"#utility.yul\":1997:2004   */\n      0x00\n        /* \"#utility.yul\":2040:2045   */\n      dup2\n        /* \"#utility.yul\":2033:2046   */\n      iszero\n        /* \"#utility.yul\":2026:2047   */\n      iszero\n        /* \"#utility.yul\":2015:2047   */\n      swap1\n      pop\n        /* \"#utility.yul\":1963:2053   */\n      swap2\n      swap1\n      pop\n      jump\t// out\n        /* \"#utility.yul\":2059:2168   */\n    tag_119:\n        /* \"#utility.yul\":2140:2161   */\n      tag_162\n        /* \"#utility.yul\":2155:2160   */\n      dup2\n        /* \"#utility.yul\":2140:2161   */\n      tag_118\n      jump\t// in\n    tag_162:\n        /* \"#utility.yul\":2135:2138   */\n      dup3\n        /* \"#utility.yul\":2128:2162   */\n      mstore\n        /* \"#utility.yul\":2059:2168   */\n      pop\n      pop\n      jump\t// out\n        /* \"#utility.yul\":2174:2384   */\n    tag_56:\n        /* \"#utility.yul\":2261:2265   */\n      0x00\n        /* \"#utility.yul\":2299:2301   */\n      0x20\n        /* \"#utility.yul\":2288:2297   */\n      dup3\n        /* \"#utility.yul\":2284:2302   */\n      add\n        /* \"#utility.yul\":2276:2302   */\n      swap1\n      pop\n        /* \"#utility.yul\":2312:2377   */\n      tag_164\n        /* \"#utility.yul\":2374:2375   */\n      0x00\n        /* \"#utility.yul\":2363:2372   */\n      dup4\n        /* \"#utility.yul\":2359:2376   */\n      add\n        /* \"#utility.yul\":2350:2356   */\n      dup5\n        /* \"#utility.yul\":2312:2377   */\n      tag_119\n      jump\t// in\n    tag_164:\n        /* \"#utility.yul\":2174:2384   */\n      swap3\n      swap2\n      pop\n      pop\n      jump\t// out\n        /* \"#utility.yul\":2390:2559   */\n    tag_120:\n        /* \"#utility.yul\":2474:2485   */\n      0x00\n        /* \"#utility.yul\":2508:2514   */\n      dup3\n        /* \"#utility.yul\":2503:2506   */\n      dup3\n        /* \"#utility.yul\":2496:2515   */\n      mstore\n        /* \"#utility.yul\":2548:2552   */\n      0x20\n        /* \"#utility.yul\":2543:2546   */\n      dup3\n        /* \"#utility.yul\":2539:2553   */\n      add\n        /* \"#utility.yul\":2524:2553   */\n      swap1\n      pop\n        /* \"#utility.yul\":2390:2559   */\n      swap3\n      swap2\n      pop\n      pop\n      jump\t// out\n        /* \"#utility.yul\":2565:2744   */\n    tag_121:\n        /* \"#utility.yul\":2705:2736   */\n      0x4576656e7420646174652068617320616c726561647920706173736564000000\n        /* \"#utility.yul\":2701:2702   */\n      0x00\n        /* \"#utility.yul\":2693:2699   */\n      dup3\n        /* \"#utility.yul\":2689:2703   */\n      add\n        /* \"#utility.yul\":2682:2737   */\n      mstore\n        /* \"#utility.yul\":2565:2744   */\n      pop\n      jump\t// out\n        /* \"#utility.yul\":2750:3116   */\n    tag_122:\n        /* \"#utility.yul\":2892:2895   */\n      0x00\n        /* \"#utility.yul\":2913:2980   */\n      tag_168\n        /* \"#utility.yul\":2977:2979   */\n      0x1d\n        /* \"#utility.yul\":2972:2975   */\n      dup4\n        /* \"#utility.yul\":2913:2980   */\n      tag_120\n      jump\t// in\n    tag_168:\n        /* \"#utility.yul\":2906:2980   */\n      swap2\n      pop\n        /* \"#utility.yul\":2989:3082   */\n      tag_169\n        /* \"#utility.yul\":3078:3081   */\n      dup3\n        /* \"#utility.yul\":2989:3082   */\n      tag_121\n      jump\t// in\n    tag_169:\n        /* \"#utility.yul\":3107:3109   */\n      0x20\n        /* \"#utility.yul\":3102:3105   */\n      dup3\n        /* \"#utility.yul\":3098:3110   */\n      add\n        /* \"#utility.yul\":3091:3110   */\n      swap1\n      pop\n        /* \"#utility.yul\":2750:3116   */\n      swap2\n      swap1\n      pop\n      jump\t// out\n        /* \"#utility.yul\":3122:3541   */\n    tag_65:\n        /* \"#utility.yul\":3288:3292   */\n      0x00\n        /* \"#utility.yul\":3326:3328   */\n      0x20\n        /* \"#utility.yul\":3315:3324   */\n      dup3\n        /* \"#utility.yul\":3311:3329   */\n      add\n        /* \"#utility.yul\":3303:3329   */\n      swap1\n      pop\n        /* \"#utility.yul\":3375:3384   */\n      dup2\n        /* \"#utility.yul\":3369:3373   */\n      dup2\n        /* \"#utility.yul\":3365:3385   */\n      sub\n        /* \"#utility.yul\":3361:3362   */\n      0x00\n        /* \"#utility.yul\":3350:3359   */\n      dup4\n        /* \"#utility.yul\":3346:3363   */\n      add\n        /* \"#utility.yul\":3339:3386   */\n      mstore\n        /* \"#utility.yul\":3403:3534   */\n      tag_171\n        /* \"#utility.yul\":3529:3533   */\n      dup2\n        /* \"#utility.yul\":3403:3534   */\n      tag_122\n      jump\t// in\n    tag_171:\n        /* \"#utility.yul\":3395:3534   */\n      swap1\n      pop\n        /* \"#utility.yul\":3122:3541   */\n      swap2\n      swap1\n      pop\n      jump\t// out\n        /* \"#utility.yul\":3547:3770   */\n    tag_123:\n        /* \"#utility.yul\":3687:3721   */\n      0x596f7520617265206e6f7420746865206f776e6572206f662074686973207469\n        /* \"#utility.yul\":3683:3684   */\n      0x00\n        /* \"#utility.yul\":3675:3681   */\n      dup3\n        /* \"#utility.yul\":3671:3685   */\n      add\n        /* \"#utility.yul\":3664:3722   */\n      mstore\n        /* \"#utility.yul\":3756:3762   */\n      0x636b657400000000000000000000000000000000000000000000000000000000\n        /* \"#utility.yul\":3751:3753   */\n      0x20\n        /* \"#utility.yul\":3743:3749   */\n      dup3\n        /* \"#utility.yul\":3739:3754   */\n      add\n        /* \"#utility.yul\":3732:3763   */\n      mstore\n        /* \"#utility.yul\":3547:3770   */\n      pop\n      jump\t// out\n        /* \"#utility.yul\":3776:4142   */\n    tag_124:\n        /* \"#utility.yul\":3918:3921   */\n      0x00\n        /* \"#utility.yul\":3939:4006   */\n      tag_174\n        /* \"#utility.yul\":4003:4005   */\n      0x24\n        /* \"#utility.yul\":3998:4001   */\n      dup4\n        /* \"#utility.yul\":3939:4006   */\n      tag_120\n      jump\t// in\n    tag_174:\n        /* \"#utility.yul\":3932:4006   */\n      swap2\n      pop\n        /* \"#utility.yul\":4015:4108   */\n      tag_175\n        /* \"#utility.yul\":4104:4107   */\n      dup3\n        /* \"#utility.yul\":4015:4108   */\n      tag_123\n      jump\t// in\n    tag_175:\n        /* \"#utility.yul\":4133:4135   */\n      0x40\n        /* \"#utility.yul\":4128:4131   */\n      dup3\n        /* \"#utility.yul\":4124:4136   */\n      add\n        /* \"#utility.yul\":4117:4136   */\n      swap1\n      pop\n        /* \"#utility.yul\":3776:4142   */\n      swap2\n      swap1\n      pop\n      jump\t// out\n        /* \"#utility.yul\":4148:4567   */\n    tag_69:\n        /* \"#utility.yul\":4314:4318   */\n      0x00\n        /* \"#utility.yul\":4352:4354   */\n      0x20\n        /* \"#utility.yul\":4341:4350   */\n      dup3\n        /* \"#utility.yul\":4337:4355   */\n      add\n        /* \"#utility.yul\":4329:4355   */\n      swap1\n      pop\n        /* \"#utility.yul\":4401:4410   */\n      dup2\n        /* \"#utility.yul\":4395:4399   */\n      dup2\n        /* \"#utility.yul\":4391:4411   */\n      sub\n        /* \"#utility.yul\":4387:4388   */\n      0x00\n        /* \"#utility.yul\":4376:4385   */\n      dup4\n        /* \"#utility.yul\":4372:4389   */\n      add\n        /* \"#utility.yul\":4365:4412   */\n      mstore\n        /* \"#utility.yul\":4429:4560   */\n      tag_177\n        /* \"#utility.yul\":4555:4559   */\n      dup2\n        /* \"#utility.yul\":4429:4560   */\n      tag_124\n      jump\t// in\n    tag_177:\n        /* \"#utility.yul\":4421:4560   */\n      swap1\n      pop\n        /* \"#utility.yul\":4148:4567   */\n      swap2\n      swap1\n      pop\n      jump\t// out\n        /* \"#utility.yul\":4573:4797   */\n    tag_125:\n        /* \"#utility.yul\":4713:4747   */\n      0x54686973207469636b65742068617320616c7265616479206265656e20726564\n        /* \"#utility.yul\":4709:4710   */\n      0x00\n        /* \"#utility.yul\":4701:4707   */\n      dup3\n        /* \"#utility.yul\":4697:4711   */\n      add\n        /* \"#utility.yul\":4690:4748   */\n      mstore\n        /* \"#utility.yul\":4782:4789   */\n      0x65656d6564000000000000000000000000000000000000000000000000000000\n        /* \"#utility.yul\":4777:4779   */\n      0x20\n        /* \"#utility.yul\":4769:4775   */\n      dup3\n        /* \"#utility.yul\":4765:4780   */\n      add\n        /* \"#utility.yul\":4758:4790   */\n      mstore\n        /* \"#utility.yul\":4573:4797   */\n      pop\n      jump\t// out\n        /* \"#utility.yul\":4803:5169   */\n    tag_126:\n        /* \"#utility.yul\":4945:4948   */\n      0x00\n        /* \"#utility.yul\":4966:5033   */\n      tag_180\n        /* \"#utility.yul\":5030:5032   */\n      0x25\n        /* \"#utility.yul\":5025:5028   */\n      dup4\n        /* \"#utility.yul\":4966:5033   */\n      tag_120\n      jump\t// in\n    tag_180:\n        /* \"#utility.yul\":4959:5033   */\n      swap2\n      pop\n        /* \"#utility.yul\":5042:5135   */\n      tag_181\n        /* \"#utility.yul\":5131:5134   */\n      dup3\n        /* \"#utility.yul\":5042:5135   */\n      tag_125\n      jump\t// in\n    tag_181:\n        /* \"#utility.yul\":5160:5162   */\n      0x40\n        /* \"#utility.yul\":5155:5158   */\n      dup3\n        /* \"#utility.yul\":5151:5163   */\n      add\n        /* \"#utility.yul\":5144:5163   */\n      swap1\n      pop\n        /* \"#utility.yul\":4803:5169   */\n      swap2\n      swap1\n      pop\n      jump\t// out\n        /* \"#utility.yul\":5175:5594   */\n    tag_72:\n        /* \"#utility.yul\":5341:5345   */\n      0x00\n        /* \"#utility.yul\":5379:5381   */\n      0x20\n        /* \"#utility.yul\":5368:5377   */\n      dup3\n        /* \"#utility.yul\":5364:5382   */\n      add\n        /* \"#utility.yul\":5356:5382   */\n      swap1\n      pop\n        /* \"#utility.yul\":5428:5437   */\n      dup2\n        /* \"#utility.yul\":5422:5426   */\n      dup2\n        /* \"#utility.yul\":5418:5438   */\n      sub\n        /* \"#utility.yul\":5414:5415   */\n      0x00\n        /* \"#utility.yul\":5403:5412   */\n      dup4\n        /* \"#utility.yul\":5399:5416   */\n      add\n        /* \"#utility.yul\":5392:5439   */\n      mstore\n        /* \"#utility.yul\":5456:5587   */\n      tag_183\n        /* \"#utility.yul\":5582:5586   */\n      dup2\n        /* \"#utility.yul\":5456:5587   */\n      tag_126\n      jump\t// in\n    tag_183:\n        /* \"#utility.yul\":5448:5587   */\n      swap1\n      pop\n        /* \"#utility.yul\":5175:5594   */\n      swap2\n      swap1\n      pop\n      jump\t// out\n        /* \"#utility.yul\":5600:5778   */\n    tag_127:\n        /* \"#utility.yul\":5740:5770   */\n      0x416c6c207469636b6574732068617665206265656e2069737375656400000000\n        /* \"#utility.yul\":5736:5737   */\n      0x00\n        /* \"#utility.yul\":5728:5734   */\n      dup3\n        /* \"#utility.yul\":5724:5738   */\n      add\n        /* \"#utility.yul\":5717:5771   */\n      mstore\n        /* \"#utility.yul\":5600:5778   */\n      pop\n      jump\t// out\n        /* \"#utility.yul\":5784:6150   */\n    tag_128:\n        /* \"#utility.yul\":5926:5929   */\n      0x00\n        /* \"#utility.yul\":5947:6014   */\n      tag_186\n        /* \"#utility.yul\":6011:6013   */\n      0x1c\n        /* \"#utility.yul\":6006:6009   */\n      dup4\n        /* \"#utility.yul\":5947:6014   */\n      tag_120\n      jump\t// in\n    tag_186:\n        /* \"#utility.yul\":5940:6014   */\n      swap2\n      pop\n        /* \"#utility.yul\":6023:6116   */\n      tag_187\n        /* \"#utility.yul\":6112:6115   */\n      dup3\n        /* \"#utility.yul\":6023:6116   */\n      tag_127\n      jump\t// in\n    tag_187:\n        /* \"#utility.yul\":6141:6143   */\n      0x20\n        /* \"#utility.yul\":6136:6139   */\n      dup3\n        /* \"#utility.yul\":6132:6144   */\n      add\n        /* \"#utility.yul\":6125:6144   */\n      swap1\n      pop\n        /* \"#utility.yul\":5784:6150   */\n      swap2\n      swap1\n      pop\n      jump\t// out\n        /* \"#utility.yul\":6156:6575   */\n    tag_81:\n        /* \"#utility.yul\":6322:6326   */\n      0x00\n        /* \"#utility.yul\":6360:6362   */\n      0x20\n        /* \"#utility.yul\":6349:6358   */\n      dup3\n        /* \"#utility.yul\":6345:6363   */\n      add\n        /* \"#utility.yul\":6337:6363   */\n      swap1\n      pop\n        /* \"#utility.yul\":6409:6418   */\n      dup2\n        /* \"#utility.yul\":6403:6407   */\n      dup2\n        /* \"#utility.yul\":6399:6419   */\n      sub\n        /* \"#utility.yul\":6395:6396   */\n      0x00\n        /* \"#utility.yul\":6384:6393   */\n      dup4\n        /* \"#utility.yul\":6380:6397   */\n      add\n        /* \"#utility.yul\":6373:6420   */\n      mstore\n        /* \"#utility.yul\":6437:6568   */\n      tag_189\n        /* \"#utility.yul\":6563:6567   */\n      dup2\n        /* \"#utility.yul\":6437:6568   */\n      tag_128\n      jump\t// in\n    tag_189:\n        /* \"#utility.yul\":6429:6568   */\n      swap1\n      pop\n        /* \"#utility.yul\":6156:6575   */\n      swap2\n      swap1\n      pop\n      jump\t// out\n        /* \"#utility.yul\":6581:6754   */\n    tag_129:\n        /* \"#utility.yul\":6721:6746   */\n      0x496e73756666696369656e742066756e64732073656e74000000000000000000\n        /* \"#utility.yul\":6717:6718   */\n      0x00\n        /* \"#utility.yul\":6709:6715   */\n      dup3\n        /* \"#utility.yul\":6705:6719   */\n      add\n        /* \"#utility.yul\":6698:6747   */\n      mstore\n        /* \"#utility.yul\":6581:6754   */\n      pop\n      jump\t// out\n        /* \"#utility.yul\":6760:7126   */\n    tag_130:\n        /* \"#utility.yul\":6902:6905   */\n      0x00\n        /* \"#utility.yul\":6923:6990   */\n      tag_192\n        /* \"#utility.yul\":6987:6989   */\n      0x17\n        /* \"#utility.yul\":6982:6985   */\n      dup4\n        /* \"#utility.yul\":6923:6990   */\n      tag_120\n      jump\t// in\n    tag_192:\n        /* \"#utility.yul\":6916:6990   */\n      swap2\n      pop\n        /* \"#utility.yul\":6999:7092   */\n      tag_193\n        /* \"#utility.yul\":7088:7091   */\n      dup3\n        /* \"#utility.yul\":6999:7092   */\n      tag_129\n      jump\t// in\n    tag_193:\n        /* \"#utility.yul\":7117:7119   */\n      0x20\n        /* \"#utility.yul\":7112:7115   */\n      dup3\n        /* \"#utility.yul\":7108:7120   */\n      add\n        /* \"#utility.yul\":7101:7120   */\n      swap1\n      pop\n        /* \"#utility.yul\":6760:7126   */\n      swap2\n      swap1\n      pop\n      jump\t// out\n        /* \"#utility.yul\":7132:7551   */\n    tag_84:\n        /* \"#utility.yul\":7298:7302   */\n      0x00\n        /* \"#utility.yul\":7336:7338   */\n      0x20\n        /* \"#utility.yul\":7325:7334   */\n      dup3\n        /* \"#utility.yul\":7321:7339   */\n      add\n        /* \"#utility.yul\":7313:7339   */\n      swap1\n      pop\n        /* \"#utility.yul\":7385:7394   */\n      dup2\n        /* \"#utility.yul\":7379:7383   */\n      dup2\n        /* \"#utility.yul\":7375:7395   */\n      sub\n        /* \"#utility.yul\":7371:7372   */\n      0x00\n        /* \"#utility.yul\":7360:7369   */\n      dup4\n        /* \"#utility.yul\":7356:7373   */\n      add\n        /* \"#utility.yul\":7349:7396   */\n      mstore\n        /* \"#utility.yul\":7413:7544   */\n      tag_195\n        /* \"#utility.yul\":7539:7543   */\n      dup2\n        /* \"#utility.yul\":7413:7544   */\n      tag_130\n      jump\t// in\n    tag_195:\n        /* \"#utility.yul\":7405:7544   */\n      swap1\n      pop\n        /* \"#utility.yul\":7132:7551   */\n      swap2\n      swap1\n      pop\n      jump\t// out\n        /* \"#utility.yul\":7557:7737   */\n    tag_131:\n        /* \"#utility.yul\":7605:7682   */\n      0x4e487b7100000000000000000000000000000000000000000000000000000000\n        /* \"#utility.yul\":7602:7603   */\n      0x00\n        /* \"#utility.yul\":7595:7683   */\n      mstore\n        /* \"#utility.yul\":7702:7706   */\n      0x11\n        /* \"#utility.yul\":7699:7700   */\n      0x04\n        /* \"#utility.yul\":7692:7707   */\n      mstore\n        /* \"#utility.yul\":7726:7730   */\n      0x24\n        /* \"#utility.yul\":7723:7724   */\n      0x00\n        /* \"#utility.yul\":7716:7731   */\n      revert\n        /* \"#utility.yul\":7743:7976   */\n    tag_86:\n        /* \"#utility.yul\":7782:7785   */\n      0x00\n        /* \"#utility.yul\":7805:7829   */\n      tag_198\n        /* \"#utility.yul\":7823:7828   */\n      dup3\n        /* \"#utility.yul\":7805:7829   */\n      tag_108\n      jump\t// in\n    tag_198:\n        /* \"#utility.yul\":7796:7829   */\n      swap2\n      pop\n        /* \"#utility.yul\":7851:7917   */\n      0xffffffffffffffffffffffffffffffffffffffffffffffffffffffffffffffff\n        /* \"#utility.yul\":7844:7849   */\n      dup3\n        /* \"#utility.yul\":7841:7918   */\n      sub\n        /* \"#utility.yul\":7838:7941   */\n      tag_199\n      jumpi\n        /* \"#utility.yul\":7921:7939   */\n      tag_200\n      tag_131\n      jump\t// in\n    tag_200:\n        /* \"#utility.yul\":7838:7941   */\n    tag_199:\n        /* \"#utility.yul\":7968:7969   */\n      0x01\n        /* \"#utility.yul\":7961:7966   */\n      dup3\n        /* \"#utility.yul\":7957:7970   */\n      add\n        /* \"#utility.yul\":7950:7970   */\n      swap1\n      pop\n        /* \"#utility.yul\":7743:7976   */\n      swap2\n      swap1\n      pop\n      jump\t// out\n        /* \"#utility.yul\":7982:8161   */\n    tag_132:\n        /* \"#utility.yul\":8122:8153   */\n      0x4576656e74206461746520686173206e6f742070617373656420796574000000\n        /* \"#utility.yul\":8118:8119   */\n      0x00\n        /* \"#utility.yul\":8110:8116   */\n      dup3\n        /* \"#utility.yul\":8106:8120   */\n      add\n        /* \"#utility.yul\":8099:8154   */\n      mstore\n        /* \"#utility.yul\":7982:8161   */\n      pop\n      jump\t// out\n        /* \"#utility.yul\":8167:8533   */\n    tag_133:\n        /* \"#utility.yul\":8309:8312   */\n      0x00\n        /* \"#utility.yul\":8330:8397   */\n      tag_203\n        /* \"#utility.yul\":8394:8396   */\n      0x1d\n        /* \"#utility.yul\":8389:8392   */\n      dup4\n        /* \"#utility.yul\":8330:8397   */\n      tag_120\n      jump\t// in\n    tag_203:\n        /* \"#utility.yul\":8323:8397   */\n      swap2\n      pop\n        /* \"#utility.yul\":8406:8499   */\n      tag_204\n        /* \"#utility.yul\":8495:8498   */\n      dup3\n        /* \"#utility.yul\":8406:8499   */\n      tag_132\n      jump\t// in\n    tag_204:\n        /* \"#utility.yul\":8524:8526   */\n      0x20\n        /* \"#utility.yul\":8519:8522   */\n      dup3\n        /* \"#utility.yul\":8515:8527   */\n      add\n        /* \"#utility.yul\":8508:8527   */\n      swap1\n      pop\n        /* \"#utility.yul\":8167:8533   */\n      swap2\n      swap1\n      pop\n      jump\t// out\n        /* \"#utility.yul\":8539:8958   */\n    tag_96:\n        /* \"#utility.yul\":8705:8709   */\n      0x00\n        /* \"#utility.yul\":8743:8745   */\n      0x20\n        /* \"#utility.yul\":8732:8741   */\n      dup3\n        /* \"#utility.yul\":8728:8746   */\n      add\n        /* \"#utility.yul\":8720:8746   */\n      swap1\n      pop\n        /* \"#utility.yul\":8792:8801   */\n      dup2\n        /* \"#utility.yul\":8786:8790   */\n      dup2\n        /* \"#utility.yul\":8782:8802   */\n      sub\n        /* \"#utility.yul\":8778:8779   */\n      0x00\n        /* \"#utility.yul\":8767:8776   */\n      dup4\n        /* \"#utility.yul\":8763:8780   */\n      add\n        /* \"#utility.yul\":8756:8803   */\n      mstore\n        /* \"#utility.yul\":8820:8951   */\n      tag_206\n        /* \"#utility.yul\":8946:8950   */\n      dup2\n        /* \"#utility.yul\":8820:8951   */\n      tag_133\n      jump\t// in\n    tag_206:\n        /* \"#utility.yul\":8812:8951   */\n      swap1\n      pop\n        /* \"#utility.yul\":8539:8958   */\n      swap2\n      swap1\n      pop\n      jump\t// out\n        /* \"#utility.yul\":8964:9374   */\n    tag_98:\n        /* \"#utility.yul\":9004:9011   */\n      0x00\n        /* \"#utility.yul\":9027:9047   */\n      tag_208\n        /* \"#utility.yul\":9045:9046   */\n      dup3\n        /* \"#utility.yul\":9027:9047   */\n      tag_108\n      jump\t// in\n    tag_208:\n        /* \"#utility.yul\":9022:9047   */\n      swap2\n      pop\n        /* \"#utility.yul\":9061:9081   */\n      tag_209\n        /* \"#utility.yul\":9079:9080   */\n      dup4\n        /* \"#utility.yul\":9061:9081   */\n      tag_108\n      jump\t// in\n    tag_209:\n        /* \"#utility.yul\":9056:9081   */\n      swap3\n      pop\n        /* \"#utility.yul\":9116:9117   */\n      dup3\n        /* \"#utility.yul\":9113:9114   */\n      dup3\n        /* \"#utility.yul\":9109:9118   */\n      mul\n        /* \"#utility.yul\":9138:9168   */\n      tag_210\n        /* \"#utility.yul\":9156:9167   */\n      dup2\n        /* \"#utility.yul\":9138:9168   */\n      tag_108\n      jump\t// in\n    tag_210:\n        /* \"#utility.yul\":9127:9168   */\n      swap2\n      pop\n        /* \"#utility.yul\":9317:9318   */\n      dup3\n        /* \"#utility.yul\":9308:9315   */\n      dup3\n        /* \"#utility.yul\":9304:9319   */\n      div\n        /* \"#utility.yul\":9301:9302   */\n      dup5\n        /* \"#utility.yul\":9298:9320   */\n      eq\n        /* \"#utility.yul\":9278:9279   */\n      dup4\n        /* \"#utility.yul\":9271:9280   */\n      iszero\n        /* \"#utility.yul\":9251:9334   */\n      or\n        /* \"#utility.yul\":9228:9367   */\n      tag_211\n      jumpi\n        /* \"#utility.yul\":9347:9365   */\n      tag_212\n      tag_131\n      jump\t// in\n    tag_212:\n        /* \"#utility.yul\":9228:9367   */\n    tag_211:\n        /* \"#utility.yul\":9012:9374   */\n      pop\n        /* \"#utility.yul\":8964:9374   */\n      swap3\n      swap2\n      pop\n      pop\n      jump\t// out\n        /* \"#utility.yul\":9380:9560   */\n    tag_134:\n        /* \"#utility.yul\":9428:9505   */\n      0x4e487b7100000000000000000000000000000000000000000000000000000000\n        /* \"#utility.yul\":9425:9426   */\n      0x00\n        /* \"#utility.yul\":9418:9506   */\n      mstore\n        /* \"#utility.yul\":9525:9529   */\n      0x12\n        /* \"#utility.yul\":9522:9523   */\n      0x04\n        /* \"#utility.yul\":9515:9530   */\n      mstore\n        /* \"#utility.yul\":9549:9553   */\n      0x24\n        /* \"#utility.yul\":9546:9547   */\n      0x00\n        /* \"#utility.yul\":9539:9554   */\n      revert\n        /* \"#utility.yul\":9566:9751   */\n    tag_100:\n        /* \"#utility.yul\":9606:9607   */\n      0x00\n        /* \"#utility.yul\":9623:9643   */\n      tag_215\n        /* \"#utility.yul\":9641:9642   */\n      dup3\n        /* \"#utility.yul\":9623:9643   */\n      tag_108\n      jump\t// in\n    tag_215:\n        /* \"#utility.yul\":9618:9643   */\n      swap2\n      pop\n        /* \"#utility.yul\":9657:9677   */\n      tag_216\n        /* \"#utility.yul\":9675:9676   */\n      dup4\n        /* \"#utility.yul\":9657:9677   */\n      tag_108\n      jump\t// in\n    tag_216:\n        /* \"#utility.yul\":9652:9677   */\n      swap3\n      pop\n        /* \"#utility.yul\":9696:9697   */\n      dup3\n        /* \"#utility.yul\":9686:9721   */\n      tag_217\n      jumpi\n        /* \"#utility.yul\":9701:9719   */\n      tag_218\n      tag_134\n      jump\t// in\n    tag_218:\n        /* \"#utility.yul\":9686:9721   */\n    tag_217:\n        /* \"#utility.yul\":9743:9744   */\n      dup3\n        /* \"#utility.yul\":9740:9741   */\n      dup3\n        /* \"#utility.yul\":9736:9745   */\n      div\n        /* \"#utility.yul\":9731:9745   */\n      swap1\n      pop\n        /* \"#utility.yul\":9566:9751   */\n      swap3\n      swap2\n      pop\n      pop\n      jump\t// out\n        /* \"#utility.yul\":9757:9951   */\n    tag_104:\n        /* \"#utility.yul\":9797:9801   */\n      0x00\n        /* \"#utility.yul\":9817:9837   */\n      tag_220\n        /* \"#utility.yul\":9835:9836   */\n      dup3\n        /* \"#utility.yul\":9817:9837   */\n      tag_108\n      jump\t// in\n    tag_220:\n        /* \"#utility.yul\":9812:9837   */\n      swap2\n      pop\n        /* \"#utility.yul\":9851:9871   */\n      tag_221\n        /* \"#utility.yul\":9869:9870   */\n      dup4\n        /* \"#utility.yul\":9851:9871   */\n      tag_108\n      jump\t// in\n    tag_221:\n        /* \"#utility.yul\":9846:9871   */\n      swap3\n      pop\n        /* \"#utility.yul\":9895:9896   */\n      dup3\n        /* \"#utility.yul\":9892:9893   */\n      dup3\n        /* \"#utility.yul\":9888:9897   */\n      sub\n        /* \"#utility.yul\":9880:9897   */\n      swap1\n      pop\n        /* \"#utility.yul\":9919:9920   */\n      dup2\n        /* \"#utility.yul\":9913:9917   */\n      dup2\n        /* \"#utility.yul\":9910:9921   */\n      gt\n        /* \"#utility.yul\":9907:9944   */\n      iszero\n      tag_222\n      jumpi\n        /* \"#utility.yul\":9924:9942   */\n      tag_223\n      tag_131\n      jump\t// in\n    tag_223:\n        /* \"#utility.yul\":9907:9944   */\n    tag_222:\n        /* \"#utility.yul\":9757:9951   */\n      swap3\n      swap2\n      pop\n      pop\n      jump\t// out\n\n    auxdata: 0xa2646970667358221220379610f9acbadd43ccaf85994b192e1887faa82fd1951fa9fb8648e1f36ffc7664736f6c63430008190033\n}\n",
				"bytecode": {
					"linkReferences": {},
					"object": "6080604052604b600255348015610014575f80fd5b50604051610fc3380380610fc3833981810160405281019061003691906100c9565b335f806101000a81548173ffffffffffffffffffffffffffffffffffffffff021916908373ffffffffffffffffffffffffffffffffffffffff160217905550826001819055508160048190555080600581905550505050610119565b5f80fd5b5f819050919050565b6100a881610096565b81146100b2575f80fd5b50565b5f815190506100c38161009f565b92915050565b5f805f606084860312156100e0576100df610092565b5b5f6100ed868287016100b5565b93505060206100fe868287016100b5565b925050604061010f868287016100b5565b9150509250925092565b610e9d806101265f395ff3fe60806040526004361061009b575f3560e01c80634bfbe5df116100635780634bfbe5df1461014f5780635e52584d1461017957806361203265146101a15780636cb471fe146101cb578063d92d62ac146101f5578063eb2dbcf6146102315761009b565b80631209b1f61461009f57806315f59d7f146100c957806321846c76146100f157806334701db8146100fb5780634b77ae1414610125575b5f80fd5b3480156100aa575f80fd5b506100b361026d565b6040516100c09190610959565b60405180910390f35b3480156100d4575f80fd5b506100ef60048036038101906100ea91906109a0565b610273565b005b6100f9610488565b005b348015610106575f80fd5b5061010f610629565b60405161011c9190610959565b60405180910390f35b348015610130575f80fd5b5061013961062f565b6040516101469190610959565b60405180910390f35b34801561015a575f80fd5b50610163610635565b6040516101709190610959565b60405180910390f35b348015610184575f80fd5b5061019f600480360381019061019a91906109a0565b61063b565b005b3480156101ac575f80fd5b506101b56108cb565b6040516101c29190610a0a565b60405180910390f35b3480156101d6575f80fd5b506101df6108ee565b6040516101ec9190610959565b60405180910390f35b348015610200575f80fd5b5061021b600480360381019061021691906109a0565b6108f4565b6040516102289190610a3d565b60405180910390f35b34801561023c575f80fd5b50610257600480360381019061025291906109a0565b610911565b6040516102649190610a0a565b60405180910390f35b60055481565b60015442106102b7576040517f08c379a00000000000000000000000000000000000000000000000000000000081526004016102ae90610ab0565b60405180910390fd5b60075f8281526020019081526020015f205f9054906101000a900473ffffffffffffffffffffffffffffffffffffffff1673ffffffffffffffffffffffffffffffffffffffff163373ffffffffffffffffffffffffffffffffffffffff1614610355576040517f08c379a000000000000000000000000000000000000000000000000000000000815260040161034c90610b3e565b60405180910390fd5b60085f8281526020019081526020015f205f9054906101000a900460ff16156103b3576040517f08c379a00000000000000000000000000000000000000000000000000000000081526004016103aa90610bcc565b60405180910390fd5b600160085f8381526020019081526020015f205f6101000a81548160ff0219169083151502179055505f8054906101000a900473ffffffffffffffffffffffffffffffffffffffff1673ffffffffffffffffffffffffffffffffffffffff166108fc60055490811502906040515f60405180830381858888f19350505050158015610440573d5f803e3d5ffd5b503373ffffffffffffffffffffffffffffffffffffffff16817f716bb19bdc2c35c51f08204334d6e0362bbe5428bbda94d186a1f2c8fa87b10c60405160405180910390a350565b60015442106104cc576040517f08c379a00000000000000000000000000000000000000000000000000000000081526004016104c390610ab0565b60405180910390fd5b60045460035410610512576040517f08c379a000000000000000000000000000000000000000000000000000000000815260040161050990610c34565b60405180910390fd5b600554341015610557576040517f08c379a000000000000000000000000000000000000000000000000000000000815260040161054e90610c9c565b60405180910390fd5b3360075f60065481526020019081526020015f205f6101000a81548173ffffffffffffffffffffffffffffffffffffffff021916908373ffffffffffffffffffffffffffffffffffffffff16021790555060035f8154809291906105ba90610ce7565b91905055503373ffffffffffffffffffffffffffffffffffffffff166006547f885aea068dfc8d64b3da0c1131d16d6e26947c043fb441c446de14a01087540d346040516106089190610959565b60405180910390a360065f81548092919061062290610ce7565b9190505550565b60035481565b60025481565b60015481565b60075f8281526020019081526020015f205f9054906101000a900473ffffffffffffffffffffffffffffffffffffffff1673ffffffffffffffffffffffffffffffffffffffff163373ffffffffffffffffffffffffffffffffffffffff16146106d9576040517f08c379a00000000000000000000000000000000000000000000000000000000081526004016106d090610b3e565b60405180910390fd5b60085f8281526020019081526020015f205f9054906101000a900460ff1615610737576040517f08c379a000000000000000000000000000000000000000000000000000000000815260040161072e90610bcc565b60405180910390fd5b60015442101561077c576040517f08c379a000000000000000000000000000000000000000000000000000000000815260040161077390610d78565b60405180910390fd5b5f606460025460055461078f9190610d96565b6107999190610e04565b90503373ffffffffffffffffffffffffffffffffffffffff166108fc8290811502906040515f60405180830381858888f193505050501580156107de573d5f803e3d5ffd5b505f8054906101000a900473ffffffffffffffffffffffffffffffffffffffff1673ffffffffffffffffffffffffffffffffffffffff166108fc826005546108269190610e34565b90811502906040515f60405180830381858888f1935050505015801561084e573d5f803e3d5ffd5b50600160085f8481526020019081526020015f205f6101000a81548160ff0219169083151502179055503373ffffffffffffffffffffffffffffffffffffffff16827f8c8fd3da31954f4657d981e2a89ea3421ef5d7bfa0998012eaff5f24a61a867a836040516108bf9190610959565b60405180910390a35050565b5f8054906101000a900473ffffffffffffffffffffffffffffffffffffffff1681565b60045481565b6008602052805f5260405f205f915054906101000a900460ff1681565b6007602052805f5260405f205f915054906101000a900473ffffffffffffffffffffffffffffffffffffffff1681565b5f819050919050565b61095381610941565b82525050565b5f60208201905061096c5f83018461094a565b92915050565b5f80fd5b61097f81610941565b8114610989575f80fd5b50565b5f8135905061099a81610976565b92915050565b5f602082840312156109b5576109b4610972565b5b5f6109c28482850161098c565b91505092915050565b5f73ffffffffffffffffffffffffffffffffffffffff82169050919050565b5f6109f4826109cb565b9050919050565b610a04816109ea565b82525050565b5f602082019050610a1d5f8301846109fb565b92915050565b5f8115159050919050565b610a3781610a23565b82525050565b5f602082019050610a505f830184610a2e565b92915050565b5f82825260208201905092915050565b7f4576656e7420646174652068617320616c7265616479207061737365640000005f82015250565b5f610a9a601d83610a56565b9150610aa582610a66565b602082019050919050565b5f6020820190508181035f830152610ac781610a8e565b9050919050565b7f596f7520617265206e6f7420746865206f776e6572206f6620746869732074695f8201527f636b657400000000000000000000000000000000000000000000000000000000602082015250565b5f610b28602483610a56565b9150610b3382610ace565b604082019050919050565b5f6020820190508181035f830152610b5581610b1c565b9050919050565b7f54686973207469636b65742068617320616c7265616479206265656e207265645f8201527f65656d6564000000000000000000000000000000000000000000000000000000602082015250565b5f610bb6602583610a56565b9150610bc182610b5c565b604082019050919050565b5f6020820190508181035f830152610be381610baa565b9050919050565b7f416c6c207469636b6574732068617665206265656e20697373756564000000005f82015250565b5f610c1e601c83610a56565b9150610c2982610bea565b602082019050919050565b5f6020820190508181035f830152610c4b81610c12565b9050919050565b7f496e73756666696369656e742066756e64732073656e740000000000000000005f82015250565b5f610c86601783610a56565b9150610c9182610c52565b602082019050919050565b5f6020820190508181035f830152610cb381610c7a565b9050919050565b7f4e487b71000000000000000000000000000000000000000000000000000000005f52601160045260245ffd5b5f610cf182610941565b91507fffffffffffffffffffffffffffffffffffffffffffffffffffffffffffffffff8203610d2357610d22610cba565b5b600182019050919050565b7f4576656e74206461746520686173206e6f7420706173736564207965740000005f82015250565b5f610d62601d83610a56565b9150610d6d82610d2e565b602082019050919050565b5f6020820190508181035f830152610d8f81610d56565b9050919050565b5f610da082610941565b9150610dab83610941565b9250828202610db981610941565b91508282048414831517610dd057610dcf610cba565b5b5092915050565b7f4e487b71000000000000000000000000000000000000000000000000000000005f52601260045260245ffd5b5f610e0e82610941565b9150610e1983610941565b925082610e2957610e28610dd7565b5b828204905092915050565b5f610e3e82610941565b9150610e4983610941565b9250828203905081811115610e6157610e60610cba565b5b9291505056fea2646970667358221220379610f9acbadd43ccaf85994b192e1887faa82fd1951fa9fb8648e1f36ffc7664736f6c63430008190033",
					"opcodes": "PUSH1 0x80 PUSH1 0x40 MSTORE PUSH1 0x4B PUSH1 0x2 SSTORE CALLVALUE DUP1 ISZERO PUSH2 0x14 JUMPI PUSH0 DUP1 REVERT JUMPDEST POP PUSH1 0x40 MLOAD PUSH2 0xFC3 CODESIZE SUB DUP1 PUSH2 0xFC3 DUP4 CODECOPY DUP2 DUP2 ADD PUSH1 0x40 MSTORE DUP2 ADD SWAP1 PUSH2 0x36 SWAP2 SWAP1 PUSH2 0xC9 JUMP JUMPDEST CALLER PUSH0 DUP1 PUSH2 0x100 EXP DUP2 SLOAD DUP2 PUSH20 0xFFFFFFFFFFFFFFFFFFFFFFFFFFFFFFFFFFFFFFFF MUL NOT AND SWAP1 DUP4 PUSH20 0xFFFFFFFFFFFFFFFFFFFFFFFFFFFFFFFFFFFFFFFF AND MUL OR SWAP1 SSTORE POP DUP3 PUSH1 0x1 DUP2 SWAP1 SSTORE POP DUP2 PUSH1 0x4 DUP2 SWAP1 SSTORE POP DUP1 PUSH1 0x5 DUP2 SWAP1 SSTORE POP POP POP POP PUSH2 0x119 JUMP JUMPDEST PUSH0 DUP1 REVERT JUMPDEST PUSH0 DUP2 SWAP1 POP SWAP2 SWAP1 POP JUMP JUMPDEST PUSH2 0xA8 DUP2 PUSH2 0x96 JUMP JUMPDEST DUP2 EQ PUSH2 0xB2 JUMPI PUSH0 DUP1 REVERT JUMPDEST POP JUMP JUMPDEST PUSH0 DUP2 MLOAD SWAP1 POP PUSH2 0xC3 DUP2 PUSH2 0x9F JUMP JUMPDEST SWAP3 SWAP2 POP POP JUMP JUMPDEST PUSH0 DUP1 PUSH0 PUSH1 0x60 DUP5 DUP7 SUB SLT ISZERO PUSH2 0xE0 JUMPI PUSH2 0xDF PUSH2 0x92 JUMP JUMPDEST JUMPDEST PUSH0 PUSH2 0xED DUP7 DUP3 DUP8 ADD PUSH2 0xB5 JUMP JUMPDEST SWAP4 POP POP PUSH1 0x20 PUSH2 0xFE DUP7 DUP3 DUP8 ADD PUSH2 0xB5 JUMP JUMPDEST SWAP3 POP POP PUSH1 0x40 PUSH2 0x10F DUP7 DUP3 DUP8 ADD PUSH2 0xB5 JUMP JUMPDEST SWAP2 POP POP SWAP3 POP SWAP3 POP SWAP3 JUMP JUMPDEST PUSH2 0xE9D DUP1 PUSH2 0x126 PUSH0 CODECOPY PUSH0 RETURN INVALID PUSH1 0x80 PUSH1 0x40 MSTORE PUSH1 0x4 CALLDATASIZE LT PUSH2 0x9B JUMPI PUSH0 CALLDATALOAD PUSH1 0xE0 SHR DUP1 PUSH4 0x4BFBE5DF GT PUSH2 0x63 JUMPI DUP1 PUSH4 0x4BFBE5DF EQ PUSH2 0x14F JUMPI DUP1 PUSH4 0x5E52584D EQ PUSH2 0x179 JUMPI DUP1 PUSH4 0x61203265 EQ PUSH2 0x1A1 JUMPI DUP1 PUSH4 0x6CB471FE EQ PUSH2 0x1CB JUMPI DUP1 PUSH4 0xD92D62AC EQ PUSH2 0x1F5 JUMPI DUP1 PUSH4 0xEB2DBCF6 EQ PUSH2 0x231 JUMPI PUSH2 0x9B JUMP JUMPDEST DUP1 PUSH4 0x1209B1F6 EQ PUSH2 0x9F JUMPI DUP1 PUSH4 0x15F59D7F EQ PUSH2 0xC9 JUMPI DUP1 PUSH4 0x21846C76 EQ PUSH2 0xF1 JUMPI DUP1 PUSH4 0x34701DB8 EQ PUSH2 0xFB JUMPI DUP1 PUSH4 0x4B77AE14 EQ PUSH2 0x125 JUMPI JUMPDEST PUSH0 DUP1 REVERT JUMPDEST CALLVALUE DUP1 ISZERO PUSH2 0xAA JUMPI PUSH0 DUP1 REVERT JUMPDEST POP PUSH2 0xB3 PUSH2 0x26D JUMP JUMPDEST PUSH1 0x40 MLOAD PUSH2 0xC0 SWAP2 SWAP1 PUSH2 0x959 JUMP JUMPDEST PUSH1 0x40 MLOAD DUP1 SWAP2 SUB SWAP1 RETURN JUMPDEST CALLVALUE DUP1 ISZERO PUSH2 0xD4 JUMPI PUSH0 DUP1 REVERT JUMPDEST POP PUSH2 0xEF PUSH1 0x4 DUP1 CALLDATASIZE SUB DUP2 ADD SWAP1 PUSH2 0xEA SWAP2 SWAP1 PUSH2 0x9A0 JUMP JUMPDEST PUSH2 0x273 JUMP JUMPDEST STOP JUMPDEST PUSH2 0xF9 PUSH2 0x488 JUMP JUMPDEST STOP JUMPDEST CALLVALUE DUP1 ISZERO PUSH2 0x106 JUMPI PUSH0 DUP1 REVERT JUMPDEST POP PUSH2 0x10F PUSH2 0x629 JUMP JUMPDEST PUSH1 0x40 MLOAD PUSH2 0x11C SWAP2 SWAP1 PUSH2 0x959 JUMP JUMPDEST PUSH1 0x40 MLOAD DUP1 SWAP2 SUB SWAP1 RETURN JUMPDEST CALLVALUE DUP1 ISZERO PUSH2 0x130 JUMPI PUSH0 DUP1 REVERT JUMPDEST POP PUSH2 0x139 PUSH2 0x62F JUMP JUMPDEST PUSH1 0x40 MLOAD PUSH2 0x146 SWAP2 SWAP1 PUSH2 0x959 JUMP JUMPDEST PUSH1 0x40 MLOAD DUP1 SWAP2 SUB SWAP1 RETURN JUMPDEST CALLVALUE DUP1 ISZERO PUSH2 0x15A JUMPI PUSH0 DUP1 REVERT JUMPDEST POP PUSH2 0x163 PUSH2 0x635 JUMP JUMPDEST PUSH1 0x40 MLOAD PUSH2 0x170 SWAP2 SWAP1 PUSH2 0x959 JUMP JUMPDEST PUSH1 0x40 MLOAD DUP1 SWAP2 SUB SWAP1 RETURN JUMPDEST CALLVALUE DUP1 ISZERO PUSH2 0x184 JUMPI PUSH0 DUP1 REVERT JUMPDEST POP PUSH2 0x19F PUSH1 0x4 DUP1 CALLDATASIZE SUB DUP2 ADD SWAP1 PUSH2 0x19A SWAP2 SWAP1 PUSH2 0x9A0 JUMP JUMPDEST PUSH2 0x63B JUMP JUMPDEST STOP JUMPDEST CALLVALUE DUP1 ISZERO PUSH2 0x1AC JUMPI PUSH0 DUP1 REVERT JUMPDEST POP PUSH2 0x1B5 PUSH2 0x8CB JUMP JUMPDEST PUSH1 0x40 MLOAD PUSH2 0x1C2 SWAP2 SWAP1 PUSH2 0xA0A JUMP JUMPDEST PUSH1 0x40 MLOAD DUP1 SWAP2 SUB SWAP1 RETURN JUMPDEST CALLVALUE DUP1 ISZERO PUSH2 0x1D6 JUMPI PUSH0 DUP1 REVERT JUMPDEST POP PUSH2 0x1DF PUSH2 0x8EE JUMP JUMPDEST PUSH1 0x40 MLOAD PUSH2 0x1EC SWAP2 SWAP1 PUSH2 0x959 JUMP JUMPDEST PUSH1 0x40 MLOAD DUP1 SWAP2 SUB SWAP1 RETURN JUMPDEST CALLVALUE DUP1 ISZERO PUSH2 0x200 JUMPI PUSH0 DUP1 REVERT JUMPDEST POP PUSH2 0x21B PUSH1 0x4 DUP1 CALLDATASIZE SUB DUP2 ADD SWAP1 PUSH2 0x216 SWAP2 SWAP1 PUSH2 0x9A0 JUMP JUMPDEST PUSH2 0x8F4 JUMP JUMPDEST PUSH1 0x40 MLOAD PUSH2 0x228 SWAP2 SWAP1 PUSH2 0xA3D JUMP JUMPDEST PUSH1 0x40 MLOAD DUP1 SWAP2 SUB SWAP1 RETURN JUMPDEST CALLVALUE DUP1 ISZERO PUSH2 0x23C JUMPI PUSH0 DUP1 REVERT JUMPDEST POP PUSH2 0x257 PUSH1 0x4 DUP1 CALLDATASIZE SUB DUP2 ADD SWAP1 PUSH2 0x252 SWAP2 SWAP1 PUSH2 0x9A0 JUMP JUMPDEST PUSH2 0x911 JUMP JUMPDEST PUSH1 0x40 MLOAD PUSH2 0x264 SWAP2 SWAP1 PUSH2 0xA0A JUMP JUMPDEST PUSH1 0x40 MLOAD DUP1 SWAP2 SUB SWAP1 RETURN JUMPDEST PUSH1 0x5 SLOAD DUP2 JUMP JUMPDEST PUSH1 0x1 SLOAD TIMESTAMP LT PUSH2 0x2B7 JUMPI PUSH1 0x40 MLOAD PUSH32 0x8C379A000000000000000000000000000000000000000000000000000000000 DUP2 MSTORE PUSH1 0x4 ADD PUSH2 0x2AE SWAP1 PUSH2 0xAB0 JUMP JUMPDEST PUSH1 0x40 MLOAD DUP1 SWAP2 SUB SWAP1 REVERT JUMPDEST PUSH1 0x7 PUSH0 DUP3 DUP2 MSTORE PUSH1 0x20 ADD SWAP1 DUP2 MSTORE PUSH1 0x20 ADD PUSH0 KECCAK256 PUSH0 SWAP1 SLOAD SWAP1 PUSH2 0x100 EXP SWAP1 DIV PUSH20 0xFFFFFFFFFFFFFFFFFFFFFFFFFFFFFFFFFFFFFFFF AND PUSH20 0xFFFFFFFFFFFFFFFFFFFFFFFFFFFFFFFFFFFFFFFF AND CALLER PUSH20 0xFFFFFFFFFFFFFFFFFFFFFFFFFFFFFFFFFFFFFFFF AND EQ PUSH2 0x355 JUMPI PUSH1 0x40 MLOAD PUSH32 0x8C379A000000000000000000000000000000000000000000000000000000000 DUP2 MSTORE PUSH1 0x4 ADD PUSH2 0x34C SWAP1 PUSH2 0xB3E JUMP JUMPDEST PUSH1 0x40 MLOAD DUP1 SWAP2 SUB SWAP1 REVERT JUMPDEST PUSH1 0x8 PUSH0 DUP3 DUP2 MSTORE PUSH1 0x20 ADD SWAP1 DUP2 MSTORE PUSH1 0x20 ADD PUSH0 KECCAK256 PUSH0 SWAP1 SLOAD SWAP1 PUSH2 0x100 EXP SWAP1 DIV PUSH1 0xFF AND ISZERO PUSH2 0x3B3 JUMPI PUSH1 0x40 MLOAD PUSH32 0x8C379A000000000000000000000000000000000000000000000000000000000 DUP2 MSTORE PUSH1 0x4 ADD PUSH2 0x3AA SWAP1 PUSH2 0xBCC JUMP JUMPDEST PUSH1 0x40 MLOAD DUP1 SWAP2 SUB SWAP1 REVERT JUMPDEST PUSH1 0x1 PUSH1 0x8 PUSH0 DUP4 DUP2 MSTORE PUSH1 0x20 ADD SWAP1 DUP2 MSTORE PUSH1 0x20 ADD PUSH0 KECCAK256 PUSH0 PUSH2 0x100 EXP DUP2 SLOAD DUP2 PUSH1 0xFF MUL NOT AND SWAP1 DUP4 ISZERO ISZERO MUL OR SWAP1 SSTORE POP PUSH0 DUP1 SLOAD SWAP1 PUSH2 0x100 EXP SWAP1 DIV PUSH20 0xFFFFFFFFFFFFFFFFFFFFFFFFFFFFFFFFFFFFFFFF AND PUSH20 0xFFFFFFFFFFFFFFFFFFFFFFFFFFFFFFFFFFFFFFFF AND PUSH2 0x8FC PUSH1 0x5 SLOAD SWAP1 DUP2 ISZERO MUL SWAP1 PUSH1 0x40 MLOAD PUSH0 PUSH1 0x40 MLOAD DUP1 DUP4 SUB DUP2 DUP6 DUP9 DUP9 CALL SWAP4 POP POP POP POP ISZERO DUP1 ISZERO PUSH2 0x440 JUMPI RETURNDATASIZE PUSH0 DUP1 RETURNDATACOPY RETURNDATASIZE PUSH0 REVERT JUMPDEST POP CALLER PUSH20 0xFFFFFFFFFFFFFFFFFFFFFFFFFFFFFFFFFFFFFFFF AND DUP2 PUSH32 0x716BB19BDC2C35C51F08204334D6E0362BBE5428BBDA94D186A1F2C8FA87B10C PUSH1 0x40 MLOAD PUSH1 0x40 MLOAD DUP1 SWAP2 SUB SWAP1 LOG3 POP JUMP JUMPDEST PUSH1 0x1 SLOAD TIMESTAMP LT PUSH2 0x4CC JUMPI PUSH1 0x40 MLOAD PUSH32 0x8C379A000000000000000000000000000000000000000000000000000000000 DUP2 MSTORE PUSH1 0x4 ADD PUSH2 0x4C3 SWAP1 PUSH2 0xAB0 JUMP JUMPDEST PUSH1 0x40 MLOAD DUP1 SWAP2 SUB SWAP1 REVERT JUMPDEST PUSH1 0x4 SLOAD PUSH1 0x3 SLOAD LT PUSH2 0x512 JUMPI PUSH1 0x40 MLOAD PUSH32 0x8C379A000000000000000000000000000000000000000000000000000000000 DUP2 MSTORE PUSH1 0x4 ADD PUSH2 0x509 SWAP1 PUSH2 0xC34 JUMP JUMPDEST PUSH1 0x40 MLOAD DUP1 SWAP2 SUB SWAP1 REVERT JUMPDEST PUSH1 0x5 SLOAD CALLVALUE LT ISZERO PUSH2 0x557 JUMPI PUSH1 0x40 MLOAD PUSH32 0x8C379A000000000000000000000000000000000000000000000000000000000 DUP2 MSTORE PUSH1 0x4 ADD PUSH2 0x54E SWAP1 PUSH2 0xC9C JUMP JUMPDEST PUSH1 0x40 MLOAD DUP1 SWAP2 SUB SWAP1 REVERT JUMPDEST CALLER PUSH1 0x7 PUSH0 PUSH1 0x6 SLOAD DUP2 MSTORE PUSH1 0x20 ADD SWAP1 DUP2 MSTORE PUSH1 0x20 ADD PUSH0 KECCAK256 PUSH0 PUSH2 0x100 EXP DUP2 SLOAD DUP2 PUSH20 0xFFFFFFFFFFFFFFFFFFFFFFFFFFFFFFFFFFFFFFFF MUL NOT AND SWAP1 DUP4 PUSH20 0xFFFFFFFFFFFFFFFFFFFFFFFFFFFFFFFFFFFFFFFF AND MUL OR SWAP1 SSTORE POP PUSH1 0x3 PUSH0 DUP2 SLOAD DUP1 SWAP3 SWAP2 SWAP1 PUSH2 0x5BA SWAP1 PUSH2 0xCE7 JUMP JUMPDEST SWAP2 SWAP1 POP SSTORE POP CALLER PUSH20 0xFFFFFFFFFFFFFFFFFFFFFFFFFFFFFFFFFFFFFFFF AND PUSH1 0x6 SLOAD PUSH32 0x885AEA068DFC8D64B3DA0C1131D16D6E26947C043FB441C446DE14A01087540D CALLVALUE PUSH1 0x40 MLOAD PUSH2 0x608 SWAP2 SWAP1 PUSH2 0x959 JUMP JUMPDEST PUSH1 0x40 MLOAD DUP1 SWAP2 SUB SWAP1 LOG3 PUSH1 0x6 PUSH0 DUP2 SLOAD DUP1 SWAP3 SWAP2 SWAP1 PUSH2 0x622 SWAP1 PUSH2 0xCE7 JUMP JUMPDEST SWAP2 SWAP1 POP SSTORE POP JUMP JUMPDEST PUSH1 0x3 SLOAD DUP2 JUMP JUMPDEST PUSH1 0x2 SLOAD DUP2 JUMP JUMPDEST PUSH1 0x1 SLOAD DUP2 JUMP JUMPDEST PUSH1 0x7 PUSH0 DUP3 DUP2 MSTORE PUSH1 0x20 ADD SWAP1 DUP2 MSTORE PUSH1 0x20 ADD PUSH0 KECCAK256 PUSH0 SWAP1 SLOAD SWAP1 PUSH2 0x100 EXP SWAP1 DIV PUSH20 0xFFFFFFFFFFFFFFFFFFFFFFFFFFFFFFFFFFFFFFFF AND PUSH20 0xFFFFFFFFFFFFFFFFFFFFFFFFFFFFFFFFFFFFFFFF AND CALLER PUSH20 0xFFFFFFFFFFFFFFFFFFFFFFFFFFFFFFFFFFFFFFFF AND EQ PUSH2 0x6D9 JUMPI PUSH1 0x40 MLOAD PUSH32 0x8C379A000000000000000000000000000000000000000000000000000000000 DUP2 MSTORE PUSH1 0x4 ADD PUSH2 0x6D0 SWAP1 PUSH2 0xB3E JUMP JUMPDEST PUSH1 0x40 MLOAD DUP1 SWAP2 SUB SWAP1 REVERT JUMPDEST PUSH1 0x8 PUSH0 DUP3 DUP2 MSTORE PUSH1 0x20 ADD SWAP1 DUP2 MSTORE PUSH1 0x20 ADD PUSH0 KECCAK256 PUSH0 SWAP1 SLOAD SWAP1 PUSH2 0x100 EXP SWAP1 DIV PUSH1 0xFF AND ISZERO PUSH2 0x737 JUMPI PUSH1 0x40 MLOAD PUSH32 0x8C379A000000000000000000000000000000000000000000000000000000000 DUP2 MSTORE PUSH1 0x4 ADD PUSH2 0x72E SWAP1 PUSH2 0xBCC JUMP JUMPDEST PUSH1 0x40 MLOAD DUP1 SWAP2 SUB SWAP1 REVERT JUMPDEST PUSH1 0x1 SLOAD TIMESTAMP LT ISZERO PUSH2 0x77C JUMPI PUSH1 0x40 MLOAD PUSH32 0x8C379A000000000000000000000000000000000000000000000000000000000 DUP2 MSTORE PUSH1 0x4 ADD PUSH2 0x773 SWAP1 PUSH2 0xD78 JUMP JUMPDEST PUSH1 0x40 MLOAD DUP1 SWAP2 SUB SWAP1 REVERT JUMPDEST PUSH0 PUSH1 0x64 PUSH1 0x2 SLOAD PUSH1 0x5 SLOAD PUSH2 0x78F SWAP2 SWAP1 PUSH2 0xD96 JUMP JUMPDEST PUSH2 0x799 SWAP2 SWAP1 PUSH2 0xE04 JUMP JUMPDEST SWAP1 POP CALLER PUSH20 0xFFFFFFFFFFFFFFFFFFFFFFFFFFFFFFFFFFFFFFFF AND PUSH2 0x8FC DUP3 SWAP1 DUP2 ISZERO MUL SWAP1 PUSH1 0x40 MLOAD PUSH0 PUSH1 0x40 MLOAD DUP1 DUP4 SUB DUP2 DUP6 DUP9 DUP9 CALL SWAP4 POP POP POP POP ISZERO DUP1 ISZERO PUSH2 0x7DE JUMPI RETURNDATASIZE PUSH0 DUP1 RETURNDATACOPY RETURNDATASIZE PUSH0 REVERT JUMPDEST POP PUSH0 DUP1 SLOAD SWAP1 PUSH2 0x100 EXP SWAP1 DIV PUSH20 0xFFFFFFFFFFFFFFFFFFFFFFFFFFFFFFFFFFFFFFFF AND PUSH20 0xFFFFFFFFFFFFFFFFFFFFFFFFFFFFFFFFFFFFFFFF AND PUSH2 0x8FC DUP3 PUSH1 0x5 SLOAD PUSH2 0x826 SWAP2 SWAP1 PUSH2 0xE34 JUMP JUMPDEST SWAP1 DUP2 ISZERO MUL SWAP1 PUSH1 0x40 MLOAD PUSH0 PUSH1 0x40 MLOAD DUP1 DUP4 SUB DUP2 DUP6 DUP9 DUP9 CALL SWAP4 POP POP POP POP ISZERO DUP1 ISZERO PUSH2 0x84E JUMPI RETURNDATASIZE PUSH0 DUP1 RETURNDATACOPY RETURNDATASIZE PUSH0 REVERT JUMPDEST POP PUSH1 0x1 PUSH1 0x8 PUSH0 DUP5 DUP2 MSTORE PUSH1 0x20 ADD SWAP1 DUP2 MSTORE PUSH1 0x20 ADD PUSH0 KECCAK256 PUSH0 PUSH2 0x100 EXP DUP2 SLOAD DUP2 PUSH1 0xFF MUL NOT AND SWAP1 DUP4 ISZERO ISZERO MUL OR SWAP1 SSTORE POP CALLER PUSH20 0xFFFFFFFFFFFFFFFFFFFFFFFFFFFFFFFFFFFFFFFF AND DUP3 PUSH32 0x8C8FD3DA31954F4657D981E2A89EA3421EF5D7BFA0998012EAFF5F24A61A867A DUP4 PUSH1 0x40 MLOAD PUSH2 0x8BF SWAP2 SWAP1 PUSH2 0x959 JUMP JUMPDEST PUSH1 0x40 MLOAD DUP1 SWAP2 SUB SWAP1 LOG3 POP POP JUMP JUMPDEST PUSH0 DUP1 SLOAD SWAP1 PUSH2 0x100 EXP SWAP1 DIV PUSH20 0xFFFFFFFFFFFFFFFFFFFFFFFFFFFFFFFFFFFFFFFF AND DUP2 JUMP JUMPDEST PUSH1 0x4 SLOAD DUP2 JUMP JUMPDEST PUSH1 0x8 PUSH1 0x20 MSTORE DUP1 PUSH0 MSTORE PUSH1 0x40 PUSH0 KECCAK256 PUSH0 SWAP2 POP SLOAD SWAP1 PUSH2 0x100 EXP SWAP1 DIV PUSH1 0xFF AND DUP2 JUMP JUMPDEST PUSH1 0x7 PUSH1 0x20 MSTORE DUP1 PUSH0 MSTORE PUSH1 0x40 PUSH0 KECCAK256 PUSH0 SWAP2 POP SLOAD SWAP1 PUSH2 0x100 EXP SWAP1 DIV PUSH20 0xFFFFFFFFFFFFFFFFFFFFFFFFFFFFFFFFFFFFFFFF AND DUP2 JUMP JUMPDEST PUSH0 DUP2 SWAP1 POP SWAP2 SWAP1 POP JUMP JUMPDEST PUSH2 0x953 DUP2 PUSH2 0x941 JUMP JUMPDEST DUP3 MSTORE POP POP JUMP JUMPDEST PUSH0 PUSH1 0x20 DUP3 ADD SWAP1 POP PUSH2 0x96C PUSH0 DUP4 ADD DUP5 PUSH2 0x94A JUMP JUMPDEST SWAP3 SWAP2 POP POP JUMP JUMPDEST PUSH0 DUP1 REVERT JUMPDEST PUSH2 0x97F DUP2 PUSH2 0x941 JUMP JUMPDEST DUP2 EQ PUSH2 0x989 JUMPI PUSH0 DUP1 REVERT JUMPDEST POP JUMP JUMPDEST PUSH0 DUP2 CALLDATALOAD SWAP1 POP PUSH2 0x99A DUP2 PUSH2 0x976 JUMP JUMPDEST SWAP3 SWAP2 POP POP JUMP JUMPDEST PUSH0 PUSH1 0x20 DUP3 DUP5 SUB SLT ISZERO PUSH2 0x9B5 JUMPI PUSH2 0x9B4 PUSH2 0x972 JUMP JUMPDEST JUMPDEST PUSH0 PUSH2 0x9C2 DUP5 DUP3 DUP6 ADD PUSH2 0x98C JUMP JUMPDEST SWAP2 POP POP SWAP3 SWAP2 POP POP JUMP JUMPDEST PUSH0 PUSH20 0xFFFFFFFFFFFFFFFFFFFFFFFFFFFFFFFFFFFFFFFF DUP3 AND SWAP1 POP SWAP2 SWAP1 POP JUMP JUMPDEST PUSH0 PUSH2 0x9F4 DUP3 PUSH2 0x9CB JUMP JUMPDEST SWAP1 POP SWAP2 SWAP1 POP JUMP JUMPDEST PUSH2 0xA04 DUP2 PUSH2 0x9EA JUMP JUMPDEST DUP3 MSTORE POP POP JUMP JUMPDEST PUSH0 PUSH1 0x20 DUP3 ADD SWAP1 POP PUSH2 0xA1D PUSH0 DUP4 ADD DUP5 PUSH2 0x9FB JUMP JUMPDEST SWAP3 SWAP2 POP POP JUMP JUMPDEST PUSH0 DUP2 ISZERO ISZERO SWAP1 POP SWAP2 SWAP1 POP JUMP JUMPDEST PUSH2 0xA37 DUP2 PUSH2 0xA23 JUMP JUMPDEST DUP3 MSTORE POP POP JUMP JUMPDEST PUSH0 PUSH1 0x20 DUP3 ADD SWAP1 POP PUSH2 0xA50 PUSH0 DUP4 ADD DUP5 PUSH2 0xA2E JUMP JUMPDEST SWAP3 SWAP2 POP POP JUMP JUMPDEST PUSH0 DUP3 DUP3 MSTORE PUSH1 0x20 DUP3 ADD SWAP1 POP SWAP3 SWAP2 POP POP JUMP JUMPDEST PUSH32 0x4576656E7420646174652068617320616C726561647920706173736564000000 PUSH0 DUP3 ADD MSTORE POP JUMP JUMPDEST PUSH0 PUSH2 0xA9A PUSH1 0x1D DUP4 PUSH2 0xA56 JUMP JUMPDEST SWAP2 POP PUSH2 0xAA5 DUP3 PUSH2 0xA66 JUMP JUMPDEST PUSH1 0x20 DUP3 ADD SWAP1 POP SWAP2 SWAP1 POP JUMP JUMPDEST PUSH0 PUSH1 0x20 DUP3 ADD SWAP1 POP DUP2 DUP2 SUB PUSH0 DUP4 ADD MSTORE PUSH2 0xAC7 DUP2 PUSH2 0xA8E JUMP JUMPDEST SWAP1 POP SWAP2 SWAP1 POP JUMP JUMPDEST PUSH32 0x596F7520617265206E6F7420746865206F776E6572206F662074686973207469 PUSH0 DUP3 ADD MSTORE PUSH32 0x636B657400000000000000000000000000000000000000000000000000000000 PUSH1 0x20 DUP3 ADD MSTORE POP JUMP JUMPDEST PUSH0 PUSH2 0xB28 PUSH1 0x24 DUP4 PUSH2 0xA56 JUMP JUMPDEST SWAP2 POP PUSH2 0xB33 DUP3 PUSH2 0xACE JUMP JUMPDEST PUSH1 0x40 DUP3 ADD SWAP1 POP SWAP2 SWAP1 POP JUMP JUMPDEST PUSH0 PUSH1 0x20 DUP3 ADD SWAP1 POP DUP2 DUP2 SUB PUSH0 DUP4 ADD MSTORE PUSH2 0xB55 DUP2 PUSH2 0xB1C JUMP JUMPDEST SWAP1 POP SWAP2 SWAP1 POP JUMP JUMPDEST PUSH32 0x54686973207469636B65742068617320616C7265616479206265656E20726564 PUSH0 DUP3 ADD MSTORE PUSH32 0x65656D6564000000000000000000000000000000000000000000000000000000 PUSH1 0x20 DUP3 ADD MSTORE POP JUMP JUMPDEST PUSH0 PUSH2 0xBB6 PUSH1 0x25 DUP4 PUSH2 0xA56 JUMP JUMPDEST SWAP2 POP PUSH2 0xBC1 DUP3 PUSH2 0xB5C JUMP JUMPDEST PUSH1 0x40 DUP3 ADD SWAP1 POP SWAP2 SWAP1 POP JUMP JUMPDEST PUSH0 PUSH1 0x20 DUP3 ADD SWAP1 POP DUP2 DUP2 SUB PUSH0 DUP4 ADD MSTORE PUSH2 0xBE3 DUP2 PUSH2 0xBAA JUMP JUMPDEST SWAP1 POP SWAP2 SWAP1 POP JUMP JUMPDEST PUSH32 0x416C6C207469636B6574732068617665206265656E2069737375656400000000 PUSH0 DUP3 ADD MSTORE POP JUMP JUMPDEST PUSH0 PUSH2 0xC1E PUSH1 0x1C DUP4 PUSH2 0xA56 JUMP JUMPDEST SWAP2 POP PUSH2 0xC29 DUP3 PUSH2 0xBEA JUMP JUMPDEST PUSH1 0x20 DUP3 ADD SWAP1 POP SWAP2 SWAP1 POP JUMP JUMPDEST PUSH0 PUSH1 0x20 DUP3 ADD SWAP1 POP DUP2 DUP2 SUB PUSH0 DUP4 ADD MSTORE PUSH2 0xC4B DUP2 PUSH2 0xC12 JUMP JUMPDEST SWAP1 POP SWAP2 SWAP1 POP JUMP JUMPDEST PUSH32 0x496E73756666696369656E742066756E64732073656E74000000000000000000 PUSH0 DUP3 ADD MSTORE POP JUMP JUMPDEST PUSH0 PUSH2 0xC86 PUSH1 0x17 DUP4 PUSH2 0xA56 JUMP JUMPDEST SWAP2 POP PUSH2 0xC91 DUP3 PUSH2 0xC52 JUMP JUMPDEST PUSH1 0x20 DUP3 ADD SWAP1 POP SWAP2 SWAP1 POP JUMP JUMPDEST PUSH0 PUSH1 0x20 DUP3 ADD SWAP1 POP DUP2 DUP2 SUB PUSH0 DUP4 ADD MSTORE PUSH2 0xCB3 DUP2 PUSH2 0xC7A JUMP JUMPDEST SWAP1 POP SWAP2 SWAP1 POP JUMP JUMPDEST PUSH32 0x4E487B7100000000000000000000000000000000000000000000000000000000 PUSH0 MSTORE PUSH1 0x11 PUSH1 0x4 MSTORE PUSH1 0x24 PUSH0 REVERT JUMPDEST PUSH0 PUSH2 0xCF1 DUP3 PUSH2 0x941 JUMP JUMPDEST SWAP2 POP PUSH32 0xFFFFFFFFFFFFFFFFFFFFFFFFFFFFFFFFFFFFFFFFFFFFFFFFFFFFFFFFFFFFFFFF DUP3 SUB PUSH2 0xD23 JUMPI PUSH2 0xD22 PUSH2 0xCBA JUMP JUMPDEST JUMPDEST PUSH1 0x1 DUP3 ADD SWAP1 POP SWAP2 SWAP1 POP JUMP JUMPDEST PUSH32 0x4576656E74206461746520686173206E6F742070617373656420796574000000 PUSH0 DUP3 ADD MSTORE POP JUMP JUMPDEST PUSH0 PUSH2 0xD62 PUSH1 0x1D DUP4 PUSH2 0xA56 JUMP JUMPDEST SWAP2 POP PUSH2 0xD6D DUP3 PUSH2 0xD2E JUMP JUMPDEST PUSH1 0x20 DUP3 ADD SWAP1 POP SWAP2 SWAP1 POP JUMP JUMPDEST PUSH0 PUSH1 0x20 DUP3 ADD SWAP1 POP DUP2 DUP2 SUB PUSH0 DUP4 ADD MSTORE PUSH2 0xD8F DUP2 PUSH2 0xD56 JUMP JUMPDEST SWAP1 POP SWAP2 SWAP1 POP JUMP JUMPDEST PUSH0 PUSH2 0xDA0 DUP3 PUSH2 0x941 JUMP JUMPDEST SWAP2 POP PUSH2 0xDAB DUP4 PUSH2 0x941 JUMP JUMPDEST SWAP3 POP DUP3 DUP3 MUL PUSH2 0xDB9 DUP2 PUSH2 0x941 JUMP JUMPDEST SWAP2 POP DUP3 DUP3 DIV DUP5 EQ DUP4 ISZERO OR PUSH2 0xDD0 JUMPI PUSH2 0xDCF PUSH2 0xCBA JUMP JUMPDEST JUMPDEST POP SWAP3 SWAP2 POP POP JUMP JUMPDEST PUSH32 0x4E487B7100000000000000000000000000000000000000000000000000000000 PUSH0 MSTORE PUSH1 0x12 PUSH1 0x4 MSTORE PUSH1 0x24 PUSH0 REVERT JUMPDEST PUSH0 PUSH2 0xE0E DUP3 PUSH2 0x941 JUMP JUMPDEST SWAP2 POP PUSH2 0xE19 DUP4 PUSH2 0x941 JUMP JUMPDEST SWAP3 POP DUP3 PUSH2 0xE29 JUMPI PUSH2 0xE28 PUSH2 0xDD7 JUMP JUMPDEST JUMPDEST DUP3 DUP3 DIV SWAP1 POP SWAP3 SWAP2 POP POP JUMP JUMPDEST PUSH0 PUSH2 0xE3E DUP3 PUSH2 0x941 JUMP JUMPDEST SWAP2 POP PUSH2 0xE49 DUP4 PUSH2 0x941 JUMP JUMPDEST SWAP3 POP DUP3 DUP3 SUB SWAP1 POP DUP2 DUP2 GT ISZERO PUSH2 0xE61 JUMPI PUSH2 0xE60 PUSH2 0xCBA JUMP JUMPDEST JUMPDEST SWAP3 SWAP2 POP POP JUMP INVALID LOG2 PUSH5 0x6970667358 0x22 SLT KECCAK256 CALLDATACOPY SWAP7 LT 0xF9 0xAC 0xBA 0xDD NUMBER 0xCC 0xAF DUP6 SWAP10 0x4B NOT 0x2E XOR DUP8 STATICCALL 0xA8 0x2F 0xD1 SWAP6 0x1F 0xA9 0xFB DUP7 BASEFEE 0xE1 RETURN PUSH16 0xFC7664736F6C63430008190033000000 "
				},
				"gasEstimates": {
					"creation": {
						"codeDepositCost": "748200",
						"executionCost": "infinite",
						"totalCost": "infinite"
					},
					"external": {
						"eventDate()": "2425",
						"organizer()": "2549",
						"purchaseTicket()": "infinite",
						"redeemTicket(uint256)": "infinite",
						"refundPercentage()": "2514",
						"refundUnusedTicket(uint256)": "infinite",
						"ticketOwners(uint256)": "2937",
						"ticketPrice()": "2426",
						"ticketRedeemed(uint256)": "2873",
						"totalTicketsAvailable()": "2491",
						"totalTicketsSold()": "2492"
					}
				},
				"methodIdentifiers": {
					"eventDate()": "4bfbe5df",
					"organizer()": "61203265",
					"purchaseTicket()": "21846c76",
					"redeemTicket(uint256)": "15f59d7f",
					"refundPercentage()": "4b77ae14",
					"refundUnusedTicket(uint256)": "5e52584d",
					"ticketOwners(uint256)": "eb2dbcf6",
					"ticketPrice()": "1209b1f6",
					"ticketRedeemed(uint256)": "d92d62ac",
					"totalTicketsAvailable()": "6cb471fe",
					"totalTicketsSold()": "34701db8"
				}
			},
			"storageLayout": {
				"storage": [
					{
						"astId": 3,
						"contract": "contracts/HelloWorld.sol:TicketToken",
						"label": "organizer",
						"offset": 0,
						"slot": "0",
						"type": "t_address"
					},
					{
						"astId": 5,
						"contract": "contracts/HelloWorld.sol:TicketToken",
						"label": "eventDate",
						"offset": 0,
						"slot": "1",
						"type": "t_uint256"
					},
					{
						"astId": 8,
						"contract": "contracts/HelloWorld.sol:TicketToken",
						"label": "refundPercentage",
						"offset": 0,
						"slot": "2",
						"type": "t_uint256"
					},
					{
						"astId": 10,
						"contract": "contracts/HelloWorld.sol:TicketToken",
						"label": "totalTicketsSold",
						"offset": 0,
						"slot": "3",
						"type": "t_uint256"
					},
					{
						"astId": 12,
						"contract": "contracts/HelloWorld.sol:TicketToken",
						"label": "totalTicketsAvailable",
						"offset": 0,
						"slot": "4",
						"type": "t_uint256"
					},
					{
						"astId": 14,
						"contract": "contracts/HelloWorld.sol:TicketToken",
						"label": "ticketPrice",
						"offset": 0,
						"slot": "5",
						"type": "t_uint256"
					},
					{
						"astId": 16,
						"contract": "contracts/HelloWorld.sol:TicketToken",
						"label": "ticketId",
						"offset": 0,
						"slot": "6",
						"type": "t_uint256"
					},
					{
						"astId": 20,
						"contract": "contracts/HelloWorld.sol:TicketToken",
						"label": "ticketOwners",
						"offset": 0,
						"slot": "7",
						"type": "t_mapping(t_uint256,t_address)"
					},
					{
						"astId": 24,
						"contract": "contracts/HelloWorld.sol:TicketToken",
						"label": "ticketRedeemed",
						"offset": 0,
						"slot": "8",
						"type": "t_mapping(t_uint256,t_bool)"
					}
				],
				"types": {
					"t_address": {
						"encoding": "inplace",
						"label": "address",
						"numberOfBytes": "20"
					},
					"t_bool": {
						"encoding": "inplace",
						"label": "bool",
						"numberOfBytes": "1"
					},
					"t_mapping(t_uint256,t_address)": {
						"encoding": "mapping",
						"key": "t_uint256",
						"label": "mapping(uint256 => address)",
						"numberOfBytes": "32",
						"value": "t_address"
					},
					"t_mapping(t_uint256,t_bool)": {
						"encoding": "mapping",
						"key": "t_uint256",
						"label": "mapping(uint256 => bool)",
						"numberOfBytes": "32",
						"value": "t_bool"
					},
					"t_uint256": {
						"encoding": "inplace",
						"label": "uint256",
						"numberOfBytes": "32"
					}
				}
			},
			"userdoc": {
				"kind": "user",
				"methods": {},
				"version": 1
			}
		}
	}
}